:100000000C9481010C94A0010C94A0010C94A0010B
:100010000C94A0010C94A0010C94A0010C94A001DC
:100020000C94A0010C94A0010C94BF1E0C94961F7C
:100030000C9407150C94A0010C94A0010C94A00141
:100040000C94A0010C94A0010C94A0010C94A001AC
:100050000C94A0010C9452150C94A0010C94A001D6
:100060000C94A0010C94A0010C94A0010C94A0018C
:100070000C94A0010C94A0010C94A0010C94A0017C
:100080000C94A0010C94A0010C94A0010C94A0016C
:100090000C94A0010C94A0012E002B003900E1006B
:1000A0000000000000001E00140004001D003500C8
:1000B000000000001F001A0016001B0049004D0040
:1000C0000000200008000700060050004A002A0037
:1000D0002100150009001900000000004C0022005A
:1000E00017000A0005004F00E200E00023001C009A
:1000F0000B00110052002C004E00240018000D00CF
:10010000100000002800000025000C000E00360042
:100110005100E4004B00260012000F0037002F00B2
:100120000000E70027001300330038003000000013
:1001300000002D0031003400E50000000000000048
:1001400029003C003F0042004500480000003A0002
:100150003D004000430046001E0000003B003E0002
:10016000410044004700C0000000040330000000CC
:1001700038034B0069006E0065007300690073006E
:10018000200041006400760061006E007400610090
:10019000670065002F0043006F006E0074006F0061
:1001A00075007200650064000000080359006F00CC
:1001B000750000000403090409023B00020100A0CD
:1001C000FA090400000103010100092111010001E5
:1001D0002240000705810308000A09040100010309
:1001E00000000009211101000122BC000705820363
:1001F00020000A1201100100000008EDFE606002FC
:10020000000102030105010902A10185020901A102
:1002100000050919012905150025019505750181BC
:100220000295017503810105010930093115812508
:100230007F95027508810609381581257F9501751E
:10024000088106050C0A38021581257F950175087D
:100250008106C0C005010980A101850319012AB7E3
:1002600000150126B700950175108100C0050C0925
:1002700001A101850419012AA002150126A00295F9
:100280000175108100C005010906A101850505075A
:1002900019E029E715002501950875018102050778
:1002A000190029EF1500250195F075018102050857
:1002B00019012905950575019102950175039101B3
:1002C000C005010906A101050719E029E715002568
:1002D00001950875018102950175088101050719CD
:1002E0000029FF150026FF00950675088100050806
:1002F0001901290595057501910295017503910173
:10030000C00011241FBECFEFD0E2DEBFCDBF11E091
:10031000A0E0B1E0EAE6F4E400E00BBF02C0079021
:100320000D92A239B107D9F722E0A2E9B1E001C0EC
:100330001D92A13CB207E1F70E94F21B0C94BE2172
:100340000C9400003B9A3C9A3D9A399A0C94C10156
:100350000C94C2010C94C30183FF0BC0439882FF2D
:100360000AC0449880FF09C0459881FF08C04198A1
:100370000895439AF4CF449AF5CF459AF6CF419A1F
:1003800008950895089581E0089581E008950895FD
:100390000C94C7011F93CF93DF9300D000D00F922E
:1003A000CDB7DEB749835A836B833091CD01898104
:1003B0009A8131111DC06623B9F02223A9F00E9451
:1003C0000012182F682F89819A810E94A9116981D2
:1003D0007A81812F0F900F900F900F900F90DF91E7
:1003E000CF911F910C9479020E94D711182FEFCF53
:1003F0000E94001269817A81EDCFFC01262F408195
:1004000051816281738184810C94CA01CF93DF93FF
:10041000D82FC92F60E00E94FD016D2F7C2FDF9146
:10042000CF910C94C8010E944F13811102C00E9409
:10043000EC130C94A2010C94A80181E008950C9493
:100440001D02CF93C82F0E94AC018C2FCF910C942A
:100450001F0208950E945B0C0E9429022FEF84E383
:100460009CE0215080409040E1F700C000000C94D7
:1004700076150F931F93CF93DF93EC0161E00E94F9
:10048000FD018C01BE010E94AA01882329F1BE0151
:10049000C8010E9415068823F9F0BE01C8010E9418
:1004A00059068823C9F0BE01C8010E942C07882381
:1004B00099F08A81882339F001158CE5180751F0ED
:1004C0000E3D1C4579F0CE01DF91CF911F910F9128
:1004D0000C94C5010E942A0280E0DF91CF911F9108
:1004E0000F9108950E94EC13F7CF90E080E00895FB
:1004F0000895972F70E027E0929F600D711D1124E1
:10050000FB0199E6899FE00DF11D1124EE0FFF1FFD
:10051000E856FF4F859194910895FC01EE0FFF1F5F
:10052000E659FE4F859194910895CF93DF930E94F1
:1005300079020E94A703EC01811520E5920708F0DB
:100540004BC0811530E4930708F0B2C0803E91059E
:1005500018F5803C910508F09FC0883A910570F429
:10056000853A910508F095C08130910529F10497ED
:10057000813A910508F1D0E0C0E01EC08F3B9105A3
:10058000D1F3C85AD0E0CC0FDD1FCB5EDE4F09900F
:10059000D881C02DD46410C0811540E2940780F446
:1005A0008F3F910509F040F4883E910528F0805F67
:1005B0009109D0654097F8F6CE01DF91CF9108956B
:1005C000C11580E3D80708F46DC0CE019927D3FD8B
:1005D0006CC0EC01D06CF0CFC11595E5D90760F582
:1005E000C11524E5D20708F094C0C11533E5D3073F
:1005F00078F4C11542E5D40708F07AC0C11581E549
:10060000D80708F458C0DC2FCC27C16FD06AD4CFEC
:10061000CE018370992721E030E002C0220F331F02
:100620008A95E2F7C695C69590E2C99FE00111242C
:10063000C22BD32BDA68C0CFC1152AE5D207B0F49C
:10064000C11539E5D30708F074C0C11546E5D407D4
:1006500008F464C0CE0198558F3F910511F008F061
:100660008ACFDC2FCC27C06FD06AA6CFCE019056A0
:100670008115904208F07FCF8D2F8F710E943F042B
:1006800090E0982F882788279F719C012C2BE901E7
:100690004EC0A497D06490CF805C91090E948D02D7
:1006A000EC018ACFCE019F70F9CFEC01D86C84CFDA
:1006B000DF70D06A81CFCE0174E0969587957A95E8
:1006C000E1F783702C2F26952695237040E2249F16
:1006D00090011124382B8C2F8370C1E0D0E002C030
:1006E000CC0FDD1F8A95E2F7C22BD32BDC6864CFD9
:1006F000CE018370992721E030E002C0220F331F22
:100700008A95E2F7C695C69580E2C89FE00111245C
:10071000EBCFDC2FCC27C46FD06A4ECF8C2F0E943A
:100720003F04C82FD0E0DC2FCC27CC27DF71D0626C
:1007300043CF8C2F8F700E943F0434E0D695C7952D
:100740003A95E1F7CF70DC2FC82FD06935CF803EC6
:10075000910599F1C8F48133910509F476C048F404
:100760008932910509F46AC08A32910509F474C08E
:10077000089589339105D1F082389105B9F0853318
:10078000910509F454C00895843E910599F138F417
:10079000823E9105F9F0833E910509F10895863E68
:1007A000910599F1873E9105B9F1089520917F0255
:1007B0002370A1F080EE90E0089520917F0220FD4B
:1007C00052C03091800230FF09C024FF4FC090E03A
:1007D00080E004C020917F0222FDF7CF0895209190
:1007E0007F0222FD46C03091800230FDE3CF24FF1E
:1007F000F5CFEDCF2091800221FFF0CF80917F02D5
:1008000084FDE5CF87EE90E0089520917F0223FFDD
:10081000E5CF24FDDCCFF6CF20917F0223FD2CC055
:100820003091800231FFE3CF84EE90E00895209173
:100830007F0225FFD3CF89E290E0089520917F02C7
:1008400025FFCCCF85E390E0089520917F0226FF1D
:10085000C5CF8AE290E0089520917F0226FFBECFA7
:1008600081E390E0089589E390E0089583EE90E0BD
:10087000089582EE90E0089586EE90E008959091BC
:100880007F0292FF06C0282F28712830F9F4877F55
:10089000846093FF06C0282F28712831F1F4877EE9
:1008A00084612091800220FF06C0382F38713830D3
:1008B000D9F4877F816021FF06C0282F2871283155
:1008C000D1F4877E816194FD877E0895282F24715D
:1008D0002430F9F68B7F8860DCCF282F24712431F7
:1008E00001F78B7E8861DDCF382F3171313019F7F8
:1008F0008E7F8860E0CF282F2171213121F78E7EF5
:100900008861E1CFE82FF0E0EE56FE4F8081089538
:10091000089580EA8A95F1F70895CF93DF93CAE4AA
:10092000D1E029E531E041E050E08991E82FE295FE
:10093000EF70A1E2AE0FB0E0FC918F70BA0101C080
:10094000660F8A95EAF7962F90959F239C93EE5D0C
:10095000F0E08081862B80832C173D0731F7C3E4BC
:10096000D1E02AE431E041E050E08991E82FE295BE
:10097000EF70A1E2AE0FB0E0FC918F70BA0101C040
:10098000660F8A95EAF7962F90959F239C93EE5DCC
:10099000F0E08081862B80832C173D0731F78FE0B4
:1009A000E1EAF1E0DF01982F1D929A95E9F7E2E97B
:1009B000F1E0DF011D928A95E9F78FE00E94710551
:1009C000DF91CF910C9413026F927F928F929F923E
:1009D000AF92BF92CF92DF92EF92FF920F931F934D
:1009E000CF93DF938AE4882E81E0982E91EAE92E56
:1009F00091E0F92E712CAA24A394B12CF4018191D9
:100A00004F01C82FC295CF7001E20C0F10E0F80122
:100A100090818F70650101C0CC0C8A95EAF7892F0F
:100A20008C298083CE5DD0E088816C2C60948621F7
:100A300088830E948904A3E4B1E030E020E040E034
:100A40005D91E52FE295EF70E05EF0E0808190E04F
:100A50005F7002C0959587955A95E2F780FD3DC07D
:100A60008A2D022E01C0880F0A94EAF7482B2F5FC7
:100A70003F4F2730310521F7F801808168226082DD
:100A80008881C82AC882F7018081481741F14083D4
:100A900081E0782AFFEFEF1AFF0A89E5881681E0E6
:100AA000980609F0ABCF272D4FE062E971E081EAAB
:100AB00091E00E9472050E941B02872DDF91CF9169
:100AC0001F910F91FF90EF90DF90CF90BF90AF906C
:100AD0009F908F907F906F90089580E0C7CF80E0C7
:100AE000D8CF0895FF920F931F93CF93DF93F82EE3
:100AF000092F162FD72FC42F222349F081E080938E
:100B0000B2010E9437159093B1018093B00180919A
:100B1000B2018823A1F08091B0019091B1010E94AF
:100B20004315069760F0EF2DF02FA12FBD2FCF01B9
:100B30008C0F911DE817F90741F41092B201DF9173
:100B4000CF911F910F91FF90089521912D93F2CF96
:100B50000F931F93CF93DF93C62FD42F022FFC0147
:100B600082818823C9F06093B5010E943715909364
:100B7000B4018093B30180E28C0F883008F050C03C
:100B8000C77081E001C0880FCA95EAF7DF91CF9165
:100B90001F910F910C949C091091B501161335C04B
:100BA0008091B3019091B4010E944315883C910556
:100BB00060F5C0E2CD0F1D17B9F080E2810F8830DB
:100BC00040F4177081E001C0880F1A95EAF70E947F
:100BD000A309C83048F481E09D2F977001C0880FA9
:100BE0009A95EAF70E949C09802F0E948909C830D3
:100BF000B8F4D77081E001C0880FDA95EAF7DF9189
:100C0000CF911F910F910C94A30980E28C0F883033
:100C100038F4C77081E001C0880FCA95EAF7EFCFBA
:100C2000DF91CF911F910F9108959C01CB01233F3C
:100C30004CE5340769F190F4283DFCE53F0721F1CC
:100C4000293D4CE5340781F1273D3C45B1F0FC01DD
:100C50008281882361F11092B5010895253FFCE55A
:100C60003F07D1F0263F4CE53407D1F0243F3C4507
:100C700071F727E245EE64EE03C026E241EE61EE35
:100C80000E94A80580E0089527E245EE65EEF8CFC2
:100C900026E241EE60EEF4CF26E241EE62EEF0CFC6
:100CA00027E245EE66EEECCF28E241E0EFCF81E0AF
:100CB0000895CF93DF93EC01FB018281882309F42F
:100CC000C9C0C631FCE5DF07E0F4C2309CE5D907B6
:100CD000F0F00E9462139093800280937F02C631ED
:100CE000ECE5DE0720F5C230FCE5DF0798F48091E3
:100CF0007F02909180020E9470130E945B0C80E042
:100D000006C09E012A5F3C452930310510F3DF9172
:100D1000CF910895FE01E350FC4580917F028160F0
:100D2000E331F10588F4E054FE4D0C945F21CA5F75
:100D3000DC45C930D105D8F6CD52DE4DFE010C940C
:100D40005F2180917F02826080937F02D0CF80916B
:100D50007F028460F9CF80917F028860F5CF809117
:100D60008002816080938002C2CF80918002826085
:100D7000F9CF80917F028061E7CF80917F0280620E
:100D8000E3CF80917F028064DFCF0E945B0C809173
:100D90007F028068D9CF80917F028C60D5CF80910F
:100DA00080028360DFCF80917F028E7FCDCF8091E4
:100DB0007F028D7FC9CF80917F028B7FC5CF8091CD
:100DC0007F02877FC1CF809180028E7FCBCF8091C1
:100DD00080028D7FC7CF80917F028F7EB5CF8091BB
:100DE0007F028F7DB1CF80917F028F7BADCF0E943C
:100DF0005B0C80917F028F77A7CF80917F02837FEA
:100E0000A3CF809180028C7FADCF80917F0282FB47
:100E1000992790F921E0922790FB82F990FB83F9C2
:100E200093CF80918002982F909591708E7F892B1F
:100E300090FB81F997CF0E945B0C90917F02892FE4
:100E400097FB87F9805880CF81E00E94EE134FCF47
:100E500080E0FBCF81E05BCFCF93DF93EB01863166
:100E60009C4511F50E949D129A81992399F08A7AE6
:100E700091E009F490E09093B601811109C089E2F4
:100E80000E9478120E94EC1280E0DF91CF910895C9
:100E900085E3F6CF8091B601811104C089E20E94FA
:100EA0007F12F0CF85E3FBCF81E0EFCF9093BC01C1
:100EB0008093BB010895E091BB01F091BC01309794
:100EC00021F00190F081E02D099480E00895DC018B
:100ED000E091BB01F091BC01309799F08091140131
:100EE000882351F080917F0287FF06C08C91119674
:100EF0008C93119785E08C930280F381E02DCD01D6
:100F000009940895DC01E091BB01F091BC01309798
:100F100039F082E08C930480F581E02DCD010994B5
:100F200008952091B9013091BA012817390771F05D
:100F30009093BA018093B901E091BB01F091BC019B
:100F4000309721F00680F781E02D099408952091D3
:100F5000B7013091B8012817390771F09093B801A3
:100F60008093B701E091BB01F091BC01309721F073
:100F70000084F185E02D0994089585B7806885BFC8
:100F800085B7806885BF0895089508950C94C407B7
:100F900008950C94C8070E94BD070E94C5070C94D1
:100FA000C60781E008950C94D1070E942E150E9477
:100FB0008D040E94A8150C94C907BF92CF92DF92AE
:100FC000EF92FF920F931F93CF93DF9300D000D047
:100FD0000F92CDB7DEB70E94E4040E94D3078823A6
:100FE00009F45DC08EEBC82E81E0D82E10E000E041
:100FF000B02E802F0E948204F82EF601E1906F013E
:10100000E81609F446C08091790281FD0E948804A7
:101010009E2D9F2580E0EE24E394292F2E21A9F117
:101020008983BA82FE2081E009F480E08B830E94EC
:1010300037158160782F9D838C8349815A816B811C
:101040008D810E946F08F801E254FE4F8081E826EE
:10105000E0820E9447170E945B079091BD018917AB
:1010600079F10E945B078093BD010F900F900F9064
:101070000F900F90DF91CF911F910F91FF90EF9004
:10108000DF90CF90BF900C9421028F5FEE0C8730E1
:1010900021F60F5F1F4F0F30110509F0A9CF8FEF19
:1010A00089838A831B820E9437158160782F9D83F4
:1010B0008C8349815A816B818D810E946F08C9CFD1
:1010C0000F900F900F900F900F90DF91CF911F9185
:1010D0000F91FF90EF90DF90CF90BF900895CF9346
:1010E000DF93CDB7DEB72B970FB6F894DEBF0FBEF8
:1010F000CDBF4F83588769877A878B871E8285E0AB
:10110000FE013796DE01119601900D928A95E1F766
:1011100049815A816B817C818D819E812B960FB68E
:10112000F894DEBF0FBECDBFDF91CF910C94BD0E02
:10113000FC01808191810C944212CF93C82F8823A7
:1011400009F48FC08238C1F40E945B0781FD89C019
:1011500089E30E9478120E94EC122FEF31EE84E0B6
:10116000215030408040E1F700C0000089E30E9438
:101170007F12CF910C94EC128338A1F40E945B078C
:1011800080FD6FC083E50E9478120E94EC129FEFF1
:1011900021EE34E0915020403040E1F700C00000E3
:1011A00083E5E5CF8438A1F40E945B0782FD59C036
:1011B00087E40E9478120E94EC128FEF91EE24E0F7
:1011C000815090402040E1F700C0000087E4CFCF7D
:1011D0008CEF8C0F813AB8F48C2F0E94D2198111B8
:1011E00040C06C2F80910001909101010E94071472
:1011F000882329F08C2F0E947F120E94EC128C2FE2
:101200000E947812B6CF80E28C0F883048F4C77005
:1012100081E001C0880FCA95EAF70E94A012A9CF09
:101220008BE58C0F833038F42C2F2452330BC901FB
:10123000CF910C949107E8E5EC0FE73150F4F0E022
:10124000EE0FFF1FE75AFE4F80819181CF910C94E2
:10125000A707C03F30F08C2F0E945516CF910C94F9
:101260003C17CF910895882309F452C0823871F455
:101270000E945B0781FF4CC089E30E9478120E94A4
:10128000EC1289E30E947F120C94EC12833859F41B
:101290000E945B0780FF3CC083E50E9478120E9499
:1012A000EC1283E5EFCF843859F40E945B0782FF8C
:1012B0002FC087E40E9478120E94EC1287E4E2CFEC
:1012C0009CEF980F913AF0F290E2980F983050F41A
:1012D000877091E001C0990F8A95EAF7892F0E94E3
:1012E000A612D2CF9BE5980F933020F490E080E0D7
:1012F0000C94910798E5980F973120F490E080E0E6
:101300000C94A707803F20F00E94BD160C943C1758
:101310000895CF93C82F0E949D08C93349F42FEF39
:1013200087EE93E0215080409040E1F700C000003C
:101330008C2FCF910C943309882321F00E94A012A6
:101340000C94EC120895882321F00E94A6120C94AC
:10135000EC120895AF92BF92CF92DF92EF92FF927C
:101360000F931F93CF93DF9300D000D00F92CDB790
:10137000DEB76C016D837983FC01058102950F70E6
:10138000128111110E94BF120E949612E82E88232A
:1013900091F01123D1F08981807F803421F08D81FB
:1013A000805E883090F082E00E9437130E9496128F
:1013B00091E0E82EE926A980A2949FE0A922B12C11
:1013C000F501E452FE4D0C945F21E12CF4CF09812C
:1013D0000F70F981F07F11F00295007F1123B1F0B9
:1013E000002361F08D81805E883018F02D812111FD
:1013F00009C0802F0E94A0120E94EC128D810E94D1
:101400009D0815C0802F0E94B112F6CF8D810E94D9
:101410003309002361F08D81805E883018F04D81A2
:10142000411133C0802F0E94A6120E94EC1248E0A6
:10143000A41AB10854E0A516B10420F40E945B0779
:101440000E942102EE2009F4D1C10E94921280FD77
:10145000CDC1F60112820E948C120E949910C60121
:101460000E941D0C0E948C120F900F900F900F90F5
:101470000F90DF91CF911F910F91FF90EF90DF9030
:10148000CF90BF90AF900C94CA10802F0E94B712DB
:10149000CCCF59815F70F52E6981607F603219F081
:1014A000F29480EFF8227D81772339F0713019F1C1
:1014B000112361F1002321F1A1CF112381F001114A
:1014C00006C00E94D3128F290E949C09B0CF013020
:1014D000C1F70E94D3128F290E94D912A8CF0111FF
:1014E00006C00E94E2128F2D0E94A309A0CF0130F6
:1014F00009F49DCFF6CF112329F0063008F097CFDD
:101500008F2DE2CF053008F092CFEDCF002359F3B5
:101510008D81893349F49FEFE7EEF3E09150E0408D
:10152000F040E1F700C000008D810E9433097FCFB9
:10153000898186958695837069F0813009F077CF2F
:101540008D8199819370111102C090E080E00E941A
:10155000A7076DCF8D8199819370111102C090E022
:1015600080E00E94910763CF8D81112329F00E94B2
:1015700055160E943C175BCF0E94BD16FACF898199
:10158000837009F051C0111152CF4D81429546959B
:101590004770440F440F8D818F7090E0B0E0A0E061
:1015A000042E04C0880F991FAA1FBB1F0A94D2F7EC
:1015B0002D8124FF2CC00FE010E020E030E004C0BB
:1015C000000F111F221F331F4A95D2F70095109567
:1015D0002095309549814695469543704D83B901D4
:1015E000A801482B592B6A2B7B2B49835A836B8389
:1015F0007C835D8169817A818B819C81523071F01D
:10160000533079F0513039F00E940F1010CF00E0C4
:1016100010E09801DFCF0E94E70F09CF0E9437103A
:1016200006CF0E94E50F03CF112309F445C069815D
:1016300060FFFDCE4D81429546954770440F440FA3
:101640008D818F7090E0B0E0A0E0042E04C0880F80
:10165000991FAA1FBB1F0A94D2F7ED8100E010E08A
:101660009801E4FF0FC00FE010E020E030E004C07C
:10167000000F111F221F331F4A95D2F700951095B6
:1016800020953095F981F695F695F370FD83B901B3
:10169000A801482B592B6A2B7B2B49835A836B83D8
:1016A0007C83F230A1F0F330C9F0F13049F0CB0186
:1016B000BA010E945811BBCE798171FFB8CEBACF62
:1016C00069817A818B819C810E943011B0CE6981C1
:1016D0007A818B819C810E948011A9CE69817A8157
:1016E0008B819C810E946310A2CE59815F705983C7
:1016F000112329F0852F0E9499108D81E5CE8D81CF
:101700000E94A30989810E94CA1091CE6D81623F17
:1017100099F160F4603FD9F0613F39F1112309F488
:1017200044C001116BCE89818F7123C07D81733FCD
:1017300041F1743F99F7112371F189818F71898388
:101740000E94991063E089810E94221370CE1123B8
:1017500041F0053008F06BCE89818F710E94FF1037
:1017600066CE063008F063CEF7CF89818F711123E2
:1017700051F20E9499105BCE89818F711123C9F3B8
:10178000C2CF112329F089818F710E9474104FCE2E
:101790000E946F104CCE81E00E943713023008F493
:1017A00046CE82E00E94371342CE002361F09D8135
:1017B000993309F0B9CEEFEFF7EE23E0E150F040B6
:1017C0002040E1F7AFCE89818F719DCF49814F7065
:1017D0006D81C6010E9475020E94570F28CE498173
:1017E0004F706D81C6010E94780221CE0F900F903C
:1017F0000F900F900F90DF91CF911F910F91FF905D
:10180000EF90DF90CF90BF90AF9008950F931F930C
:10181000CF93DF93EC01688179818A810E944E1217
:101820008C010E94A8110E94E40FB801CE01DF9143
:10183000CF911F910F910C94AA09CF93DF93EC01E4
:101840008B819C81892B29F08981988189238F3F05
:1018500059F4DF91CF910895CE010E94060CCE017C
:10186000DF91CF910C940602CE010E9439028111C2
:10187000F3CF0E949612882361F38A81882349F36B
:1018800082E0DF91CF910C9437130E94BF120E9427
:10189000D0120E94EC120E9466180E943C1790E041
:1018A00080E00E94910790E080E00C94A7070E94DE
:1018B00086120C94450C0E94AE120C94570C282FE3
:1018C000892F82958F70903C80F48A30B0F48430F8
:1018D00020F4823090F480E008958630E1F781E0D2
:1018E000283E88F0213FB9F70EC08C3011F08F30C0
:1018F00091F793FB882780F9089581E0203F39F024
:1019000018F4283E40F70895243F29F7FCCF0895A6
:101910000E9442120C945F0CCF93DF9300D000D052
:101920000F92CDB7DEB70F900F900F900F900F90E2
:10193000DF91CF910895CF93DF9300D000D000D0F6
:10194000CDB7DEB726960FB6F894DEBF0FBECDBF7B
:10195000DF91CF9108951F93CF93DF93E091CE0154
:1019600016E08091CF018E1304C0DF91CF911F91BB
:101970000895CE2FD0E01E9FF0011124E053FE4FBA
:101980004081518162817381848195810E949B0C89
:10199000FE013196E770E5CF4091000250910102BF
:1019A00060910202709103028091040290910502FD
:1019B0000C949B0C1F93CF93DF9380910502807F43
:1019C000A9F480910202882389F08091CE01C09110
:1019D000CF017091000260910102A0910302B091C9
:1019E0000402D62FD72316E0C81304C0DF91CF918D
:1019F0001F91089590E0109711F0DF3F19F40196C0
:101A00008770F2CF189F9001199F300D1124F901B2
:101A1000E053FE4F41816413F2CF40814713EFCF73
:101A200042814111ECCF438154814A1B5B0B483CFE
:101A3000510528F7809105028F708061809305021F
:101A4000F901EB52FE4F80818F708061808380E0CE
:101A500092E00E941D0CDF91CF911F910C94AB0C72
:101A6000AF92BF92CF92DF92EF92FF920F931F93AC
:101A7000CF93DF93CDB7DEB72B970FB6F894DEBFC9
:101A80000FBECDBF8C0185E0F801DE0117960190F5
:101A90000D928A95E1F7F80140815181E28080E062
:101AA000A82E82E0B82E60910302709104026115A5
:101AB000710549F09091000220910102892F822343
:101AC0008F3F09F045C1EE2009F453C14F83588779
:101AD0008F8198850E94880CF82E882309F449C1CB
:101AE00086E0F801A0E0B2E001900D928A95E1F75E
:101AF00080E092E00E9498080E94DA0C26C1809152
:101B00000502382F307F683C710508F07CC0311128
:101B1000B5C0FE2C251324C0941322C0E11020C0B0
:101B20008F708061809305020E94CC0C80E092E06F
:101B30000E941D0C80910502F80185838F2D2B9644
:101B40000FB6F894DEBF0FBECDBFDF91CF911F91CE
:101B50000F91FF90EF90DF90CF90BF90AF900895DE
:101B6000CD2829F0842F85238F3F09F084C080E0A1
:101B7000F82FF170DF2EE091CE012091CF0136E0F9
:101B800080FD1CC0EE20D1F280910502816080931F
:101B90000502F12CD3CF8E2F90E03E9FF00111244F
:101BA000E053FE4F6181651306C06081641303C07A
:101BB00062816E11E7CFFC013196E770E213EBCF43
:101BC0004F8358878F8198850E944212292F229532
:101BD0002F70903260F0225F2F70223078F49F7067
:101BE00051F0F8019581907F31F4D12C0AC09F709B
:101BF00011F08823D1F3805E8830B8F3C8010E94C9
:101C00001D0CFD2C9BCF31116EC06E2D7A858B85FE
:101C10000E948C0C80E092E00E941D0C86E0F50191
:101C200011928A95E9F70E94CC0CB3CF86E0F801B7
:101C3000A0E0B2E001900D928A95E1F77FCF4F834B
:101C400058878F8198850E94880C81113DC08091B2
:101C50000502816080930502C8010E941D0C6ECFB1
:101C60006E2D7A858B850E948C0C86E0F501119291
:101C70008A95E9F76AC081E08E257ACF251306C0E0
:101C8000941304C0F801EE2009F453C04F83588721
:101C90008F8198850E94880C882309F46AC0EE2001
:101CA00009F467C080910502803270F02091000233
:101CB000309101023A8329831B82DD82CC828E839C
:101CC000CE0101960E941D0C86E0F801A0E0B2E072
:101CD00001900D928A95E1F70E94DA0C0E94CC0CDB
:101CE000FF24F3942BCF2513D1CF9413CFCFE11042
:101CF000CDCFF8018583C8010E941D0C86E0F50157
:101D000011928A95E9F71ACF251399CF941397CF9B
:101D10008091050280FD8ACF982F907F09F486CFAD
:101D2000F8018583903F31F0982F907F905F8F70FE
:101D3000892B8583C8010E941D0C86E0F801A0E074
:101D4000B2E001900D928A95E1F70E94CC0CF6CE9C
:101D5000C380D480F0900202F601E61BF70BBF01AE
:101D6000F110CDCE683C710508F07ACFFE2CE11061
:101D7000CBCFC8010E941D0CB3CF1F93CF93DF932D
:101D8000CDB7DEB72C970FB6F894DEBF0FBECDBF30
:101D90004F83588769877A878B879C87CE01079600
:101DA0000E94300D882369F08A859B85892B39F044
:101DB00058854F81852F84238F3F09F071C016E02D
:101DC0005FC086E0FE013796DE01119601900D920C
:101DD0008A95E1F78A859B85892B89F38F81988580
:101DE00089238F3F61F32091CF0130E0C901019633
:101DF000877099274091CE014817190671F40E9407
:101E00005B0C1092CF011092CE0186E0E0E0F2E090
:101E1000DF011D928A95E9F7D2CF96E0929FD0011B
:101E2000939FB00D1124A053BE4FFE013196019037
:101E30000D929A95E1F78093CF010E94AB0CBFCF32
:101E4000819FC001112480539E4F0E94300D882332
:101E5000E9F0E091CE011E9FF0011124E053FE4F06
:101E60004081518162817381848195810E949B0CA4
:101E70008091CE0190E00196877099278093CE01E2
:101E80008091CE019091CF018913DACF2C960FB6B5
:101E9000F894DEBF0FBECDBFDF91CF911F910895A3
:101EA00069857A858B859C850E949B0C88CFEF92F3
:101EB000FF920F931F93CF93DF938C01892B89F0AF
:101EC000F12CEE24E394E8012196F8018491843703
:101ED00009F458C0A0F4823009F43FC048F48130BE
:101EE000D1F0DF91CF911F910F91FF90EF90089566
:101EF0009CEF980F9037A8F70E949D080AC085377D
:101F000009F44EC09CE7980F903758F78F770E94DE
:101F100033098E0116C00E5F1F4FFE01849190E2BF
:101F2000980F983060F48770FE2D01C0FF0F8A95DE
:101F3000EAF78F2F0E94C2120E94EC1202C00E9488
:101F40009D088F2D882309F4BECFEFE9FFE031977C
:101F5000F1F700C000008150F5CF0E5F1F4FFE016A
:101F6000849190E2980F983050F48770FE2D01C054
:101F7000FF0F8A95EAF78F2F0E94C812DDCF0E94CB
:101F80003309DFCF0E5F1F4FFE01C491CC23C9F28E
:101F90008FE99FE00197F1F700C00000C150F6CF34
:101FA0000E5F1F4FFE01F490CCCF08950C94D50F17
:101FB0000E94D60F60935002709351028093520298
:101FC000909353020C94450C08950C94D80FCF9322
:101FD000DF9300D000D0CDB7DEB769837A838B83DF
:101FE0009C838091500290915102A0915202B09135
:101FF000530229813A814B815C81282B392B4A2B52
:102000005B2B29833A834B835C83CA01B9010F9010
:102010000F900F900F90DF91CF910C94D80FCF932A
:10202000DF9300D000D0CDB7DEB769837A838B838E
:102030009C838091500290915102A0915202B091E4
:10204000530229813A814B815C81282339234A2319
:102050005B2329833A834B835C83CA01B9010F90C8
:102060000F900F900F90DF91CF910C94D80FCF93DA
:10207000DF9300D000D0CDB7DEB769837A838B833E
:102080009C838091500290915102A0915202B09194
:10209000530229813A814B815C81282739274A27BD
:1020A0005B2729833A834B835C83CA01B9010F9074
:1020B0000F900F900F90DF91CF910C94D80F0C944C
:1020C000D50F0C945F100E94611060934C027093C6
:1020D0004D0280934E0290934F020C94450C60E0A9
:1020E00070E0CB010C9463100F931F93CF93DF9399
:1020F00000D000D0CDB7DEB741E050E060E070E046
:102100008A019B0104C0000F111F221F331F8A95F3
:10211000D2F709831A832B833C83C901B8010F903E
:102120000F900F900F90DF91CF911F910F910C9412
:1021300063100F931F93CF93DF9300D000D0CDB7E0
:10214000DEB741E050E060E070E004C0440F551F8E
:10215000661F771F8A95D2F780914C0290914D02AD
:10216000A0914E02B0914F028A019B01082B192BBE
:102170002A2B3B2B09831A832B833C83C901B8018B
:102180000F900F900F900F90DF91CF911F910F91B3
:102190000C9463100F931F93CF93DF9300D000D064
:1021A000CDB7DEB741E050E060E070E004C0440F1E
:1021B000551F661F771F8A95D2F7409550956095F9
:1021C000709580914C0290914D02A0914E02B09179
:1021D0004F028A019B01082319232A233B230983E9
:1021E0001A832B833C83C901B8010F900F900F9085
:1021F0000F90DF91CF911F910F910C9463100F936B
:102200001F93CF93DF9300D000D0CDB7DEB741E06E
:1022100050E060E070E004C0440F551F661F771F58
:102220008A95D2F780914C0290914D02A0914E0276
:10223000B0914F028A019B01082719272A273B27C3
:1022400009831A832B833C83C901B8010F900F9037
:102250000F900F90DF91CF911F910F910C9463100D
:10226000CF93DF9300D000D0CDB7DEB769837A83F8
:102270008B839C8380914C0290914D02A0914E02E1
:10228000B0914F0229813A814B815C81282B392BF7
:102290004A2B5B2B29833A834B835C83CA01B901A8
:1022A0000F900F900F900F90DF91CF910C946310CF
:1022B000CF93DF9300D000D0CDB7DEB769837A83A8
:1022C0008B839C8380914C0290914D02A0914E0291
:1022D000B0914F0229813A814B815C8128233923B7
:1022E0004A235B2329833A834B835C83CA01B90168
:1022F0000F900F900F900F90DF91CF910C9463107F
:10230000CF93DF9300D000D0CDB7DEB769837A8357
:102310008B839C8380914C0290914D02A0914E0240
:10232000B0914F0229813A814B815C81282739275E
:102330004A275B2729833A834B835C83CA01B9010F
:102340000F900F900F900F90DF91CF910C9463102E
:102350000895E82F27E0929FE00D11248E2F8770BB
:1023600041E001C0440F8A95EAF7E695E695E695C7
:1023700085E0E89FF0011124EA5FFD4F30E020E0A6
:1023800070E05191DF011197CB01022E02C09695AA
:1023900087950A94E2F781708195852784238527A4
:1023A0008C932F5F3F4F2530310559F70895E82F63
:1023B00027E0929FE00D11249E2F9770E695E695F9
:1023C000E69585E0E89FF0011124EA5FFD4F50E0BB
:1023D00040E080E0219130E0092E02C0369527953B
:1023E0000A94E2F721703327042E01C0220F0A94C9
:1023F000EAF7822B4F5F5F4F4530510559F708953B
:10240000BF92CF92DF92EF92FF920F931F93CF93E1
:10241000DF938C01C0904C02D0904D02E0904E02B0
:10242000F0904F028091500290915102A09152027F
:10243000B0915302C82AD92AEA2AFB2ACFE1D0E078
:10244000BC2ED701C6010C2E04C0B695A795979552
:1024500087950A94D2F780FD0EC0219788F7B12C9A
:102460008B2DDF91CF911F910F91FF90EF90DF9017
:10247000CF90BF900895B8018C2F0E9495020197CC
:1024800061F3EECFCF93DF93D82FC92F0E940012B4
:102490006D2F7C2FDF91CF910C9495021F93CF93DA
:1024A000DF93162FD72F9091CD01992339F0862FE6
:1024B000972FDF91CF911F910C944212882391F0B6
:1024C000862F972F0E940012C82F682F812F9D2FD3
:1024D0000E94A911612F7D2F8C2FDF91CF911F9129
:1024E0000C949502862F972F0E94D711C82FF2CFF8
:1024F000682F80910001909101010C948B14682F3A
:1025000080910001909101010C949614809100013A
:10251000909101010C94A1148091540285958595A8
:102520008595089580915402877008959091540282
:10253000977081E009F480E0089580917802089511
:1025400090917802982B909378020895982F909507
:1025500080917802892380937802089510927802FE
:10256000089590917702982B909377020895982F71
:102570009095809177028923809377020895109235
:102580007702089590917602982B909376020895A1
:10259000982F9095809176028923809376020895F2
:1025A00010927602089580915502089508950C9432
:1025B000D61290915502981721F0809355020C94F1
:1025C000D712089580915502882329F01092550260
:1025D00080E00C94D7120895E0910001F091010180
:1025E000809178028083E0910001F0910101808167
:1025F00090917702892B8083E0910001F091010195
:10260000808190917602892B808390915502992345
:1026100081F0E0910001F09101018081892B80839C
:1026200080910001909101010E94F31381110E9499
:10263000E21280910001909101010C9467070895C6
:102640000C941F1398E0899F90011124622B6093D2
:1026500054020E9499108091540285958595859524
:102660000C9420131092540280E00C94201390914B
:1026700054028095892380935402282F277071F487
:10268000282F082E000C330B9217130639F085956E
:10269000859585950E94CA100C943213089590E098
:1026A00080E00E9484219C0181E02C3E3E4F09F095
:1026B00080E0089582E090E00C947C2183E090E03B
:1026C0000C947C21CF9384E090E00E947C21C82F61
:1026D00081E290E00E947C21982F8C2FCF91089569
:1026E000CF93682FC92F84E090E00E948A216C2F3D
:1026F00081E290E0CF910C948A21AB01BC018FE084
:1027000090E00C949C21AB01BC0183E190E00C941F
:102710009C2160E070E0CB010C94831360E070E0DA
:10272000CB010E947D130C9489136CEE7EEF90E038
:1027300080E00E94A82160E082E090E00E948A216F
:1027400060E083E090E00E948A2110925002109293
:102750005102109252021092530260E084E090E025
:102760000E948A2160E081E290E00E948A2160E07C
:1027700085E090E00E948A2160E086E090E00E947F
:102780008A216FEF87E090E00E948A2140E050E0CC
:10279000BA0188E090E00E949C2160E08DE090E02A
:1027A0000E948A2140E050E0BA0188E190E00E9456
:1027B0009C2160E087E190E00E948A2140E050E0A7
:1027C000BA018CE190E00E949C2160E080E290E000
:1027D0000E948A210C948E130C949513682F8EE01E
:1027E00090E00C948A21FC01329680911401882398
:1027F00021F080917F029EE187FF96E080E091507A
:1028000008F4089521912223D1F38F5FF8CF9C0122
:10281000662301F1809114018823F1F080917F02F9
:1028200087FF1AC0462F469546954695603F90F41F
:10283000677081E090E002C0880F991F6A95E2F707
:10284000240F311DF901228130E02823392381E052
:10285000232B71F480E00895F9013296285F3F4FF1
:102860008191861721F0E217F307D1F7F3CF81E0CA
:1028700008959C01FC0132968FEF90E0419146173C
:1028800051F08F3F19F4411101C0892F9F5F96309D
:10289000A9F78F3F09F40895280F311D87FD3A9558
:1028A000F901628308959C01FC013296285F3F4F35
:1028B0008191861303C0DF0111971C92E217F30781
:1028C000B9F70895FC01862F869586958695603F19
:1028D00060F4E80FF11D677021E030E001C0220FC5
:1028E0006A95EAF78281822B82830895FC01862F04
:1028F000869586958695603F68F4E80FF11D6770B0
:1029000081E090E001C0880F6A95EAF78095928196
:1029100089238283089520911401222329F0209194
:102920007F0227FD0C9462140C9439142091140139
:10293000222329F020917F0227FD0C9476140C9419
:102940005314FC01329680911401882351F0809138
:102950007F0287FF06C08EE1DF011D928A95E9F7AD
:10296000089586E0F9CF089508950C94B4140E9458
:10297000B5148091B702843049F110927A0288E14F
:1029800090E020E40FB6F894A895809360000FBE05
:102990002093600080E00E9421020E94B51483B75A
:1029A000817F846083BF83B7816083BF789488957B
:1029B00083B78E7F83BF0FB6F894A895809160008F
:1029C000886180936000109260000FBE08950895A2
:1029D000CF930E94B3140E94E4040E94E714C0E065
:1029E0008C2F0E948204811105C0CF5FCF30C1F7C8
:1029F000CF91089581E0FCCF08950C94FC140E94BF
:102A00005B0C0E945B070E9421020C94FD141F9234
:102A10001FB61F9211248F939F93AF93BF93809102
:102A20007A02811113C080917B0290917C02A09167
:102A30007D02B0917E024196A11DB11D80937B0263
:102A400090937C02A0937D02B0937E02BF91AF91E0
:102A50009F918F911F901FBE1F90189582E084BD9B
:102A600093E095BD9AEF97BD80936E0008952FB7C0
:102A7000F89480917B0290917C02A0917D02B091AC
:102A80007E022FBF08959C014FB7F89480917B027E
:102A900090917C02A0917D02B0917E024FBF821B7B
:102AA000930B089578941F921FB61F9211248F9351
:102AB0009F93AF93BF9380917B0290917C02A091F2
:102AC0007D02B0917E020196A11DB11D80937B0213
:102AD00090937C02A0937D02B0937E02BF91AF9150
:102AE0009F918F911F901FBE1F901895F89481E0C1
:102AF0008093E00080E28093D800E9ECF0E010825F
:102B00008FE19EE40197F1F700C000001DBA10921A
:102B100068001CBC10BE1FBA10927A0010926E00A2
:102B200010926F001092700010927100108210923B
:102B3000BC0011B814B817B81AB81DB810BA12B83A
:102B400015B818B81BB81EB811BA0C9400FE089539
:102B5000CF93DF9300D000D0CDB7DEB70E944F13E4
:102B6000811102C00E94EC130E945A1380937902D3
:102B70000E9462139093800280937F020E945E13F2
:102B8000282F30E050E040E029833A834B835C8378
:102B9000CA01B9010F900F900F900F90DF91CF9164
:102BA0000C94E50F8091880280FF12C060910701AC
:102BB00085E0689FB00111247595679575956795B7
:102BC00060387105A8F561157105A1F1862F08958A
:102BD00081FF09C06091070185E0689FB001112461
:102BE00075956795EDCF6091070182FD0AC08091D0
:102BF00087028823D1F0909106016091070189171F
:102C000028F085E0689FB0011124DACF869FB001DB
:102C1000112485E0869F9001879F300D1124692F34
:102C200070E0C9010E944B21CBCF65E070E0CECFB0
:102C30008FE7089581E008958091880280FF0CC09D
:102C40006091030170E075956795759567956115BD
:102C5000710549F1862F089581FF06C06091030137
:102C600070E075956795F3CF6091030182FD0BC00D
:102C7000909187029923A1F0609102018091030154
:102C8000961738F0682F70E06038710500F38FE711
:102C90000895899FC001112470E00E944B21F4CF58
:102CA00061E070E0D7CF81E00895803F31F40E9469
:102CB000D215819580938C020895813F19F40E946A
:102CC000D215F8CF823F31F40E94D21581958093BE
:102CD0008B020895833F19F40E94D215F8CF893FE3
:102CE00029F40E941C1680938D0208958A3F21F4D6
:102CF0000E941C168195F7CF8B3F31F40E941C1661
:102D0000819580938E0208958C3F19F40E941C16C1
:102D1000F8CF843F31F480918A02816080938A02E7
:102D20000895853F21F480918A028260F7CF863F23
:102D300021F480918A028460F1CF873F21F4809151
:102D40008A028860EBCF883F21F480918A028061FB
:102D5000E5CF8D3F31F480918802816080938802B5
:102D600008958E3F21F4809188028260F7CF8F3FD3
:102D7000B9F7809188028460F1CF90918B02803FF7
:102D800041F480918C0287FD10928C02992371F09E
:102D90000895813F29F480918C021816ACF3F6CF88
:102DA000823F81F497FFF2CF10928B0280918C02C8
:102DB00090918D02892B90918E02892B49F7109268
:102DC00087020895833F19F4191674F3DFCF893F02
:102DD00039F480918D021816CCF610928D02D6CF60
:102DE0008A3F29F480918D0287FFD0CFF6CF8B3FA9
:102DF00039F480918E0287FFC9CF10928E02C6CF20
:102E00008C3F29F480918E021816BCF3BFCF843F0B
:102E100031F480918A028E7F80938A02B7CF853FFA
:102E200021F480918A028D7FF7CF863F21F4809133
:102E30008A028B7FF1CF873F21F480918A02877FBE
:102E4000EBCF883F21F480918A028F7EE5CF8D3FC2
:102E500031F4809188028E7F8093880297CF8E3FD5
:102E600021F4809188028D7FF7CF8F3F09F08ECFBC
:102E7000809188028B7FF0CF89E892E00E948207E0
:102E80000E943715909386028093850208950F93D0
:102E90001F93CF93DF9300D000D000D0CDB7DEB723
:102EA00086E0E9E8F2E09E012F5F3F4FD9010190F3
:102EB0000D928A95E1F780918B0290918C02892B7B
:102EC000890181F080918302909184020E944315D0
:102ED0009C0180918702882341F19091080192170B
:102EE000130680F180918D0290918E02892B91F0D2
:102EF00080918102909182020E9443159C018091F1
:102F00008702882309F479C090910401921713066F
:102F100008F481C026960FB6F894DEBF0FBECDBF71
:102F2000DF91CF911F910F910895409109019AE08F
:102F3000499FA001112442175307A0F68F5F809389
:102F4000870202C08F3FD1F710928D0210928E023D
:102F500080918B02181624F40E94D21580938B0264
:102F600080918B0287FF05C00E94D21581958093C6
:102F70008B0280918C02181624F40E94D215809343
:102F80008C0280918C0287FF05C00E94D21581952A
:102F900080938C0230918B023323A1F020918C021C
:102FA000222381F045EB3403C00111249923E9F079
:102FB00090938B0245EB2403900111243323C9F035
:102FC00030938C020E943C1780918502909186027A
:102FD000909384028093830286E0F801A9E8B2E02E
:102FE00001900D928A95E1F77DCF81E080938B026D
:102FF000E1CF81E080938C02E5CF409105019AE01A
:10300000499FA00111244217530708F083CF8F5F17
:103010008093870202C08F3FD1F710928B021092EB
:103020008C0280918D02181624F40E941C16809345
:103030008D0280918D0287FF05C00E941C1681952C
:1030400080938D0280918E02181624F40E941C1623
:1030500080938E0280918E0287FF05C00E941C160D
:10306000819580938E0230918D023323A1F02091BF
:103070008E02222381F045EB3403C00111249923F1
:10308000E9F090938D0245EB240390011124332342
:10309000C9F030938E020E943C1780918502909176
:1030A0008602909382028093810286E0F801A9E86B
:1030B000B2E001900D928A95E1F72CCF81E08093E8
:1030C0008D02E1CF81E080938E02E5CF86E0E9E8D2
:1030D000F2E0DF011D928A95E9F7109287021092C3
:1030E00088020895843009F442C038F48230E9F04F
:1030F000833061F1813041F00895853009F448C092
:10310000863009F456C0089580910901482F460F72
:103110005527551F4F3F510524F4680F609309014F
:1031200008958FEF80930901089580910801482F39
:10313000460F5527551F4F3F510524F4680F6093E4
:10314000080108958FEF8093080108958091070189
:10315000482F460F5527551F4F3F510524F4680F40
:103160006093070108958FEF809307010895809180
:103170000601482F460F5527551F4F3F510524F490
:10318000680F6093060108958FEF809306010895FC
:1031900080910301482F460F5527551F4F3F51057A
:1031A00024F4680F6093030108958FEF8093030167
:1031B000089580910201482F460F5527551F4F3F14
:1031C000510524F4680F6093020108958FEF8093F6
:1031D00002010895843071F138F48230A9F083300F
:1031E000F1F0813031F00895853079F18630C1F108
:1031F000089580910901681720F4861B80930901C6
:10320000089510920901089580910801681720F42B
:10321000861B8093080108951092080108958091FB
:103220000701681720F4861B809307010895109208
:103230000701089580910601681720F4861B80938A
:103240000601089510920601089580910301681700
:1032500020F4861B809303010895109203010895C2
:1032600080910201681720F4861B80930201089563
:103270001092020108950F931F93CF93DF9300D014
:1032800000D0CDB7DEB741E050E060E070E08A01E9
:103290009B0104C0000F111F221F331F8A95D2F714
:1032A00009831A832B833C83C901B8010E94E50F6F
:1032B0000F900F900F900F90DF91CF911F910F9172
:1032C0000C945B0CEBEFE80FEF3308F05AC0F0E022
:1032D000E451FE4D0C945F210E94EC1381E00895AF
:1032E00080917902807F8093790281E080939002BF
:1032F00008950E942A02F2CF90917902892F8E7F41
:1033000090FF81608093790280FDE8CF817F809378
:103310007902E4CF90917902892F8D7F91FF8260AD
:103320008093790281FFDACF809179028160EFCFBB
:1033300090917902892F8B7F92FF8460809379022C
:1033400082FDF2CFCBCF90917902892F877F93FFB7
:1033500088608093790283FDE7CFC0CF0E945B0C29
:1033600090917F02892F97FB87F9805880937F0285
:10337000B5CF80E00E943B19B1CF8953FBCF8D516F
:10338000F9CF80E0089580E008950C94C3198E5120
:103390008A3030F4E82FF0E0E957FE4F808108953D
:1033A00080E00895CF93C82F809190028130A1F0E2
:1033B0008230A1F1811179C00E949D12823209F000
:1033C00076C08C2F0E94C31981111BC08C2F0E94C4
:1033D00062198170CF9108950E949D12823289F303
:1033E0008C2F0E94C51981110AC0C431A1F060F46C
:1033F000CB3029F0C03169F782E08093900281E000
:10340000E8CF81E090E0E5CFC93229F081E0C83310
:1034100001F380E0DECF10929002FBCFCB3469F154
:1034200098F4C43240F4CE3100F5C73061F1C431B4
:1034300021F081E0CFCFC932E1F780918F0288235C
:1034400081F010928F02F5CFC135A9F061E0C2354D
:10345000A9F06AE0CE3469F780918F020E94EA18E1
:10346000E8CF81E080939002B5CF8C2F0E94C719DE
:1034700080938F02DECF61E0EFCF6AE080918F0210
:103480000E947218D6CF86E08093090184E1809370
:10349000080184E0809307018AE08093060181E0BF
:1034A000809303018093020195CF1092900280E0F7
:1034B00091CF8091B1020895CF93DF9300D00F9206
:1034C000CDB7DEB79091B702943019F589836A833E
:1034D0007B8382E08093E9008FEF9091E800815038
:1034E00095FD06C095ED9A95F1F700008111F5CF95
:1034F0008091E80085FF0DC050E040E063E070E09F
:10350000CE0101960E94B91C8091E8008E778093CD
:10351000E8000F900F900F90DF91CF910895CF9317
:10352000DF93D82FC92F0E949C1C823011F0843069
:1035300039F46D2F7C2F84E0DF91CF910C945C1ACD
:10354000DF91CF910895BC0183E00C945C1ACF9376
:10355000DF93D82FC92F0E949C1C823011F0843039
:1035600001F582E08093E9008FEF9091E8008150AF
:1035700095FD06C095ED9A95F1F700008111F5CF04
:103580008091E80085FF0DC050E040E066E070E00B
:103590008D2F9C2F0E94B91C8091E8008E7780931C
:1035A000E800DF91CF910895CF93DF93D82FC92FF3
:1035B0000E949C1C823011F08430C9F58091140166
:1035C0008823C1F180917F0287FF34C060E282E0EE
:1035D0008093E9008FEF9091E800815095FD06C03F
:1035E00095ED9A95F1F700008111F5CF8091E800F3
:1035F00085FF1DC08091140170E050E040E0811112
:1036000004C050E040E068E070E08D2F9C2F0E94E5
:10361000B91C8091E8008E778093E80080E2ED2F5E
:10362000FC2FA1E9B2E001900D928A95E1F7DF91BC
:10363000CF91089568E081E0CBCF8091C0028111E5
:1036400009C00E94411E0E94A31E8091E200846076
:103650008093E20008951092C0020895089508959D
:103660000C94FF1442E061EC81E00E94BD1D42E237
:1036700061EC82E00C94BD1D8091B902893089F122
:1036800048F4823009F49DC0833009F458C0813079
:1036900041F008958A3009F484C08B3009F46AC07F
:1036A00008958091B802813A09F048C08091E800FD
:1036B000877F8093E8008091BC029091BD02892BA6
:1036C00061F460E281E992E070E00E94081D80915F
:1036D000E8008B778093E800089560E090E080E058
:1036E000F3CF8091B802813249F58091BC0290916C
:1036F000BD02029718F58091E800877F8093E8006B
:103700008091E80082FF16C08091F2009091F30052
:10371000029729F48091F1008B7F813021F4809110
:10372000F1008093B1028091E8008B778093E800EC
:103730000C94F11D8091B7028111E2CF0895809120
:10374000B802813AD9F78091BC029091BD02892BD1
:10375000A9F78091E800877F8093E8008091E800D6
:1037600080FFFCCF809114018093F1008091E800EC
:103770008E77DCCF8091B802813201F78091BC0254
:103780009091BD02892BD1F68091E800877F8093CC
:10379000E8000E94F11D8091BA02809314010C94FC
:1037A0005B0C8091B802813249F68091E800877FF6
:1037B0008093E8000E94F11D8091BB028093B202C9
:1037C00008958091B802813A09F0B8CF8091E8005D
:1037D000877F8093E8008091E80080FFFCCF809194
:1037E000B202C2CF84B7877F84BF0FB6F894A89582
:1037F00080916000886180936000109260000FBE2D
:1038000080E890E00FB6F894809361009093610097
:103810000FBE0E94CB070E94411E0E94A31E8091F2
:10382000E20084608093E20078940E9430210E943C
:10383000D5078AE091E00E9456078091B702853053
:1038400019F00E94DD07F9CF0E94B7148091B402ED
:10385000882399F30E94E814882379F30E94A31C1B
:10386000ECCF0C94331CFC01CB01DA012F2F332752
:1038700023303105D1F070F42130310509F445C011
:103880002230310569F48BE390E028EB31E02D9391
:103890003C9308952132310521F12232310559F14D
:1038A00090E080E030E020E0F2CFCF019927E230D5
:1038B000A9F08330910550F4009769F0EAEAF1E04D
:1038C000019771F7849190E09F01E1CFEAE6F1E082
:1038D0000397C1F3E5CFE4EBF1E0F4CFE0E7F1E0EB
:1038E000F1CF892BB9F061307105D1F689E090E014
:1038F00023EE31E0CCCF892B91F06130710581F658
:103900008CEB90E025E032E0C2CF82E190E023EF43
:1039100031E0BDCF89E090E02AEC31E0B8CF80E41F
:1039200090E021EC32E0B3CF8091B702843011F403
:1039300082E0089581E008958091B302811102C070
:103940000C94941C089584E189BD86E189BD09B475
:1039500000FEFDCF8091D8008F7D8093D8008091AC
:10396000E00082608093E0008091E00081FDFCCF68
:103970000895AF92BF92CF92DF92FF920F931F9361
:10398000CF93DF936C01EB018A010E94101EF82E89
:10399000811123C00115110539F0F8018081918151
:1039A000C81BD90BC80ED91EB12CA12C2097A9F089
:1039B0008091E80085FD22C08091E8008E77809399
:1039C000E80001151105A1F0F80180819181A80E90
:1039D000B91EB182A08285E0F82E8F2DDF91CF91A4
:1039E0001F910F91FF90DF90CF90BF90AF900895FF
:1039F0000E94101E8823D1F2F82EEFCFF60181919C
:103A00006F018093F1002197FFEFAF1ABF0ACECF6D
:103A1000FC01CB012091BE023091BF02261737076F
:103A200090F0009729F42091E8002E772093E80089
:103A300040E0009751F4411108C08091E80082FFF6
:103A400031C080E00895C901F3CF2091B70222234D
:103A5000A9F12530A9F12091E80023FD2DC0209186
:103A6000E80022FDEACF2091E80020FFE2CF20917C
:103A7000F2003091F300009719F02830310558F02A
:103A800041E02830310509F040E02091E8002E7730
:103A90002093E800CECF41914093F10001972F5F32
:103AA0003F4FE9CF8091B702882341F0853041F044
:103AB0008091E80083FFC1CF81E0089582E00895FE
:103AC00083E00895FC01CB012091BE023091BF023A
:103AD0002617370790F0009729F42091E8002E77F9
:103AE0002093E80040E0009751F4411108C0809114
:103AF000E80082FF32C080E00895C901F3CF209131
:103B0000B7022223B1F12530B1F12091E80023FD65
:103B10002EC02091E80022FDEACF2091E80020FF8E
:103B2000E2CF2091F2003091F300009719F0283095
:103B3000310558F041E02830310509F040E020918E
:103B4000E8002E772093E800CECF44914093F10017
:103B5000319601972F5F3F4FE8CF8091B7028823BE
:103B600041F0853041F08091E80083FFC0CF81E0D3
:103B7000089582E0089583E00895982F973028F003
:103B80008F708093E90081E008959093E900242FDD
:103B9000762F50E0981731F07091EC002091ED00F5
:103BA0005091F00021FD02C09F5FE8CF3091EB0003
:103BB0003E7F3093EB003091ED003D7F3093ED0080
:103BC0003091EB0031603093EB007093EC00209368
:103BD000ED005093F0002091EE0027FDE5CF80E04E
:103BE00008958091B80287FF13C08091E80082FF9A
:103BF00006C08091E8008B778093E80004C0809134
:103C0000B7028111F2CF08958091B7028823D9F3CA
:103C10008091E80080FFF8CF8091E8008E77ECCFAC
:103C20002091E4003091E50095E6A9012091EC0097
:103C3000822F817020FF06C08091E80080FF06C0BF
:103C400080E008952091E80022FD1AC08091B7021B
:103C5000882389F0853089F08091EB0085FD0FC0C5
:103C60002091E4003091E50042175307F9F291509A
:103C7000E1F684E0089582E0089583E0089581E00C
:103C800008950E94B21E0E94BA1EE0EEF0E080810C
:103C900081608083E8EDF0E080818F77808319BCBC
:103CA000A7EDB0E08C918E7F8C9380818F7E808396
:103CB0001092C00208950F931F93CF93DF930E9439
:103CC000B21E0E94BA1EC8EDD0E088818F7788832B
:103CD00088818068888388818F7D8883E7EDF0E024
:103CE00080818068808319BC1092B7021092B6025E
:103CF0001092B4021092B50200EE10E0F80180813B
:103D00008B7F808388818160888342E060E080E0EF
:103D10000E94BD1DE1EEF0E080818E7F8083E2EEA7
:103D2000F0E0808181608083808188608083F801F9
:103D300080818E7F8083888180618883DF91CF91AD
:103D40001F910F910895E8EDF0E080818F7E8083D0
:103D5000E7EDF0E080818160808381E08093C002A4
:103D60000C945B1EE8EDF0E080818C7F80831092E4
:103D7000E20008951092DA001092E10008951F9277
:103D80000F920FB60F9211240BB60F922F933F9301
:103D90004F935F936F937F938F939F93AF93BF9353
:103DA000EF93FF938091E10082FF0BC08091E200CE
:103DB00082FF07C08091E1008B7F8093E1000E9429
:103DC0002F218091DA0080FF19C08091D80080FFF8
:103DD00015C08091DA008E7F8093DA008091D9003F
:103DE00080FF96C084E189BD86E189BD09B400FEEB
:103DF000FDCF81E08093B7020E941D1B8091E100FE
:103E000080FF19C08091E20080FF15C08091E20020
:103E10008E7F8093E2008091E20080618093E200D7
:103E20008091D80080628093D80019BC85E080938F
:103E3000B7020E942F1B8091E10084FF29C080916E
:103E4000E20084FF25C084E189BD86E189BD09B413
:103E500000FEFDCF8091D8008F7D8093D8008091A7
:103E6000E1008F7E8093E1008091E2008F7E80935D
:103E7000E2008091E20081608093E2008091B602CE
:103E8000882309F44BC084E08093B7020E94301B62
:103E90008091E10083FF29C08091E20083FF25C06B
:103EA0008091E100877F8093E10082E08093B702F8
:103EB0001092B6028091E1008E7F8093E1008091A4
:103EC000E2008E7F8093E2008091E2008061809327
:103ED000E20042E060E080E00E94BD1D8091F000C1
:103EE00088608093F0000E942E1BFF91EF91BF919C
:103EF000AF919F918F917F916F915F914F913F9182
:103F00002F910F900BBE0F900FBE0F901F90189522
:103F100019BC1092B7020E942B1B70CF8091E30056
:103F200087FD02C081E0B0CF83E0AECF1F920F9239
:103F30000FB60F9211240BB60F922F933F934F930E
:103F40005F936F937F938F939F93AF93BF93CF9321
:103F5000DF93EF93FF93D091E900DF708091EC0045
:103F6000C82FC17080FDC0E81092E9008091F00078
:103F7000877F8093F00078940E94DE1F1092E90002
:103F80008091F00088608093F000CD2BCF70C093BB
:103F9000E900FF91EF91DF91CF91BF91AF919F9198
:103FA0008F917F916F915F914F913F912F910F90E2
:103FB0000BBE0F900FBE0F901F9018951F93CF93BD
:103FC000DF93CDB7DEB7AA970FB6F894DEBF0FBE6A
:103FD000CDBF88EB92E0FC0101962091F100208397
:103FE00022E0803C9207B9F70E943C1B8091E800D8
:103FF00083FF1DC18091B8029091B9029A3008F0F8
:1040000016C1E92FF0E0E55DFD4D0C945F2180388D
:1040100099F0823809F00BC18091BC028F70873013
:1040200008F005C18093E9008091EB0085FB8827AB
:1040300080F91092E90006C08091B5029091B40217
:10404000911182609091E800977F9093E8008093AF
:10405000F1001092F1008091E8008E77E4C088238F
:1040600009F4D2C0823009F0E2C08091BA02811115
:10407000D5C08091BC028F702FEF280F263008F03A
:10408000D6C08093E9002091EB0020FFC7C0933099
:1040900031F48091EB0080628093EB00BFC090917F
:1040A000EB0090619093EB0021E030E001C0220F23
:1040B0008A95EAF72093EA001092EA008091EB00DB
:1040C0008860EACF8111B3C01091BA021F77809146
:1040D000E3008078812B8093E3008091E800877F64
:1040E0008093E8000E94F11D8091E80080FFFCCFE2
:1040F0008091E30080688093E30082E0111183E007
:104100008093B70294C08058823008F090C08091AC
:10411000BA029091BB028C3D23E0920799F583E0AF
:104120008A838AE289834FB7F894DE01139620E0F0
:104130003EE051E2E32FF0E050935700849120FFDE
:1041400003C082958F703F5F8F708A30C8F0895CA2
:1041500090E08D939D932F5F243161F74FBF809145
:10416000E800877F8093E8006AE270E0CE01019664
:104170000E94081D8091E8008B778093E80057C06B
:10418000805DE6CF6091BC027091BD02AE014F5FD1
:104190005F4F0E94311CBC01892B09F448C08091FB
:1041A000E800877F8093E80089819A810E94621DE0
:1041B000E1CF8038E1F58091E800877F8093E800C7
:1041C0008091B6028093F10046CF811130C090916A
:1041D000BA02923060F58091E800877F8093E80012
:1041E0009093B6020E94F11D8091B602882311F0CF
:1041F00084E005C08091E30087FDFACF81E08093E1
:10420000B7020E94321B13C08091BA02813079F448
:1042100081E0933009F080E08093B4021092E900CD
:104220008091E800877F8093E8000E94F11D8091D3
:10423000E80083FF0AC08091E800877F8093E80050
:104240008091EB0080628093EB00AA960FB6F89401
:10425000DEBF0FBECDBFDF91CF911F9108950895AE
:10426000CF938091B7028823A1F0C091E900CF706D
:104270009091EC00892F817090FD80E8C82B1092FE
:10428000E9008091E80083FD0E94DE1FCF70C0939B
:10429000E900CF91089597FB072E16F4009407D0FC
:1042A00077FD09D00E94682107FC05D03EF4909567
:1042B00081959F4F0895709561957F4F0895EE0FFA
:1042C000FF1F0024001C0BBE0790F691E02D0994FF
:1042D000AA1BBB1B51E107C0AA1FBB1FA617B7072C
:1042E00010F0A61BB70B881F991F5A95A9F7809548
:1042F0009095BC01CD010895F999FECF92BD81BD85
:10430000F89A992780B50895A8E1B0E042E050E01E
:104310000C94B021262FF999FECF92BD81BDF89A59
:10432000019700B4021639F01FBA20BD0FB6F894F9
:10433000FA9AF99A0FBE08950396272F0E948B21AF
:104340000E948A21252F0E948B21242F0C948B21DF
:104350000196272F0E948B210C948A21DC01CB012E
:10436000FC01F999FECF06C0F2BDE1BDF89A319685
:1043700000B40D9241505040B8F70895F894FFCF23
:10438000A106A706AB06B906BD06C106C506CB0643
:10439000D306D706DB06DF06EB06EF06F306F706C5
:1043A000FD061B070507AF06B506E306E706CF06C1
:1043B0000107110724072807E709E709490A490AFD
:1043C000980AB40A170A170ABF0A750B860B860BE0
:1043D000E60B170A170AEF0B791970197C196E1979
:1043E000C119C1196E19C119C1199819C119A31997
:1043F000AE19C119C119C119C1196E19C119C11953
:104400006E19C1198A19C119C119BF19BF19BF196C
:10441000BF19BF19BF19BF19BF19BF19B919C119E0
:1044200079196C19C119C119C119C119C119C11959
:10443000C119C119C119C119B919C119C1196E1907
:10444000C119BD19BD19BD19BD19BD19BD19BD19B8
:10445000BD19BD19B91907202F2017212F201721A9
:0A446000622083201721D920E520F7
:10446A0056020101641E0A041406591AD41AA71A1C
:10447A00A31A8F1A01E200E900EA00B500B600B7F4
:10448A0000CD008301CC008A01920194012102230C
:10449A000224022502260227022A02B300B4006F70
:1044AA00007000C7F0F73133309597C0C16066F6E7
:1044BA00949293903791C63432E200E900EA00B54B
:1044CA0000B600B700CD008301CC008A01920194A6
:1044DA00012102230224022502260227022A02B30C
:1044EA0000B4006F00700001020304050607080902
:0244FA000000C0
:00000001FF
