:1000000000040020F5040000F7040000F7040000DD
:10001000F7040000F7040000F7040000F7040000F4
:10002000F7040000F7040000F704000005390000A1
:10003000F7040000F7040000F7040000014100008D
:10004000F7040000F7040000F7040000F7040000C4
:10005000F7040000F7040000F7040000F7040000B4
:10006000F7040000F7040000F7040000F7040000A4
:10007000F7040000F7040000F7040000F704000094
:10008000F7040000F7040000F7040000F704000084
:10009000F7040000F7040000F7040000F704000074
:1000A000A1420000F7040000F7040000F70400007C
:1000B000F7040000F7040000F7040000F704000054
:1000C000F7040000F7040000F7040000F704000044
:1000D000F7040000F7040000F7040000F704000034
:1000E000F7040000F7040000F7040000F704000024
:1000F000F7040000F7040000F7040000F704000014
:10010000F7040000F7040000F7040000F704000003
:10011000F7040000C1470000F7040000F7040000E6
:10012000F7040000F7040000F7040000F7040000E3
:10013000F7040000F7040000F7040000F7040000D3
:10014000F7040000F7040000F7040000F7040000C3
:10015000F7040000F7040000F7040000F7040000B3
:10016000F7040000F7040000F7040000F7040000A3
:10017000F7040000F7040000F7040000F704000093
:10018000F7040000F7040000F7040000F704000083
:10019000F7040000F7040000F7040000F704000073
:1001A000F7040000F7040000F7040000F704000063
:1001B000F7040000F7040000F7040000F704000053
:1001C000F7040000F7040000F7040000F704000043
:1001D000F7040000F7040000F7040000F704000033
:10040000FFFFFFFFFFFFFFFFFFFFFFFF7EFFFFFF7D
:0C041000A94E00007D0500005905000009
:10041C0072B6274880F30888264880F30988264856
:10042C004EF60851CEF200010860022080F31488C9
:10043C00BFF36F8F03F020F802F02FFF4FF0553011
:10044C001E491B4A91423CBF41F8040BFAE71C4978
:10045C00184A91423CBF41F8040BFAE719491A4A71
:10046C001A4B9A423EBF51F8040B42F8040BF8E7C2
:10047C0000201749174A91423CBF41F8040BFAE798
:10048C0002F0FEFF02F0F9FF134C144DAC4203DAFC
:10049C0054F8041B8847F9E702F00EFF104C114D7D
:1004AC00AC4203DA54F8041B8847F9E702F0E6BFC4
:1004BC0000040020000C00200000000000000020C0
:1004CC000004002050560000000C002054100020A6
:1004DC0000120020181F0020100400001804000057
:1004EC00180400001C04000092E700F000F8FEE77E
:1004FC002DE9F04FC1F80CD0C3689D46BDE8F08FD4
:10050C00002383F311882846A047002003F0C6F986
:10051C0003F040F900DFFEE753B94AB9002908BFE0
:10052C0000281CBF4FF0FF314FF0FF3000F00CB82B
:10053C00ADF1080C6DE904CE04F0ACFADDF804E082
:10054C00DDE9022304B07047704700BF10B5054CBD
:10055C00237833B9044B13B10448AFF30080012363
:10056C00237010BD00120020000000005056000047
:10057C0008B5034B1BB103490348AFF3008008BD1A
:10058C00000000000412002050560000044B054AE5
:10059C00596813680448CB1A0360116000F079B8ED
:1005AC00001000E0201200201C120020024B5A68A0
:1005BC00024B1A6000F06EB8001000E0241200200C
:1005CC0070B5154D154C164E284606221A2103F00F
:1005DC00B1FD06220521204603F0ACFD06220E21BA
:1005EC00204603F0A7FD06220721304603F0A2FDAA
:1005FC004FF080636B6020254FF48043656063602F
:10060C008023C4F8843006220521304603F092FD85
:10061C00C4F8845070BD00BF00F10F4000F00F40D3
:10062C0080F00F4008B500F033F8BDE80840FFF744
:10063C00C7BF0000124B5A68124B9A60124B10F055
:10064C00080F4FF0806214BF9A605A600F4B10F085
:10065C00040F4FF0200214BF9A605A6010F0010F83
:10066C004FF4804214BF9A605A60084B10F0020F8E
:10067C004FF0800214BFC3F88820C3F88420704761
:10068C00001000E02412002000F10F4000F00F4099
:10069C00704770470120704701207047704708B5BC
:1006AC00FFF7FCFF08BD000013B502AB03E9030024
:1006BC000F4B1B78B3B99DF8023073B16AB101F0DE
:1006CC009FFC04460146009801F056FC0099204618
:1006DC0002B0BDE8104000F079B8009801F070FC51
:1006EC000446F3E7009801F08BFC0099F0E700BF9B
:1006FC009812002003460A4600689988FFF7D4BF79
:10070C0010B500210446FFF7F5FF2146FFF7C7FFA0
:10071C0010BD08B501F0BEFD08B901F037FEBDE80B
:10072C000840FFF77FBFFFF731BF0120704708B5C6
:10073C00FFF7FBFF08BD10B50446FFF77BFF204613
:10074C00FFF7F5FF10BD704708B501F0A6F8FFF7ED
:10075C00FAFF46F2A81003F0A6F8BDE8084001F035
:10076C0063BF38B501210446FFF7C4FF2146054697
:10077C00FFF71CFF08B9002038BD2146284600F0C1
:10078C0037FB0028F7D02146284600F079FB0028DB
:10079C00F1D02146284600F04DFC0028EBD0A37880
:1007AC0033B1B5F5B84F07D045F6DE439D4206D0C0
:1007BC002046FFF771FFDFE7FFF7C6FFDBE701F02D
:1007CC00E5FDD8E70020704770470000C1F3072310
:1007DC006922C3EBC30302FB003353FA81F3034AD0
:1007EC0032F8130082B002B0704700BFEC4E00002C
:1007FC00014B33F810007047EC4F000013B5ADF807
:10080C0004100199FFF7E2FF00F0CAF8B0F5A04F11
:10081C00044631D2B0F5804F80F08A80DF2813D89F
:10082C00BF2879D8A7280BD8A42869D8012804D0C8
:10083C00031F9BB2A12B28BF0024204602B010BD81
:10084C00BF2861D10024F8E7B0F5005F0BD2FF2878
:10085C00F3D8E728F1D9A0F1F0039BB20F2BF1D814
:10086C0040F4A04027E0B0F5405F5BD30205C3B273
:10087C005BD443F44044E0E7B0F5AA4F1DD2B0F589
:10088C00A84FC3B272D2B0F5A64F0AD2B0F5A44F9E
:10089C0063D2B0F5A24F50D34AF2F10040EA0324E0
:1008AC00CBE79C08012003F0030300FA03F343EAAF
:1008BC00441040F40A4084B2BFE7B0F5B44F0FD2F5
:1008CC00B0F5B24F5ED2B0F5AC4F52D3A0F5B043F9
:1008DC009BB2FF2BB6D84AF2F00040EA0420EAE7BC
:1008EC00A0F5C0439BB2B3F5005FABD2C0F30420BC
:1008FC0000F0D6F8000200F4F850E4B220433EE0D9
:10090C00243840F48040D6E75834E4B2234B33F813
:10091C00140040F4884490E7C03880B2FFF768FFB9
:10092C0004468AE7C0F30B00F8E743F4484484E735
:10093C00C0F30B0040F420447FE7C0F30114C3F371
:10094C008100400140EA042003F00303012404FA6F
:10095C0003F3184340F40C40ADE79C08012003F06E
:10096C00030300FA03F343EA4410F3E74AF2F400FA
:10097C0094E7C0B200F094F8000200F4F85040F490
:10098C0000545AE700F00F0000F08AF8C4F3031487
:10099C0040EA042040F410408DE700BFBE4F000039
:1009AC00E7284DD8DF2807D8312861D00ED8292860
:1009BC0057D02A2863D07047A0F1E003072B3FD80B
:1009CC00DFE803F0123E2126303E3A3F392804D0AE
:1009DC00822802D035283DD07047304B1B7813F05D
:1009EC00030F18BFE02070472C4A1378D9074DD459
:1009FC00527812F0010F23D013F0100F08BFE32030
:100A0C0018BF00207047254B1B7813F0040FF2E73A
:100A1C00224A137859073BD45278D2073AD413F0B0
:100A2C00100FEDE71D4B5A78910709D51B7813F081
:100A3C00100F08BFE720E3E7184B1B781A07F6D412
:100A4C007047164A1378190726D452789207E6D5C0
:100A5C00E420F5E7114B1B7813F0200F18BF292069
:100A6C0070470E4B1B7813F0200F18BF35207047C2
:100A7C000A4B1B7813F0400F18BF2A207047074B06
:100A8C001B7813F0400F18BF312070473920704786
:100A9C00E2207047E0207047E62070475C1300208E
:100AAC00294A1378590707D500F01801082927D1CE
:100ABC0000F0F70040F00400190707D500F018010A
:100ACC00182926D100F0E70040F014005278D10725
:100ADC0007D500F01801082924D100F0F70040F0E8
:100AEC000100920707D500F01802182A23D100F054
:100AFC00E70040F01100DB0648BF00F0E70070474C
:100B0C0000F01401042904BF00F0FB0040F00800C1
:100B1C00D2E700F01401142904BF00F0EB0040F000
:100B2C001800D3E700F01101012904BF00F0FE000A
:100B3C0040F00800D5E700F01102112A04BF00F0C4
:100B4C00EE0040F01800D6E75C130020014B185C57
:100B5C00704700BF301200207047032002F0A3BE84
:100B6C0038B5174D0F2455F8040B0322C0F3075169
:100B7C00013C20F07F6003F0DDFA14F0FF04F2D1A9
:100B8C00104D072455F8040B0322C0F30751013C08
:100B9C0020F07F6003F0CEFA14F0FF04F2D121466E
:100BAC000F22094804F0E6F821460F22074804F00A
:100BBC00E1F80F2000F06CF8BDE83840FFF7A9BD54
:100BCC0008500000EC4F00003F12002030120020B3
:100BDC002DE9F74F2A4BDFF8AC8000930F25002747
:100BEC004FF0010B009B53F8044B009324F07F69EA
:100BFC00C4F3075406222146484603F09BFA0BFA2D
:100C0C0004F3C9F80830FFF7A8FF00261E4AB246C5
:100C1C0052F8040B0192C0F3075120F07F6003F0EF
:100C2C0083FA019A50BB0BFA06F149B2013641EA3C
:100C3C000A03072E5FFA83FAEAD1032221464846BB
:100C4C0003F078FA98F80020013D52451ABF88F855
:100C5C0000A00123002315F0FF0547EA030708F164
:100C6C000108BFD1094907483B460F2200F012F892
:100C7C00FFF759FD384603B0BDE8F08F0021D5E7EA
:100C8C00085000003F120020EC4F000030120020F2
:100C9C0070470000F8B50F4C06460F4615462BB1B1
:100CAC000123237001F0B4FC0B4B188023782BB17B
:100CBC00094B188801F0B1FC052808D8F8BDF25C86
:100CCC00FA5401339D42FADC00232370F6E700232B
:100CDC00F8E700BF4E12002050120020014B185CA8
:100CEC00704700BF54120020034BC218185C527896
:100CFC0040EA0220704700BF54120020024B1954E6
:100D0C001844090A4170704754120020044B1954BE
:100D1C0018440B0A43700B0C090E8370C17070479A
:100D2C0054120020014B1954704700BF541200207C
:100D3C00FFF7E4BFFFF7EABFF8B5154682781F4608
:100D4C000C46294B92B1197001F062FC274B1880AC
:100D5C0004F12003DBB2072B44D804F00704012074
:100D6C00A040C0B2BDE8F84000F075BB1E788E42C2
:100D7C002ED11E4B188801F050FCC72828D8AE4243
:100D8C0005F1200415D006F12003DBB2072B06D8A1
:100D9C0006F007060120B040C0B200F065FBE3B2DC
:100DAC00072B06D805F0070301209840C0B200F0CD
:100DBC0052FB3846E4B200F03EFB072C12D805F08B
:100DCC0007050120A840BDE8F840C0B200F04CBBBC
:100DDC0004F12003DBB2072B04D804F00704012034
:100DEC00A040F0E7F8BD00BF781200207A12002076
:100DFC0008B545F6F6420346934208460FD845F629
:100E0C00F242934211D845F6D84293421DD045F692
:100E1C00D94293422DD045F6D74293420ED08078DA
:100E2C0050B3164B00221A700EE0A3F5B943743B75
:100E3C00022B0ED8DFE803F011151900E12226234E
:100E4C001146FFF779FF002008BD2723E522E52195
:100E5C00F7E72623E122E021F3E72723E522E4212B
:100E6C00EFE72623E122E221EBE72723E522E62127
:100E7C00E7E728230122EAE70120E5E778120020C2
:100E8C0038B505468878002800F0CF8045F6154324
:100E9C009D4216D845F601439D4217D901F00AFA36
:100EAC00634C45F615439D42208021D845F60143FD
:100EBC009D420CD8208801F009FA00F0EEFC0020CD
:100ECC0004E0A5F5B9437A3B082BE7D938BDA5F565
:100EDC00B845033D122D1AD8DFE805F01E22263343
:100EEC00373B3F455155595D696D71757B97830053
:100EFC00A5F5B9457A3DABB2082BDBD8082DD9D86E
:100F0C00DFE805F0161B4D51376B7A8D9100237875
:100F1C0043F001032370CDE7237843F00203F9E794
:100F2C00237843F00403F5E7237843F00803F1E753
:100F3C00637843F001036370BCE7637843F002030A
:100F4C00F9E7237843F01003E4E7237843F0200318
:100F5C00E0E7237843F04003DCE700F09EFC2378C5
:100F6C0043F08003D6E7237823F00C0343F00C0303
:100F7C00D0E7637823F0030343F00303DBE7237824
:100F8C006FF30003C6E723786FF34103C2E72378BE
:100F9C006FF38203BEE723786FF3C303BAE763787A
:100FAC006FF30003C7E763786FF34103C3E723785C
:100FBC006FF30413AEE723786FF34513AAE7237896
:100FCC006FF38613A6E700F068FC23786FF3C71362
:100FDC00A0E7237823F00C039CE7637823F003034A
:100FEC00A9E72378C3F3800282F00102D2B262F344
:100FFC00820362F3C3038DE76378DA4302F00102E4
:10100C0062F3000362F3410395E700F046FC23789A
:10101C00C3F3C01282F0010262F3C7137AE7012016
:10102C0001F0B6F946E70020FAE701204EE700BFD1
:10103C005C13002045F61643984210B50C461BD1A4
:10104C0001F05EF8A2780D4B72B100F0AA000028F6
:10105C0015BF01220022352029201A7001F020F83A
:10106C0001F0BAF8002010BD1B78002B14BF3520FE
:10107C00292001F01DF8F3E70120F4E77C12002091
:10108C00014B1860704700BF80120020024B18689B
:10109C0008B103681847704780120020084B1B6882
:1010AC006BB1084A127842B1074A92F90020002A23
:1010BC00BFBF02784270052202705B681847704708
:1010CC00801200200C0C00205C130020034A1268D4
:1010DC001AB10221017093681847704780120020E2
:1010EC00054A1188814205D0044B10801B680BB156
:1010FC00DB681847704700BF861200208012002062
:10110C00054A1188814205D0044B10801B680BB135
:10111C001B691847704700BF841200208012002002
:10112C007047704708B5FFF7FCFF08BD704708B55E
:10113C00FFF7FCFF08BD08B5FFF7F2FFFFF7F2FF62
:10114C0008BD0120704708B5FFF7FBFF08BD08B5C7
:10115C0001F03EFAFFF704FD01F068FAFFF7E7FF34
:10116C0008BD00002DE9F347FFF732FDFFF7EBFF59
:10117C0000284DD0DFF8C4A0DFF8C4800025564607
:10118C00EFB23846FFF7E2FC1AF8014B8442814675
:10119C003BD098F800309B0701D5FFF7DDFC84EAC3
:1011AC000904E3B2002201242342D1B228D019EA67
:1011BC00040F14BF012300238DF800108DF80230AA
:1011CC008DF8017001F024FA40F0010002ABADF88B
:1011DC00040013E9030000F037F8735D5C407455AC
:1011EC00184C01F0B1FBFFF751FF2378834222D05A
:1011FC00FFF74CFF207002B0BDE8F047FFF79BBA39
:10120C0001326400072AE4B2CED101350F2DB7D1DB
:10121C004FF6FF73ADF8003000238DF8023001F06B
:10122C00F7F940F00100ADF8040002AB13E903003C
:10123C0000F00AF8D4E702B0BDE8F087891200206C
:10124C00571300208812002084B06B4683E80300FB
:10125C000022ADF80E2093E8030004AB0290ADF829
:10126C000C1013E9030004B000F044BD008800F03A
:10127C00E7BE000010B5044600287AD0822813D1AE
:10128C00FFF704FF810774D4392000F009FF00F048
:10129C00A3FF42F2107002F006FB392000F008FFA9
:1012AC00BDE8104000F098BF83280ED1FFF7EEFE8A
:1012BC00C2075ED4532000F0F3FE00F08DFF42F223
:1012CC00107002F0F0FA5320E8E784280ED1FFF7F3
:1012DC00DDFE43074DD4472000F0E2FE00F07CFF1A
:1012EC0042F2107002F0DFFA4720D7E7031FDBB29F
:1012FC00A02B12D801F00CFD00283AD11D4B214631
:10130C00186801F067F820B1204600F0D1FE00F01B
:10131C0063FF204600F0C4FEC2E700F12003DBB2FD
:10132C00072B07D800F007040120A040C0B200F042
:10133C00EDFEB5E700F15B03DBB2022B05D82438D8
:10134C00BDE8104080B2FFF7CBBE00F15803DBB212
:10135C00162B06D8084ABDE8104032F81300FFF7E8
:10136C00CFBEEF2805D901F0E9F9BDE8104001F036
:10137C00DDBA10BD000C00204450000008B5002858
:10138C0058D082280FD1FFF781FE810752D5392022
:10139C0000F086FE00F020FF392000F089FEBDE849
:1013AC00084000F019BF83280AD1FFF76FFEC2076F
:1013BC0040D5532000F074FE00F00EFF5320ECE7F4
:1013CC0084280AD1FFF762FE430733D5472000F08B
:1013DC0067FE00F001FF4720DFE7021FD2B2A02A10
:1013EC00DBD900F12002D2B2072A07D800F007039C
:1013FC0001209840C0B200F091FED0E700F15B02F2
:10140C00D2B2022A04D8BDE808400020FFF768BE1B
:10141C0000F15802D2B2162A04D8BDE808400020C8
:10142C00FFF76EBEEF2805D901F0FCF9BDE80840C6
:10143C0001F07CBA08BD10B50446FFF71BFF392C30
:10144C000CBF4FF4FA50012002F02DFA2046BDE8F3
:10145C001040FFF793BF08B528B100F057FEBDE868
:10146C00084000F0B9BE08BD08B528B100F056FE22
:10147C00BDE8084000F0B0BE08BD2DE9F047867904
:10148C00857880460C4636090DB100F065FE00F0FB
:10149C002DFE074698B14DB3C4F3072303F0F003B8
:1014AC00402B04D004F12003DBB2072B1ED9022001
:1014BC0000F0D8FE00F01AFE80F00107FFB2C4F372
:1014CC000339B9F10F0F3FD8DFE819F01200120001
:1014DC0062006200A600BD003E003E00C700220173
:1014EC003201320187013E003E0090010027E6E701
:1014FC00C4F30723C4F3032613F0F00F18BF36010F
:10150C00E4B295B156B104F12003DBB2072B30469F
:10151C0000D93CB900F0FAFD00F05EFE2046FFF762
:10152C00A9FE11E000F008FEF6E72046FFF726FFC3
:10153C0056B104F12003DBB2072B304600D924BB93
:10154C0000F0ECFD00F048FEA9F10809B9F1030F19
:10155C0003D8FFF79BFDFFF7EEF8002F00F04D814D
:10156C0000F0BCFD10F0010040F0478188F802004B
:10157C0000F0ACFD00F0C8FC404600F051F900F062
:10158C00A5FDBDE8F04700F0C9BC00F0DDFDD9E7D2
:10159C00C4F3072303F0F003C4F3032A202BE4B2B3
:1015AC0018BF4FEA0A1A24B1012C20D03DB30EB358
:1015BC00B4E795B13EB900F0EBFD40EA0A00C0B2C9
:1015CC00FFF749FFC0E7012EF5D100F0E1FD40EA3D
:1015DC000A00C0B200F0E8FDB6E72EB900F0F0FD4D
:1015EC005046FFF741FFAFE7012EADD0F6E71DB136
:1015FC00052EA9D85046E3E7042EA5D8F0E7002E17
:10160C00EED0392C0CBF4FF4FA50012002F04BF9FC
:10161C002046FFF7B3FE97E714F4406FC4F3812321
:10162C0007D0012B90D165B1C4F30900FFF768FD19
:10163C008AE725B1C4F30900FFF752FD84E7284679
:10164C00FAE72846F2E7E0B225B101F077F801F0AD
:10165C006DF979E701F0E6F8F9E714F4407F27D14A
:10166C00002D7FF471AFC4F34210E2064FEA800004
:10167C0048BF0F25C0B248BF854004F00F03C4F328
:10168C00812448BFED438340022C45EA030009D076
:10169C00032C0AD0012C02D000F00CFC54E700F013
:1016AC0001FC51E700F00EFC4EE700F0F8FB4BE7B5
:1016BC00C4F3012205B312F0010F3FF445AFC4F39C
:1016CC0042139B00DBB204F00F0000FA03F214F09B
:1016DC0010001CBF0F209840C4F3812414BFC343D7
:1016EC000346022C43EA02000CD0032C0DD0012C33
:1016FC0005D000F02FFC27E712F0020FDDE700F019
:10170C0021FC21E700F02EFC1EE700F0E9FB1BE7B3
:10171C00E6B2C4F3032425B1204600F0F5FB3046B5
:10172C004EE73046FFF7A0FE204600F0F7FB0BE734
:10173C005FFA84FAAAF1F003042B39D8DFE803F03E
:10174C00030E151A23003DB1042E3FF6FDAEC4F373
:10175C00042000F0EDFBF7E6052EF6E7C4F30420B9
:10176C00002DE2D000F0D0FBEEE6C4F30420002DF7
:10177C00F8D0DAE725B1C4F3042000F0C0FBE3E6AF
:10178C0000F0BAFBE0E64DB1C4F30424204600F0AF
:10179C00BBFB0321204600F04BFDD5E6012000F0F9
:1017AC0061FD012E7FF6D0AE022000F05BFDCBE692
:1017BC002DB10EB15046B2E6C4F30420D2E74EB1BF
:1017CC00BAF1390F0CBF4FF4FA50012002F06BF84C
:1017DC0050461EE7C4F30420A7E7C4F30322E1B28A
:1017EC004046FEF7EFFF00F0EDFAADE6C4F303223E
:1017FC00E1B24046FEF7E8FFA6E6BDE8F08738B553
:10180C0001880446807800F027FC054600F0B2FB06
:10181C0000F044FB29462046BDE83840FFF72DBEBA
:10182C0013B504460068A3880090D3B1BDF800201E
:10183C004FF6FF739A4214D02046FEF792FF50B930
:10184C0000F054FC68B1A3785BB1022002B0BDE893
:10185C00104000F007BD2046FFF7D1FF2046FEF7F1
:10186C004FFF02B010BD08B500F076FC00F08AFC0A
:10187C0000F0B2FC01F04CF901F058F80020FFF731
:10188C002FFCBDE808400020FFF73ABC08B500F07B
:10189C0017FCBDE80840FFF7E6BF08B500F046FCB2
:1018AC00BDE80840FFF7F2BF0346C3F30332023A28
:1018BC00C0B20D2A1CD8DFE802F007071B1B141B53
:1018CC001B1B0707181B1B18F02813D004D8E7287C
:1018DC008CBF002001207047F42814BF0020012089
:1018EC007047E72806D9F128F7E7C3F3C020704703
:1018FC00002070470120704707B5ADF8040001982F
:10190C0000F09EFB03B05DF804EBFFF7CDBF82B097
:10191C0002AB03E9030002B0704782B002AB03E9EB
:10192C00030002B07047000070B5094B094E1C78DB
:10193C00094D3378A34200D170BD05EBC40355F8B3
:10194C00340059680134FFF7E8FF04F00704F0E7AE
:10195C00E3120020E2120020A2120020024B1868B1
:10196C005968FFF7DABF00BF9A120020214BF7B578
:10197C009A7912F0F00F0AD19A7842B11E4A1F4E92
:10198C0012781F4D4FF6FF773178914201D103B099
:10199C00F0BD18680090988840B3BDF80010B942AB
:1019AC0024D005EBC20493F801C061788C451DD19D
:1019BC0093F800C015F832108C4517D1A178A9B94D
:1019CC00A188091A89B2C72910D899790948012226
:1019DC0062F307119971A37962F30713A371FFF7EF
:1019EC001FFF03B0BDE8F040FFF79EBF013202F0CD
:1019FC000702C9E79A120020E3120020E21200202D
:101A0C00A21200202DE9F043B64C85B00546A18802
:101A1C000068ADF80C10A188AB8800902068ADF878
:101A2C0004302A786B78AF78B5F804900290EC46C5
:101A3C00002900F0EA80BDF808E04FF6FF708645FB
:101A4C0000F0E380A678002E00F0DF80A9EB010106
:101A5C00A07989B2C72900F0F00800F2AD80B8F186
:101A6C00000F6ED18DF800208DF80130BDF80010FC
:101A7C007145B84610D17FB9012363F30710A071EB
:101A8C00FFF76CFF2046FFF7CBFEA379AB71002666
:101A9C00304605B0BDE8F0838DF800208DF801309C
:101AAC008DF808208DF80930B9F1000F23D0BDF85E
:101ABC0008004FF6FF7188421DD0F7B98A488B4950
:101ACC00077809788A48B9421CD1009800F0B8FA16
:101ADC00C0F30332012AC3B225D90E3202F00F0231
:101AEC00012A29D810F4706F22D0AA7912F0F00FC5
:101AFC001ED14646CCE7002FC9D0A37943F0010391
:101B0C00A371C4E700EBC10494F801C09C4506D155
:101B1C0010F831C0944502D1A478002CB7D1013112
:101B2C0001F00701CFE710F4706F01D0002BE0D06B
:101B3C002033DBB2072BDCD92846FFF771FEB04609
:101B4C00D7E78DF800208DF80130BDF800107145F5
:101B5C000BD157B9A8712846FFF762FE2B6823609A
:101B6C006B686360FFF7FAFE92E78DF800208DF842
:101B7C0001300098FFF7C0FED0B1CFB1A3791F2B75
:101B8C000CD92288ADF8082002A800228DF80A2072
:101B9C00ADF80C908DF80E30FFF742FE2B682360E9
:101BAC006B686360FFF7E2FEFFF7D8FE01266FE774
:101BBC002846FFF735FEF9E7B8F1000F13D18DF881
:101BCC0000208DF801308DF802709CE80300FFF7BF
:101BDC009EFE2046FFF724FEC4F80080C4F8048063
:101BEC00FFF7BCFE85E78DF800208DF801302188C9
:101BFC00BDF800C08C45B8D1002FB6D1A8712846CD
:101C0C00FFF70EFE2760676042E720680290A0880D
:101C1C00ADF80C0000294CD0BDF808604FF6FF70F1
:101C2C00864246D0A678002E43D1A9EB01091FFAB3
:101C3C0089F9B9F1C70F2FD83E46002FB8D08DF8CF
:101C4C0000208DF801302188BDF800308B4216D170
:101C5C00A379DA070ED413F0F0020BD0F02AAB7193
:101C6C003FF479AFDBB2C3F30312013262F3071313
:101C7C00AB7170E72B6823606B68636008E70098B2
:101C8C00FFF73AFE002889D1A379284643F00103D7
:101C9C00A371FFF7C5FDFBE68DF800208DF8013030
:101CAC008DF802709CE80300FFF731FE2660666039
:101CBC0058E7002F3FF47CAF8DF800208DF80130F1
:101CCC000098FFF719FE064600283FF471AF2B6809
:101CDC0023606B6803486360FFF7C8FAFFF746FEA2
:101CEC0040E700BF9A120020E2120020E31200200D
:101CFC00A2120020F0B587B06C4684E803002046A1
:101D0C00FFF780FE2B4FBDF804202B4E054678B113
:101D1C0094E803000490ADF814103AB1BDF810200B
:101D2C004FF6FF739A4201D0FFF7F7FD234C3AE0D0
:101D3C0094E8030004AB83E803000290002AF5D07A
:101D4C00BDF808003C7831784FF6FF729042EDD028
:101D5C00621C02F007028A420BD0184D3A7003CB7A
:101D6C0005EBC40C45F83400CCF80410FFF7DCFD8F
:101D7C00DCE7FFF792FD124B3D7035701D605D6026
:101D8C00D4E704EBC000FFF73DFE80B1337804EBE1
:101D9C00C30254F833005168FFF7BFFD33780133A9
:101DAC0003F00703337030783B788342E9D107B0F6
:101DBC00F0BD00BFE2120020E3120020A2120020AE
:101DCC009A120020F8B5034660B1002501261C4686
:101DDC0014F8010B74283CD00BD802282AD002D856
:101DEC00012812D0F8BD031F6F2BFBD8FFF742FA66
:101DFC001AE0752837D000F17C03DBB26F2BF1D8D9
:101E0C0000F07F00FFF7BAFA0EE09C1C5B7803F140
:101E1C002002D2B2072A0BD803F007039840C0B2B5
:101E2C0000F0A0F900F0D8F92F46FFB92346CEE711
:101E3C001846DBE758789C1C00F12003DBB2072B1B
:101E4C00E0D800F0070006FA00F0C0B200F092F9FA
:101E5C00E8E75F789C1C002FE6D06420013F01F07E
:101E6C0022FDFFB2F7E75D789C1CDDE76420013FA3
:101E7C0001F019FDFFB2D8E7704708B5FFF7FCFF7A
:101E8C0008BD000008B5FFF7F8FF034B1860BDE86C
:101E9C000840FFF7E8BC00BFE41200207047FFF7D2
:101EAC00F1BF0000024B1B681843FFF7EBBF00BFEC
:101EBC00E4120020024B1B681840FFF7E3BF00BF81
:101ECC00E4120020024B1B685840FFF7DBBF00BF39
:101EDC00E4120020704708B5FFF7FCFF08BD0000B6
:101EEC0008B5FFF7F8FF034B1860BDE80840FFF793
:101EFC00BABC00BFE81200200020FFF7F1BF01239D
:101F0C0003FA00F0FFF7ECBF034A0123834010688B
:101F1C001843FFF7E5BF00BFE8120020034A012376
:101F2C008340106820EA0300FFF7DABFE8120020B4
:101F3C00034A0123834010685840FFF7D1BF00BF0C
:101F4C00E8120020024B1B681843FFF7C9BF00BF03
:101F5C00E8120020024B1B681840FFF7C1BF00BFFE
:101F6C00E8120020024B1B685840FFF7B9BF00BFB6
:101F7C00E812002070470000C0F30723C3EBC30333
:101F8C0037B553FA80F000F0070301229A40C0F3F2
:101F9C00C4000A4B00EB8000D2B218440024057830
:101FAC0021FA04F343F300036B40134001346B40FC
:101FBC00052C00F8013BF2D103B030BDEC1200202F
:101FCC00C0F30723C3EBC30313B553FA80F00B49DB
:101FDC0000F00704C0F3C40000EB800000220144B1
:101FEC00104611F8013BE34003F00103934001322A
:101FFC001843052AC0B2F4D102B010BDEC12002077
:10200C000D4B73B51E680D4BADF804001B681F24F7
:10201C001E4326FA04F3DB07E5B205D4013CF8D2E3
:10202C000025284602B070BD01992846FEF7E6FB54
:10203C0080B20128F2D0F4E7E8120020E41200206C
:10204C0007B5ADF804000198FFF7DAFF019903B06A
:10205C005DF804EBFEF7D2BB13B5104BADF80410D2
:10206C001B782BB1019802B0BDE81040FFF7E8BF18
:10207C0070B10198FFF7C4FF044601460198FFF7C1
:10208C007BFF0199204602B0BDE81040FEF7B6BBBD
:10209C000198FFF795FF0446F3E700BF9812002064
:1020AC00024B0146186800F001BA00BF000C00207A
:1020BC00024B0146186800F011BA00BF000C00205A
:1020CC00014B186800F022BA000C0020024B93F967
:1020DC000000C0F3C700704753130020024B187860
:1020EC0000F00700704700BF53130020034B187813
:1020FC0010F0070018BF0120704700BF53130020D9
:10210C00014B1878704700BF55130020024B1A780A
:10211C0010431870704700BF55130020024A137803
:10212C0023EA00031370704755130020014B002263
:10213C001A70704755130020024B1A781043187010
:10214C00704700BF56130020024A137823EA00039D
:10215C001370704756130020014B00221A70704701
:10216C0056130020024B1A7810431870704700BFAA
:10217C0052130020024A137823EA000313707047AD
:10218C0052130020014B00221A707047521300208A
:10219C00014B1878704700BF54130020704708B5E6
:1021AC00FFF7FCFF08BD000008B5044A1178814216
:1021BC0002D01070FFF7F3FF08BD00BF54130020CE
:1021CC0008B5044B1A781AB100201870FFF7E7FF16
:1021DC0008BD00BF5413002010B50D4B0D4A1B78E1
:1021EC0012780D4C13430D4A2068127813430C4A95
:1021FC000370127832B11343037000F0CDF808B1BC
:10220C00FFF7DEFF2068BDE81040FEF747BF00BFB8
:10221C005513002056130020000C002052130020F0
:10222C0054130020704708B5FFF7FCFF08BD0000F1
:10223C0010B5064C41EAC0012170FFF765FE94F918
:10224C000000C0F3C700FFF7EEFF10BD53130020D2
:10225C0008B5034B00201870FFF7E5FF08BD00BF61
:10226C005313002008B50A4A92F9003023EA000003
:10227C0040B2107042070AD1DBB2834207D0C0F3E0
:10228C00C700FFF74BFEBDE80840FFF7E1BF08BDF4
:10229C005313002008B50020FEF726FD4FF6EC6323
:1022AC00C31A5842584108BD0220FEF717BD03203F
:1022BC00FEF714BD10B50420FEF710FD04462120D6
:1022CC00FEF70CFD44EA002080B210BD10B5C1B27F
:1022DC0004460420FEF726FD210A2120BDE810400B
:1022EC00FEF720BD01460F20FEF724BD014613204A
:1022FC00FEF720BD0020FFF7F9BF08B50020FFF75F
:10230C00F1FFFFF7F7FF08BD10B54FF6EC610020A9
:10231C00FEF70EFD00210220FEF704FD0021032034
:10232C000024FEF7FFFC184B214604201C60FEF72E
:10233C00F9FC21462120FEF7F5FC21460520FEF78D
:10234C00F1FC21460620FEF7EDFCFF210720FEF7ED
:10235C00E9FC21460820FEF7EDFC21460D20FEF796
:10236C00E1FC21461820FEF7E5FC21461720FEF77C
:10237C00D9FC21461C20FEF7DDFC21462020FEF76F
:10238C00D1FCFFF7BAFF10BDE4120020FFF7BCBF71
:10239C0001460E20FEF7C6BC0C4B1B78821C63B1A9
:1023AC000B4B93F90030002BACBF06231E230020EF
:1023BC00013BDBB2FF2B02D170470623F7E712F883
:1023CC00011B0029F4D00130C0B2F1E70C0C002045
:1023DC005C130020F9B1124B1B78A3B1114B93F98C
:1023EC000030002B0FDAEF294FEAD10213D810443A
:1023FC00012301F0070103FA01F18378194214BF9C
:10240C00012000207047831C083013F8012B8A42EE
:10241C0003D08342F9D1002070470120704700BFE0
:10242C000C0C00205C13002030B54FF0FF32841CE4
:10243C00002314F8015B8D420ED0B2F1FF3F02D1A4
:10244C00002D08BF1A460133DDB2062D5BB2F0D168
:10245C00531C01D01044817030BD10B5831C002278
:10246C00083013F8014B8C4208BF03F8012C83424F
:10247C00F7D110BDEF294FEAD10308D8184401F069
:10248C000701012303FA01F1837819438170704726
:10249C00EF294FEAD10308D8184401F007010123B2
:1024AC008B40817821EA03018170704710B4094C8C
:1024BC00247803460A463CB1074C94F90040002CA2
:1024CC0002DA10BCFFF7D6BF10BC11461846FFF756
:1024DC00ABBF00BF0C0C00205C13002010B4094CE7
:1024EC00247803460A463CB1074C94F90040002C72
:1024FC0002DA10BCFFF7CCBF10BC11461846FFF730
:10250C00ACBF00BF0C0C00205C130020094A1278F1
:10251C000346023042B1084A92F90020002A03DA3D
:10252C001E22002102F026BC0022C3F80220828069
:10253C00704700BF0C0C00205C130020704708B5DE
:10254C00FFF7FCFF08BD08B5FFF7F9FFBDE8084031
:10255C0040F2A46001F0A7B97047704710B5FFF7BF
:10256C00FBFFFEF735FBFFF7F8FF0024E0B2FEF7A8
:10257C00EDFA18B901340F2CF8D110BD0120FCE78D
:10258C00704708B5FFF7FCFF08BD08B5FFF7CEFD97
:10259C00FFF7E2FDFFF794FD00F0BAFA0020FEF71A
:1025AC009FFD0020FEF7ACFDFFF7EBFF08BD000020
:1025BC00202383F31188044B9A6A002383F3118838
:1025CC00024B1A60704700BF2015002058130020E2
:1025DC00FFF7EEBF38B5202383F31188084B002199
:1025EC009C6A81F31188074B07481B68074AE41A59
:1025FC004FF47A750023E4FB0501FDF78DFF38BD20
:10260C0020150020581300209F860100A086010091
:10261C0008B5FFF7DFFF80B208BD10B50446FFF721
:10262C00D9FF001B80B210BD7047000008B5FFF742
:10263C0031FE08B9FFF7AAFEFFF736FE054B1870FE
:10264C00FFF738FE044B1880FFF731FEBDE8084059
:10265C00FFF725BC571300205C130020194B1B7887
:10266C00D90709D5184B187800EB800080087F2813
:10267C0024D828B3C0B270479A0705D5124B1878E6
:10268C0000EB80004008F2E75B0704D50E4B18788E
:10269C0000EB8000EBE70D4B1B786BB10C4A0A4941
:1026AC00127808789342F3D210FB03F000EB800011
:1026BC00B0FBF2F080B2DAE70520DBE77F20704751
:1026CC00012070476A130020060C00206B130020B9
:1026DC00070C0020154B1B78D90705D5144B18781F
:1026EC00800800B3C0B270479A0703D5104B187816
:1026FC004008F6E75B0705D50D4B18787F28F0D915
:10270C007F2070470B4B1B785BB10B4A0849127842
:10271C000878934236BF10FB03F080B2B0FBF2F0A6
:10272C00ECE70120DEE70120704700BF6A130020B0
:10273C000A0C00206B1300200B0C0020F02808B5AD
:10274C0005D1FFF78BFF4042344BD87008BDF12800
:10275C0002D1FFF783FFF7E7F22805D1FFF77EFFE1
:10276C0040422E4B9870F1E7F32802D1FFF776FF29
:10277C00F7E7F92804D1FFF7ADFF284B1871E5E70F
:10278C00FA2803D1FFF7A6FF4042F6E7FB2805D154
:10279C00FFF7A0FF4042214B5871D7E7FC2802D12C
:1027AC00FFF798FFF7E7F42805D11C4A537843F05C
:1027BC0001035370CAE7F52804D1184A537843F043
:1027CC000203F6E7F62804D1144A537843F00403C5
:1027DC00EFE7F72804D1114A537843F00803E8E7F0
:1027EC00F82804D10D4A537843F01003E1E7FD2893
:1027FC0005D10B4A137843F001031370A6E7FE28AA
:10280C0004D1074A137843F00203F6E7FF289DD161
:10281C00034A137843F00403EFE700BF641300206E
:10282C006A1300203E4BF02893F9022007D193F94C
:10283C000310002901DA0021D9706AB17047F12820
:10284C0004D193F903100029F5DCF6E7F2280CD13A
:10285C00002AF2DA00229A70DA7819795B790A4345
:10286C001A43EBD12F4B1A707047F32802D1002A70
:10287C00F0DCE2E7F92806D193F904100029DCDD3D
:10288C0000211971D9E7FA2804D193F90410002911
:10289C00D3DAF5E7FB2806D193F905100029CCDA39
:1028AC0000215971C9E7FC2804D193F905100029BE
:1028BC00F6DCC2E7F42804D1597821F001015970F3
:1028CC00BBE7F52803D1597821F00201F7E7F62888
:1028DC0003D1597821F00401F1E7F72803D1597895
:1028EC0021F00801EBE7F82803D1597821F0100109
:1028FC00E5E7FD2805D10C48017821F001010170B4
:10290C009BE7FE2804D10848017821F00201F6E784
:10291C00FF2892D10448017821F00401EFE700BFB1
:10292C00641300206B1300206A13002008B50448C0
:10293C00FEF7CCFBFFF76CFE024B188008BD00BF06
:10294C00641300205E1300202DE9F84F674C94F9B6
:10295C00026094F9035094F800A094F8019094F953
:10296C00048094F9057056EA05030CD0DFF880B1A9
:10297C00BBF80000FFF751FE5E490B78BBB15E4A15
:10298C00127890421DDC2279637913430DD0DFF865
:10299C006CB1BBF80000FFF740FE56490B78002BDA
:1029AC0054D0574A127890425ADCBDE8F88F554AF9
:1029BC00127802EB8202B0EB420FE4DD01330B70B4
:1029CC0001E0FF2BFAD100232371637194F90230DB
:1029DC00002B02DDFFF742FEA07094F90230002BB1
:1029EC0003DAFFF73BFE4042A07094F90330002B52
:1029FC0002DDFFF733FEE07094F90330002B03DAAD
:102A0C00FFF72CFE4042E07094F9022072B194F969
:102A1C0003305BB1B5214A43121201FB03F308BF2B
:102A2C0001221B1208BF0123A270E370FFF77EFF87
:102A3C00354B84F800A01B88ABF8003084F801906B
:102A4C00A670E57084F8048067719CE72F4A1278B1
:102A5C0002EB8202B0EB420FA7DD01330B7001E0F9
:102A6C00FF2BFAD10023A370E37094F90430002BF0
:102A7C0002DDFFF72FFE207194F90430002B03DAEE
:102A8C00FFF728FE4042207194F90530002B02DD3F
:102A9C00FFF720FE607194F90530002B03DAFFF785
:102AAC0019FE4042607194F9042072B194F905301A
:102ABC005BB1B5214A43121201FB03F308BF01229B
:102ACC001B1208BF012322716371FFF72FFF0E4BFE
:102ADC0084F800A01B88ABF8003084F80190A67035
:102AEC00E57084F8048067715FE700BF6413002011
:102AFC00601300206B130020050C002062130020D3
:102B0C00090C0020040C00205E130020080C00208F
:102B1C00044A002313609380034A1370034A137012
:102B2C00704700BF641300206B1300206A13002051
:102B3C000138052817D8DFE800F0030A0C0E101234
:102B4C00094A13781944FE290BDC11707047074AA7
:102B5C00F7E7074AF5E7074AF3E7074AF1E7074AB9
:102B6C00EFE7FF2313707047040C0020050C0020C6
:102B7C00060C0020070C00200A0C00200B0C002077
:102B8C000138052817D8DFE800F0030A0C0E1012E4
:102B9C00094A13788B420CD9591A11707047074A9D
:102BAC00F7E7074AF5E7074AF3E7074AF1E7074A69
:102BBC00EFE7002313707047040C0020050C002075
:102BCC00060C0020070C00200A0C00200B0C002027
:102BDC00431F10B53E2B00F28580DFE803F02D2457
:102BEC003022838322838351835D69838383832291
:102BFC00838322834083838181818181818181814F
:102C0C0075832D208383838383838383838375835D
:102C1C008322837B7B7B7B7B7B7B7B7B7500FFF7C2
:102C2C00B5FB012007E0304A137823F00F03137033
:102C3C002E4B0120187010BDFDF786FDF1E72A4AD6
:102C4C001378C3F3000181F0010161F300031370E9
:102C5C00D9B2DB07E5D421F00E031370E1E722496A
:102C6C000B78C3F3400282F0010262F341030B7054
:102C7C0013F0020FD5D01C4A137843F00103ECE794
:102C8C0019490B78C3F3800282F0010262F38203CC
:102C9C000B7013F0040FEDE713490B78C3F3C0026C
:102CAC0082F0010262F3C3030B7013F0080FE1E72B
:102CBC00FEF7F3FD0E490B78C3F3C01282F001024C
:102CCC0062F3C7130B70ACE70120FFF7E8F8FEF7CF
:102CDC00E4FDA6E73938C0B2012404FA00F0F4E7A9
:102CEC001D38F8E70020A6E7571300206C130020CE
:102CFC005C13002000207047002070471E38C0B2C3
:102D0C0009289ABF014B185C0020704772500000D4
:102D1C0070B5494E3478012C054615D0022C33D0B1
:102D2C00002C40F08480FFF7EBF9222840F08280E1
:102D3C002846FFF7DFFF18B92846FFF749FF00E0E8
:102D4C00012000F0010070BDFFF7DAF922282846B7
:102D5C0005D1FFF7CFFF0028EED02046F1E7FFF7B3
:102D6C00CBFF40B9142D62D007D80B2D03D0102DFA
:102D7C00E9D1022333700120E5E7292D57D0A5F1C5
:102D8C00380358425841DEE75228F4D84A280FD865
:102D9C00232823D81D2823D8072836D01428EAD175
:102DAC00264B1A780120002A42D000221A70CAE75A
:102DBC004B380728DFD801A353F820F00F2E000062
:102DCC00832D0000832D0000132E0000832D0000A6
:102DDC00832D0000032E0000F72D00002928DEE7CC
:102DEC00FFF78CFF154B1870C5E70121134B1878B2
:102DFC00FFF79EFEBFE70121104B1878FFF7C0FECE
:102E0C00B9E70A21F2E70A21F6E70D4B06221A7000
:102E1C000C4B14221A700C4B04221A700B4B0A2206
:102E2C001A700B4B012018700A4B18708BE700209E
:102E3C00307088E7204686E76C1300206D13002065
:102E4C00040C0020050C0020060C0020070C0020B0
:102E5C000A0C00200B0C0020054B5A68054B5A60DD
:102E6C00202383F31188002383F31188704700BF5C
:102E7C00001000E0241200207047000038B5094C07
:102E8C00104622460D46002142F8041F40EA052058
:102E9C00194600F03FFA20606068002818BF2046F1
:102EAC0038BD00BF7013002090F8DA10074A0229D1
:102EBC00137807D103F0FB03012B05D1044B527897
:102ECC001A707047024A1370704700BFC613002077
:102EDC00A413002007B50346202282F311880A4868
:102EEC000278042A05D0002383F3118803B05DF81F
:102EFC0004FB8DF80430ADF80510032301AA022160
:102F0C0000F0CDFDEFE700BFD8150020022938B541
:102F1C0005460C4602D0052910D038BD202383F37A
:102F2C001188084A012100F068FD074A214628460D
:102F3C0000F063FD002383F31188EEE7BDE8384011
:102F4C00FFF723BB7C500000A050000070B5044676
:102F5C000648C3680D460BB100F056FB2B462146C4
:102F6C00034A0248BDE8704000F034BB90130020C7
:102F7C00812F000038B50446202383F31188037891
:102F8C00042B03D0002383F3118838BD124B1B781C
:102F9C00DB09F7D1114D2B78002BF3D0104B1B789C
:102FAC00002BEFD003899B0704D40E4A0823012180
:102FBC0000F075FD28780C4BA0FB03034FF47A72DC
:102FCC00002300F2E7300021FDF7A6FA214680002D
:102FDC00FFF7BCFFD6E700BF5C1300208C1300206A
:102FEC000C0C0020A5130020A086010038B590F829
:102FFC00D43003F07F02212A044678D113F0800FDD
:10300C0090F8D50028D002281ED0032811D0012812
:10301C006DD194F8D83043B9434AC4F8C820202263
:10302C00C4F8CC20C4F8D03038BD0023C4E9323306
:10303C00F8E7B4F8D830002B59D13C4AC4F8C82072
:10304C000120C4F8CC00EDE7394BC4F8C83001209E
:10305C00C4F8CC000023E5E70A283FD00B2810D099
:10306C00092844D194F8D830012B40D8314BC4F8FE
:10307C00C8300223C4F8CC302F4BC4F8D030012018
:10308C00D2E7B4F8D8302BBB94F8D650274B002D90
:10309C0014BF012100211970284B1A7861F3C71253
:1030AC001A7017D1224B1A78A2B1202282F3118800
:1030BC001878234BA0FB03034FF47A72002300F221
:1030CC00E7300021FDF728FA21468000FFF73EFF8C
:1030DC0085F311880023C4E93233CEE71749144B2A
:1030EC00097894F8D7201A70CD09F3D1DCE7B4F83D
:1030FC00D42040F281639A4201D0002094E76368A7
:10310C0094F8D6205D6894F8D710B4F8D8302046DF
:10311C00A8470028F1D04368C4F8C8300368C4F845
:10312C00CC300023A9E700BFA51300200C0C002015
:10313C008C130020C6130020B52E00005C13002059
:10314C00A0860100704700000F4B10B55B6B5B0352
:10315C0041BF0E4A92F8083103F0EF0382F80831B0
:10316C0004460B4800F09FFB0A49204600F031FC56
:10317C00064A92F8083143F0100382F80831064BE6
:10318C000022DA6010BD00BF008004400020074020
:10319C00F0490200C450000090130020014B187835
:1031AC00704700BFA413002038B50446202383F3D6
:1031BC0011881F4D2B78042B25D11E4A2B8992F98F
:1031CC000020002A23DA1C4A127802B35A0710D4C2
:1031DC00202322460221164800F061FC174B2246A0
:1031EC0004F1200152F8040B43F8040B8A42F9D184
:1031FC0009E06B6958694FF0FF310C3000F060FB4F
:10320C002B78042BE4D0002383F3118838BD9B0763
:10321C0003D4082322460121DDE72B6958694FF0BE
:10322C00FF310C3000F04CFB2B78042BEBD1F0E78A
:10323C00D81500205C1300200C0C0020A5130020D6
:10324C0010B52023044683F311880D4B1A78042AF9
:10325C0003D0002383F3118810BD1A89520708D5B7
:10326C005B6958694FF47A710C3000F029FB01301E
:10327C00EFD0034806232246022100F010FCE8E7B9
:10328C00D815002001460320FFF724BE0146042078
:10329C00FFF720BE70477047704708B5FFF7FAFF7D
:1032AC0000F086FEFFF7F7FF08BD08B500F082FEC0
:1032BC00FFF7F2FF08BD000010B500F04DFB00F069
:1032CC000DF9FDF738FF1148104CFFF73DFF41F2A7
:1032DC00883000F0E8FAFDF73AFF0D48FDF7D0FE14
:1032EC002378052B0AD0FDF73DFFF9E7FFF72BF903
:1032FC00FFF734F910B1204600F0E4FB2378052BDE
:10330C00F4D0FEF769FFFFF711FBECE7D8150020AE
:10331C00100C002010B5040A032C0FD007D8012C78
:10332C0021D0022C07D1144B3B20136010BD212C53
:10333C000DD0222C11D000200346F6E7C0B2032892
:10334C00F9D80E4B0E4953F82030085CEDE769B103
:10335C000129F0D10B4B0920E7E751B10129EAD142
:10336C00094BBC20E1E7094B1220DEE7084B092092
:10337C00DBE7084B4020D8E7E8500000D4500000B1
:10338C00E4500000135100001152000023510000C2
:10339C00FA50000035510000024B034A1A60034AF0
:1033AC005A607047DC130020181F00200000032017
:1033BC0070B50A4C2568431EA81801384E420B44C0
:1033CC00084462683040334003449A4203D39D4220
:1033DC0001D8236070BD0020FCE700BFDC13002087
:1033EC0008B5202383F31188FFF7E2FF002383F352
:1033FC00118808BD0448054B03600023C0E9013364
:10340C000C3000F074BA00BFE4130020ED33000060
:10341C0010B50024C0E90041C0E9022310BD002210
:10342C00FFF7C6BF38B5124C124D204600F05FFABC
:10343C00142104F110036018236104222B46FFF7BA
:10344C00E7FF04F12403636204F12803A36204225E
:10345C002B461C2104F12C00FFF7DAFF04F13C038E
:10346C00E36304F14003236404F14403636438BD53
:10347C00001400202B34000070477047FEE700005A
:10348C0070B5144C0825D4E9010223680146043BAD
:10349C008A4219D8D31C1B1AC11E23F003038A427B
:1034AC0038BF00231844E368DA1C121AC11E22F03C
:1034BC000302994288BF0022002101F05BFC013D10
:1034CC0004F11004DFD170BD53F8046F41F8046BA4
:1034DC00DEE700BFD0520000FEE7000010B51C4C28
:1034EC0000F0A4F800F068F8FFF756FFFFF782FF32
:1034FC00FFF798FF17498022204600F06BF9012353
:10350C0080F82030144B154AD96844F8180C21F473
:10351C00E0610904090C0A430024C461DA60D3F8A1
:10352C00FC200F4942F08072C3F8FC200A6842F07C
:10353C0001020A601022DA77202283F8222084F319
:10354C00118862B60748BDE8104000F077B900BF9B
:10355C00501500207053000000ED00E00003FA0548
:10356C00001000E058530000F8B5114CA26992F815
:10357C00233013B1013B82F82330A36A0D4D013384
:10358C00A362E369AB4206D09A68013A9A6020269E
:10359C00E3699A6802B1F8BD1968DF68DA604D60BA
:1035AC00E16182F311881869B84786F31188EFE757
:1035BC00201500203C150020054B03F11C02C3E92B
:1035CC0007224FF0FF325A6200229A62704700BF06
:1035DC002015002010B50B4CC0E90323E3699A6851
:1035EC008A420CD35A680360426010605860816054
:1035FC009A68511A99604FF0FF33636210BD1B68D3
:10360C00891AECE720150020036881689A680A443F
:10361C009A604268136003685A600023C360024BCF
:10362C004FF0FF325A62704720150020034B0022E6
:10363C00C3E90033C3E904339A60704720150020B6
:10364C00002380F820308268054B1B6899689142F2
:10365C00FBD25A680360426010605860704700BF2C
:10366C002015002008B5202383F3118890F8202022
:10367C000023072A07D8DFE802F00C060604130F14
:10368C000613426A13604FF0FF334362FFF7D8FF13
:10369C00002383F3118808BD426A93680133936059
:1036AC00D0E9003213605A60EDE70000002380F887
:1036BC0020308268054B1B6899689142FBD85A6888
:1036CC000360426010605860704700BF20150020F6
:1036DC00084B9969142281F82000186881F823207E
:1036EC0002681A6053609861012380F82030FCF75F
:1036FC00FFBE00BF2015002030B54B1C0B4D87B012
:10370C00044610D0AB690A4A01A8FFF763FF2046B4
:10371C00FFF7DEFF049B13B101A8FFF775FFAB6940
:10372C00586A07B030BDFFF7D3FFF8E7201500202B
:10373C007136000038B50C4D4162AB6981689A68EE
:10374C009142044603D8BDE83840FFF779BF1846CC
:10375C00FFF7ACFF01230146AC6184F82030204612
:10376C00BDE83840FCF7C4BE20150020084B1A6891
:10377C0090689A69936892F8232022B1984294BF7A
:10378C00002001207047984234BF00200120704770
:10379C002015002010B50E4C2368A0691A68226011
:1037AC0054600122A36183F8202093F8233053B98D
:1037BC00FFF746FF1423014680F82330A069BDE8CB
:1037CC001040FCF795BEFFF771FF0146F6E700BF0E
:1037DC00201500208260C2630022C0E90D22084A35
:1037EC000262084A8161516902614161086150615C
:1037FC0000F12802826200F12C02C0E90B22704712
:10380C000200011420150020D0E9012343F82C2CD0
:10381C00A3F16C0243F83C2C026943F86C2C42690E
:10382C0043F8682C044A016843F84C2CC268A3F195
:10383C004800FFF7CFBF00BF0D05000010B52023D7
:10384C0083F31188FFF7E0FF00210446FFF772FFB6
:10385C00002383F31188204610BD000038B50E4BB1
:10386C009C69606204F12805A06AA8420FD194F803
:10387C0022303BB994F821309B0702BFD4E90432C3
:10388C0013615A61BDE838400F20FFF721BF036870
:10389C00A362FFF7D5FEE7E720150020202383F372
:1038AC001188FFF7DBBF08B50146202383F311888D
:1038BC000820FFF721FF002383F3118808BD0000C7
:1038CC00054B9B6921B1036058620320FFF714BFBD
:1038DC004FF0FF30704700BF2015002003460068F2
:1038EC0020B100221A604162FFF7AABE7047002384
:1038FC00C0E9000083607047EFF30983203383F342
:10390C000988002383F311887047000010B5202329
:10391C0083F311880D4B5B6813F4006312D0EFF343
:10392C0009844FF0807344F8043CA4F1200383F322
:10393C000988FFF71BFF18B1054B44F8083C10BD74
:10394C00044BFAE783F31188F9E700BF00ED00E0C0
:10395C001D0500002005000008B500F04BFB0648D3
:10396C0000F07CFC00F00AF800F024F8FFF79DFC56
:10397C00BDE8084000F00BB88C53000000F01EBDF1
:10398C0001230370002343600C30FFF7B0BF00F03D
:10399C00BEBB10B5044690F8D63080F8DE3000F08F
:1039AC0053FE63681B6813B101212046984703231B
:1039BC00237010BD00F0AABD10B501230446782277
:1039CC0000F84C3B002101F0D5F90023C4E9013388
:1039DC0010BD10B52023044683F3118840224160AA
:1039EC0000210C3001F0C6F9204600F0A3FD0223A3
:1039FC002370002383F3118810BD70B500EB810395
:103A0C0005465069DA600E46144618B1142200219E
:103A1C0001F0B0F9A06918B11422002101F0AAF943
:103A2C0031462846BDE8704000F018BEF8B58368F2
:103A3C0003F001130446836000F1100500F14C06FD
:103A4C00002755F8043B7BB1586920B16FF0010198
:103A5C000C30FFF743FF55F8043C986920B16FF028
:103A6C0001010C30FFF73AFFB54245F8047CE8D170
:103A7C002046BDE8F84000F0F7BDF0B400EB81043F
:103A8C004789E4680125A4698D403D434581236045
:103A9C000023A2606360E360F0BC00F04BBEF0B4A6
:103AAC0000EB81040789E468012564698D403D437E
:103ABC00058123600023A2606360E360F0BC00F02A
:103ACC00ABBF000010B50378052B0FD1084C94F850
:103ADC00943043F0040384F89430C820FFF7E3FEDD
:103AEC0094F8943003F0FB0384F8943010BD00BFBD
:103AFC00002007402DE9F041022300260446037004
:103B0C00C0F8DC60866000F10C0500F14C074FF04A
:103B1C00200855F8043BABB188F3118855F8043CE8
:103B2C00586920B16FF001010C30FFF7D7FE55F842
:103B3C00043C986920B16FF001010C30FFF7CEFE08
:103B4C0086F31188BD4245F8046CE2D184F8C46058
:103B5C00204600F053FD63681B6823B1204600210A
:103B6C00BDE8F0411847BDE8F081F8B5037880F85E
:103B7C00E0300523037043681B6804460BB1042135
:103B8C00984704F10C0520264C34002755F8043BCB
:103B9C00ABB186F3118855F8043C586920B16FF02D
:103BAC0001010C30FFF79AFE55F8043C986920B1DE
:103BBC006FF001010C30FFF791FE87F31188A542DD
:103BCC00E4D1F8BD90F8E020436802701B680BB19B
:103BDC00052118477047000070B590F8C4300446B2
:103BEC0013B1002380F8C43004F1D402204600F055
:103BFC0075FD63689B68B3B994F8D43013F0600515
:103C0C0038D00021204600F035FF0021204600F07E
:103C1C0025FF63681B6813B10621204698470623CD
:103C2C0084F8C43070BD204698470028E4D0B4F81E
:103C3C00DA30D4F8CC209A4288BFC4F8CC3094F94E
:103C4C00D430D4F8CC50002B4FF0200380F2FA8003
:103C5C00002D00F0E980092284F8C42083F3118838
:103C6C000021D4E932232046FFF719FF002383F308
:103C7C001188D7E794F8D52003F07F0343EA022399
:103C8C0040F20232934200F0BC8024D8B3F5807F1E
:103C9C0050D010D8012B45D0022B00F08A80002B7D
:103CAC00AFD104F1DC02C4F8C8200222C4F8CC2045
:103CBC00C4F8D030BBE7B3F5817F00F08F80B3F54B
:103CCC00407F9ED194F8D630012B9AD1B4F8DC30D9
:103CDC0043F0020337E0B3F5006F3FD01AD8B3F5C9
:103CEC00A06F37D0A3F5C063012B8AD8636894F812
:103CFC00D6205E6894F8D710B4F8D8302046B04778
:103D0C0000283FF47EAF4368C4F8C8300368C4F899
:103D1C00CC301CE0B3F5106F26D040F60242934233
:103D2C007FF46FAF544BC4F8C8300223C4F8CC30C6
:103D3C000023BDE794F8D630012B7FF462AFB4F8C2
:103D4C00DC3023F00203C4E93255A4F8DC30C4F8AB
:103D5C00D0506CE7C4E93255484BA9E704F1DF03B6
:103D6C00C4F8C8300123D2E72378042B10D12023C8
:103D7C0083F311882046FFF759FE85F31188032140
:103D8C00636884F8DF5021701B680BB1204698479C
:103D9C0094F8D6304BB184F8DF3004232370636879
:103DAC001B6813B10221204698470023C4E9323323
:103DBC007EE794F8D8301D0603F00F0120460AD593
:103DCC0000F076FC012804D002287FF41AAF2C4BAB
:103DDC00A9E72C4BA7E700F055FCF3E794F8D63095
:103DEC00002B7FF40EAF94F8D83013F00F01DCD019
:103DFC001A06204602D500F04BFED6E700F03CFE3A
:103E0C00D3E794F8D630002B7FF4FBAE94F8D8307F
:103E1C0013F00F01C9D01B06204602D500F02AFE74
:103E2C00C3E700F01BFEC0E7142284F8C42083F320
:103E3C0011882B462A4629462046FFF71EFE85F39D
:103E4C001188EFE65DB1152284F8C42083F3118844
:103E5C000021D4E932232046FFF70FFE06E70B22A0
:103E6C0084F8C42083F311882B462A462946204621
:103E7C00FFF715FEE3E700BF8A5300009F390000EF
:103E8C00865300008853000038B590F8C4300446BF
:103E9C00002B40D0063BDAB20F2A35D80F2B33D883
:103EAC00DFE803F039323208233332323232323225
:103EBC0032323939D0F8CC50B0F8DA309D4214D2C5
:103ECC00C3681B8AB5FBF3F203FB12556DB92023B3
:103EDC0083F311882B462A462946FFF7E0FD85F32C
:103EEC0011880A2384F8C4300EE0142384F8C430FB
:103EFC00202383F3118800231A4619462046FFF726
:103F0C00BCFD002383F3118838BDD0F8D03003B149
:103F1C0098470023E6E70021204600F0ABFD002186
:103F2C00204600F09BFD63681B6813B106212046F8
:103F3C0098470623D6E710B590F8C430142B0446E6
:103F4C0029D017D8062B05D001D81BB110BD093BC1
:103F5C00022BFBD80021204600F08CFD00212046CE
:103F6C0000F07CFD63681B6813B10621204698475E
:103F7C0006231AE0152BE9D10B2380F8C43020233B
:103F8C0083F3118800231A461946FFF788FD002396
:103F9C0083F31188DAE7C3689B695B68002BD5D182
:103FAC00D0F8D03003B19847002384F8C430CDE763
:103FBC0000F028B8704700F1604303F56143090134
:103FCC00C9B283F80013012200F01F039A40430981
:103FDC009B0003F1604303F56143C3F880211A6031
:103FEC00704700F16040090100F56D40C9B20176DF
:103FFC0070470000024A136823F0010313607047F6
:10400C0000D00040344A4CF2205330B5D3814DF6E9
:10401C002813D3811388314D23F001031B041B0C8F
:10402C001380A2F5204289B0936B43F478539363C9
:10403C002B4BAA221A700FCD6C460FC495E80F00BB
:10404C0084E80F00274A00239364D36402F5E0321E
:10405C008A211170A2F58052A42151706A4652F83F
:10406C00041BB1F5007F03D00133082BF7D10723D4
:10407C00DB001D4A63F07F03DBB213709379990761
:10408C00FCD59379DB06FCD4174A937903F00C0327
:10409C00082BFAD1124B60225A70DA78802AFCD1A4
:1040AC00114B01221A715D225A719A7902F0600249
:1040BC00602AFAD10D4A0E4951644FF48030002128
:1040CC0091645060197002F5E032937903F00C039F
:1040DC000C2BFAD109B030BD00200540CC4E0000AD
:1040EC0000E007400090044000400640008004407F
:1040FC000000060208B5202383F31188FFF734FA79
:10410C00002383F31188BDE80840FFF7FFBB4FF095
:10411C00E02340F207725A6100229A6107221A6169
:10412C0008210B20FFF75DBF0069C84000F00100BB
:10413C00704700000123062A30B503FA01F34469E5
:10414C003D4D0CD12343A842436170D13B4B4FF4FE
:10415C0080724FE03A4B984208D13A4B11E024EA76
:10416C000303A8424361F5D1344B0AE0364B984225
:10417C003AD04033984239D0344C354BA04218BF1A
:10418C000023162A38D801A050F822F05B41000019
:10419C00134200005B410000074200000D4200008A
:1041AC00134200005B410000FD410000054200008D
:1041BC0005420000054200000542000005420000D7
:1041CC000542000005420000054200005B41000072
:1041DC00174200001D42000023420000294200004B
:1041EC002F420000354200001A4BCAE71A4BC8E7B1
:1041FC004FF4907243F8212030BD40F20312F9E7DE
:10420C004FF48172F6E70022F4E74FF40072F1E705
:10421C004FF44072EEE74FF48062EBE74FF4A0628C
:10422C00E8E74FF4C062E5E74FF4E062E2E7044BE5
:10423C0098429BD1034B8AE700F00F40009004405A
:10424C0040F00F4000A0044080F00F4000F10F4000
:10425C0000D0044000B0044000C004400C4AF8B543
:10426C00936B43F478539363051D00F526742F4626
:10427C000026F1B257F8042B55F8040C0136FFF761
:10428C0059FF202EF5D18435A542F0D1F8BD00BFE1
:10429C000080044010B5474C236C9A7892060AD5DE
:1042AC00DA78D00631D5A26842F00202A260DA7840
:1042BC0042F01002DA70226C917941F04001917158
:1042CC00917941F010019171DA7842F00202DA70C2
:1042DC00A36853B1202383F3118837486FF0010191
:1042EC00FFF7FCFA002383F3118894F83C4044B99F
:1042FC00202383F3118830482146FFF7EFFA84F32B
:10430C001188BDE81040FFF701BBDA781106D2D551
:10431C009A7894F83C10D2062CD50129A26815D1B4
:10432C00D978C80703D542F00402A260C3E7616ADA
:10433C0041B1D4E90A02824204D2501CE0628A5C88
:10434C001A71B8E7002284F83C20B4E70229B2D1F4
:10435C00D978C907E7D49A7802F0EF029A70626BA9
:10436C00012A9A788CBF02F0F70242F008029A7088
:10437C001A79A0E702299ED1D4E90D21012A08D986
:10438C00901E884298780CBF40F0080000F0F700AF
:10439C009870013A8A4206D19A7802F0CF029A704C
:1043AC00002284F83C20481CA063226B18795054DE
:1043BC0081E700BF94150020B015002010B5044C07
:1043CC002046FFF7DDFA0023E361024B236410BDA6
:1043DC009415002000600640064B1A783F2A00D93D
:1043EC00FEE7197804484A1CD2B21A7000EB81100F
:1043FC00704700BFC01E0020001A002000EB810097
:10440C002DE9F047C668B4690D46F4B1708A274FA0
:10441C00002363828C00030443F0880347F8343094
:10442C00C0B2FFF7D9FF07EB451344F00104586005
:10443C00708A030443F0C80347F83430C0B2FFF766
:10444C00CBFF07EBC404606008247369EBB14FEA3F
:10445C008508164F307C48F002094FF0000AA3F88B
:10446C0010A047F839A0FFF7B7FF07EBC90948F0D0
:10447C000308C9F8040047F838A0307CFFF7ACFFFC
:10448C0007EBC80744F004047860336803F00303B7
:10449C00012B02D044F001040BB144F01004044B86
:1044AC00303503F82540BDE8F08700BF0018002028
:1044BC000020074000EB8100F0B5C56868692B8AC5
:1044CC00047C44EA8101104C9A4241F0020128BF5D
:1044DC001A4604EBC105002393420FD1427C1B0406
:1044EC0043EA821343F0880344F83130037C82F0B2
:1044FC00010283F0010342740374F0BD8668F75C1B
:10450C006E68F7540133E7E70018002008B5074838
:10451C00FFF752FA064B5A6842F480225A60002286
:10452C009A645A6842F440325A6008BDD81500208B
:10453C00008004400378012B56D12C4B984253D168
:10454C0000232B4A194642F8331002EBC300013307
:10455C00102B4160F7D127498B6843F400038B6023
:10456C0001F580514B6B43F480234B63224B93F842
:10457C00441141F0020183F8441193F8401141F0C9
:10458C00800183F8401193F80C1141F0800183F8FD
:10459C000C1193F80C110906FBD4C2F3072183F814
:1045AC009C10C2F30741120E83F8B01083F8B420AC
:1045BC00FF2283F8802083F888201A7493F80C214A
:1045CC0042F0400283F80C21032283F8942000224D
:1045DC0083F8002193F8842042F0010283F88420B0
:1045EC0005213520FFF7E7BC704700BFD815002028
:1045FC000018002000700440002007400F4B70B5DD
:10460C000F4C00251D70022384F894300D4BC360B1
:10461C0006462946FFF7F2FEFF2384F8883084F81B
:10462C00803086F8DE5084F8985084F88C309F23C4
:10463C0084F88430012384F8943070BDC01E0020AF
:10464C00002007402056000090F8DE30024A03F0AC
:10465C007F0382F89830704700200740102901D85A
:10466C00FFF7CCBE70470000054A0123002003F180
:10467C0030010133102B02F82100F8D1704700BF34
:10468C00002007400F2911D8890001F1804101F564
:10469C00E42191F8C00010F0080008D091F8C03067
:1046AC0013F0020F0CBF022001207047002070474E
:1046BC000F2911D8890001F1804101F5E42191F80D
:1046CC00C00010F0040008D091F8C03013F0020FB5
:1046DC000CBF0220012070470020704700EB8100C6
:1046EC00F0B5C368124D9C69A37C8E0043EA81012E
:1046FC0005EBC10C0023DCF80470FF5CD7540133CC
:10470C00082BF8D1C068438A1B0443F0880245F893
:10471C003120E27C3AB1A27C82F00102324343F0B8
:10472C00C80345F83230426901235374E374F0BD79
:10473C000018002000EB8100C36899690A683AB13F
:10474C00588A1318013BB3FBF0F39BB20B827047F2
:10475C000123FBE700EB81032DE9F041DE68DFF874
:10476C0050C0B469738AA57C9A4245EA810528BF7A
:10477C001A460CEBC50E002393420FD1E27C768ACD
:10478C00930143EA064343F0880382F001024CF89C
:10479C003530E274BDE8F041FFF7CCBFDEF80470B1
:1047AC0017F80380A76807F803800133E4E700BF1C
:1047BC00001800202DE9F047944C94F880305F07E6
:1047CC00DDB207D592484368DB6803B198470423F0
:1047DC0084F880308D4F8E4C2E070DD4EC0740F1B1
:1047EC00DF808B48FFF786F9884B012283F8802005
:1047FC00BDE8F047FFF78AB897F890301E0906F12C
:10480C00020804EB8802C3F38005C3F3C00145EA38
:10481C008605D2F8049045EA41059A0829B9D9F8D9
:10482C00181011B102F001038B74DFF8E8A15AF8EB
:10483C003520C2F38303092B5CD00D2B44D0012B04
:10484C0051D1D9F81830002B4DD0C2F30945202393
:10485C0083F311882A4631462046FFF77BFF00235D
:10486C0083F31188002D3ED0D9F818309A682A4469
:10487C009A605A682A445A601A68521B1A601A8A3B
:10488C00013A92B21A82B9F81230AB4200D852BB3C
:10489C00D9F80C303BB3012303FA06F2638923EAFF
:1048AC000203638104EB88035B68DB6813B1314658
:1048BC0020469847202383F3118804EB8808D8F806
:1048CC0004309869416867E0638923F001036381D0
:1048DC003146D9F804302046984797F8943003F0C5
:1048EC00DF0387F89430082387F8803097F88050DE
:1048FC00EDB271E7D9F81430002BF4D08EB9B4F8BE
:10490C00D430052B0DD194F8D63084F8DE30204607
:10491C00FFF79AFE63681B680BB1012198470323CC
:10492C002370D9F814305AF8352058681968C2F336
:10493C00094210448842586012D299680A449A601D
:10494C00202383F31188D9F81430D3E9002331469E
:10495C00D21A2046FFF7AEFD002383F31188C2E77D
:10496C00D9F80830002BBED0012303FA06F22389B4
:10497C0023EA0203238104EB88035B689B6813B171
:10498C00314620469847202383F3118804EB88088E
:10499C000021D8F8043058690C30FEF79FFFDBE794
:1049AC00280642BF194B802283F88020A90708D51E
:1049BC00164B93F88820D2B283F88820022283F811
:1049CC008020EA0610D512480378042B08D1FFF793
:1049DC00CCF80E4A92F8843043F0200382F88430ED
:1049EC000A4B102283F88020AB067FF501AF074CF1
:1049FC00074894F8843003F0DF0384F88430FFF721
:104A0C00E1F8202384F88030F2E600BF0020074054
:104A1C00D81500200018002070B4A1B990F8C4304B
:104A2C000B2B10D1C3680C4D9C695B8AA27CE17482
:104A3C001B0443F0C80645F8326082F0010243F0D3
:104A4C00880345F8323000EB810370BCDB685B698E
:104A5C001A68FFF72FBD00BF00180020890001F174
:104A6C00804101F5E42191F8C03043F0020381F854
:104A7C00C0307047FFF7F2BF890001F1804101F5AA
:104A8C00E42191F8C03003F0FD0381F8C030704789
:104A9C00FFF7F2BF2DE9F04F07468C460846099EFA
:104AAC0015463C461946002B40F0C6808242B2FAAD
:104ABC0082F746D94FB1C7F1200E24FA0EFE00FA48
:104ACC0007F3BD404EEA030CBC404FEA15481FFAF1
:104ADC0085FEBCFBF8F9220C08FB19C309FB0EFA86
:104AEC0042EA03439A4528D9EB1809F1FF3004D266
:104AFC009A4502D9A9F102002B44A3EB0A03A4B2F4
:104B0C00B3FBF8F208FB123302FB0EFE44EA03443B
:104B1C00A64514D92C1902F1FF3303D2A64501D9AD
:104B2C00931E2C44A4EB0E0443EA00401EB1FC403F
:104B3C00002334607360BDE8F08F4846DDE7134610
:104B4C00F0E702B9FFDE87BB831A01214FEA154E4D
:104B5C00AAB2B3FBFEFC200C0EFB1C330CFB02F8C0
:104B6C0040EA0343984563D9EB180CF1FF3004D2AB
:104B7C00984502D9ACF102002B44A3EB0803A4B274
:104B8C00B3FBFEFC0EFB1C330CFB02F244EA0344A9
:104B9C00A2424FD92C190CF1FF3304D2A24202D9F4
:104BAC00ACF102032C44A41ABEE7C7F1200C20FA86
:104BBC000CF800FA07F324FA0CFCBD404CEA030293
:104BCC004FEA154EABB2B8FBFEFC110C0EFB1C8071
:104BDC000CFB03F941EA0040814504FA07F423D9A0
:104BEC0028180CF1FF3104D2814502D9ACF1020135
:104BFC002844A0EB090092B2B0FBFEFC0EFB1C009B
:104C0C000CFB03F842EA004398450FD9EB180CF162
:104C1C00FF3204D2984502D9ACF102022B44A3EB2B
:104C2C00080342EA014191E76146E2E76246F6E792
:104C3C006046A2E76346B6E7834205D90EB1C6E9E2
:104C4C0000700021084676E7B3FA83F181B98342FC
:104C5C0001D3BA420AD8BC1A60EB030301209C466C
:104C6C00002E68D0C6E9004C002164E70846F7E73F
:104C7C00C1F1200C8B4022FA0CF41C4302FA01F512
:104C8C0000FA01F327FA0CF220FA0CFB4FEA144954
:104C9C001343BBFBF9F81FFA84FE09FB18BB1A0C73
:104CAC0008FB0EFA42EA0B42924507FA01F73ED98D
:104CBC00A21808F1FF3004D2924502D9A8F10200E3
:104CCC002244A2EB0A029BB2B2FBF9F809FB1822B0
:104CDC0008FB0EFE43EA024296452AD9A21808F1B7
:104CEC00FF3304D2964502D9A8F10203224443EAC9
:104CFC000040A0FB0593A2EB0E029A42CE469846CA
:104D0C0002D306D14F4504D2B9EB050E63EB040870
:104D1C00013886B1B7EB0E0362EB080707FA0CFCFF
:104D2C00CB404CEA0303CF40C6E900379CE7404632
:104D3C00C7E74346DBE73146FDE6000000230146AA
:104D4C001A46184600F066B838B5084B084D5B1B80
:104D5C009C1007D0043B1D44013C55F8043998477E
:104D6C00002CF9D1BDE8384000F0A8B81C040000B4
:104D7C0018040000F0B4860746D0541E002A3CD01C
:104D8C00CAB2034601E0013C37D303F8012B9D075F
:104D9C00F9D1032C2AD9CDB245EA05250F2C45EAC9
:104DAC00054534D9A4F1100222F00F0C03F12007B1
:104DBC001609674403F1100242E9045542E9025511
:104DCC001032BA42F8D1721C14F00C0F03EB021221
:104DDC0004F00F0613D0331F23F0030304331344E2
:104DEC0042F8045B9342FBD106F003042CB1CAB227
:104DFC001C4403F8012B9C42FBD1F0BC7047344699
:104E0C001346002CF3D1F8E714460346C1E71A46C3
:104E1C002646E0E72DE9F047DFF87CA00646DAF8F5
:104E2C00000098460F46914600F042F8194B1B685B
:104E3C00D3F8484124B36568DAF800001F2D24DC50
:104E4C004EB9AB1C0135656044F8237000F032F8A4
:104E5C000020BDE8F08704EB85030122C3F888909D
:104E6C00D4F88811AA401143022EC4F88811C3F853
:104E7C000881E6D1D4F88C311A43C4F88C21E0E7D0
:104E8C0003F5A674C3F84841D5E700F013F84FF0CA
:104E9C00FF30DEE74456000050100020024B13B1E7
:104EAC000248FFF74BBF704700000000554D000053
:084EBC00704700BF704700BF02
:044EC400F8B500BF7E
:044EC800F8B500BF7A
:104ECC0020000000400000008000000000010000F5
:104EDC0000020000000400000005000000060000B5
:104EEC002E002B003900E1000000000000001E0025
:104EFC00140004001D003500000000001F001A0003
:104F0C0016001B0049004D0000002000080007009F
:104F1C00060050004A002A00210015000900190063
:104F2C00000000004C00220017000A0005004F0092
:104F3C00E200E00023001C000B00110052002C00CA
:104F4C004E00240018000D00100000002800000086
:104F5C0025000C000E0036005100E4004B0026002A
:104F6C0012000F0037002F000000E700270013008D
:104F7C00330038003000000000002D0031003400F8
:104F8C00E50000000000000029003C003F0042004A
:104F9C004500480000003A003D0040004300460038
:104FAC001E0000003B003E00410044004700C000D2
:104FBC000000E200E900EA00B500B600B700CD0041
:104FCC008301CC008A019201940121022302240264
:104FDC002502260227022A02B300B4006F007000DB
:104FEC0040F03F40C0F01F4080F00F40C0F05F40E9
:104FFC0080F01F4040F02F40C0F04F40C0F03F40C9
:10500C0080F03F4080F04F4080F06F40C0F02F4068
:10501C0040F00F40C0F07F4000F0CF4000F0DF4088
:10502C0040F01F4140F00F41C0F00F4040F01F40D6
:10503C0080F02F40C0F06F40E200E900EA00B500BC
:10504C00B600B700CD008301CC008A019201940117
:10505C002102230224022502260227022A02B3007F
:10506C00B4006F0070000102030405060708090074
:10507C000300000000000000852E0000000000006E
:10508C00080000007813002000000000020000005F
:10509C00000000000300000000000000513100007F
:1050AC000000000020000000C813002000000000D9
:1050BC000200000000000000192F0000892E0000E3
:1050CC00F92F0000652E0000755100007951000089
:1050DC00BB5100000B52000004404E0409023B007F
:1050EC00020100A0FA0904000001030101000921DA
:1050FC001101000122400007058103080001090489
:10510C000100010300000009211101000122BC0073
:10511C000705820320000112011001000000400964
:10512C00125C3401000102030105010906A101050D
:10513C000719E029E71500250195087501810295ED
:10514C0001750881010507190029FF150026FF00CC
:10515C009506750881000508190129059505750145
:10516C009102950175039101C004030904400322C7
:10517C0000680074007400700073003A002F002F58
:10518C00006700690074006800750062002E0063FF
:10519C00006F006D002F00730074006100700065DB
:1051AC00006C006200650072006700220000004E77
:1051BC00032200680074007400700073003A002F22
:1051CC00002F006700690074006800750062002EF3
:1051DC000063006F006D002F006B0069006E00789B
:1051EC00002D00700072006F006A0065006300748F
:1051FC00002F006B0069006E007400220000000498
:10520C00033000000005010902A10185020901A17A
:10521C000005091901290515002501950575018160
:10522C0002950175038101050109300931158125AC
:10523C007F95027508810609381581257F950175C2
:10524C00088106050C0A38021581257F9501750821
:10525C008106C0C005010980A101850319012AB787
:10526C0000150126B700950175108100C0050C09C9
:10527C0001A101850419012AA002150126A002959D
:10528C000175108100C005010906A10185050507FE
:10529C0019E029E71500250195087501810205071C
:1052AC00190029EF1500250195F0750181020508FB
:1052BC001901290595057501910295017503910157
:1052CC00C0000000A45A00000000FF1F0000FF1FD8
:1052DC000000FF1FA45A0000181F0020181F0020F8
:1052EC00181F0020A45A0000000000140000001435
:1052FC0000000014A45A0000000000000000000090
:10530C0000000000A45A0000000000000000000093
:10531C0000000000A45A0000000000000000000083
:10532C0000000000A45A0000000000000000000073
:10533C0000000000A45A0000000000000000000063
:10534C000000000069646C65000000005053000010
:10535C00481400202015002001000000E534000056
:10536C00000000006D61696E0016033004044408EF
:10537C000C1014181C202122230000000100000036
:10538C0000F00F40160000000100000001000000BA
:10539C0016000000010000000600000001000000E3
:1053AC0001000000010000000100000001000000ED
:1053BC0001000000060000000600000006000000CE
:1053CC0006000000060000000600000005000000BA
:1053DC0005000000010000000100000001000000B9
:1053EC0001000000010000000100000006000000A8
:1053FC000100000006000000060000000100000093
:10540C000100000040F00F40060000000600000004
:10541C000600000006000000060000000600000068
:10542C00010000000100000001000000010000006C
:10543C000600000006000000010000000100000052
:10544C00010000000100000012000000120000002A
:10545C000600000006000000060000000600000028
:10546C000600000006000000010000000100000022
:10547C00010000000100000001000000010000001C
:10548C00010000000100000080F00F400600000049
:10549C0006000000060000000600000006000000E8
:1054AC0006000000060000000600000006000000D8
:1054BC0006000000060000000600000001000000CD
:1054CC0001000000010000000100000001000000CC
:1054DC0001000000010000000100000001000000BC
:1054EC0001000000010000000100000001000000AC
:1054FC00010000000100000001000000010000009C
:10550C00010000000100000001000000C0F00F408D
:10551C000600000006000000060000000600000067
:10552C000600000006000000060000000600000057
:10553C00060000000600000001000000060000004C
:10554C000600000006000000060000000600000037
:10555C00010000000100000001000000010000003B
:10556C00010000000100000001000000010000002B
:10557C00010000000100000001000000010000001B
:10558C00010000000100000001000000010000000B
:10559C0000F10F4013000000130000001300000086
:1055AC0013000000130000001300000006000000B0
:1055BC0001000000010000000100000006000000D6
:1055CC0006000000010000000100000001000000C6
:1055DC0001000000010000000100000001000000BB
:1055EC0001000000010000000100000001000000AB
:1055FC00010000000600000006000000060000008C
:10560C00010000000100000001000000010000008A
:10561C000100000000000000E53B0000953E00008A
:10562C00433F000040004000C41E0020D81E002054
:0C563C0001000000EC1E0020280C0020E3
:0856480058F4FF7F010000008F
:10565000321300200614040A1E6401010100000038
:10566000A9310000B53100004D3200009132000038
:10567000993200000000000000000000140F00201C
:105680007C0F0020E40F002000000000000000005C
:10569000000000000000000000000000000000000A
:1056A00000000000000000000000000000000000FA
:1056B00000000000000000000000000000000000EA
:1056C00000000000000000000000000000000000DA
:1056D00000000000000000000000000000000000CA
:1056E00000000000000000000000000000000000BA
:1056F00000000000000000000000000000000000AA
:105700000000000000000000000000000000000099
:105710000000000000000000000000000000000089
:1057200001000000000000000E33CDAB34126DE626
:10573000ECDE05000B00000000000000000000008F
:105740000000000000000000000000000000000059
:105750000000000000000000000000000000000049
:105760000000000000000000000000000000000039
:105770000000000000000000000000000000000029
:045AA000F41E0020D0
:04000003000004F500
:00000001FF
