:0200000460009A
:100000004643464200000156000000000103030081
:1000100000000000000000000000000000000000E0
:1000200000000000000000000000000000000000D0
:1000300000000000000000000000000000000000C0
:1000400000000000010408000000000000000000A3
:100050000000800000000000000000000000000020
:100060000000000000000000000000000000000090
:100070000000000000000000000000000000000080
:10008000EB04180A063204260000000000000000FD
:10009000050404240000000000000000000000002F
:1000A0000000000000000000000000000000000050
:1000B0000604000000000000000000000000000036
:1000C0000000000000000000000000000000000030
:1000D00020041808000000000000000000000000DC
:1000E0000000000000000000000000000000000010
:1000F0000000000000000000000000000000000000
:10010000D8041808000000000000000000000000F3
:100110000204180804200000000000000000000095
:1001200000000000000000000000000000000000CF
:10013000600400000000000000000000000000005B
:1001400000000000000000000000000000000000AF
:10015000000000000000000000000000000000009F
:10016000000000000000000000000000000000008F
:10017000000000000000000000000000000000007F
:10018000000000000000000000000000000000006F
:10019000000000000000000000000000000000005F
:1001A000000000000000000000000000000000004F
:1001B000000000000000000000000000000000003F
:1001C000000100000010000001000000000000001D
:1001D000000001000000000000000000000000001E
:1001E000000000000000000000000000000000000F
:1001F00000000000000000000000000000000000FF
:10020000FFFFFFFFFFFFFFFFFFFFFFFFFFFFFFFFFE
:10021000FFFFFFFFFFFFFFFFFFFFFFFFFFFFFFFFEE
:10100000D100204000180060000000000000000037
:1010100020100060001000600000000000000000D0
:0C1020000000006000001F000000000045
:10102C00FFFFFFFFFFFFFFFFFFFFFFFF7EFFFFFF45
:1014000000040020E9180060EB180060EB18006091
:10141000EB180060EB180060EB180060EB18006040
:10142000EB180060EB180060EB180060AF52006032
:10143000EB180060EB180060EB180060716600604C
:10144000EB180060EB180060EB180060EB18006010
:10145000EB180060EB180060EB180060EB18006000
:10146000EB180060EB180060EB180060EB180060F0
:10147000EB180060EB180060EB180060EB180060E0
:10148000EB180060EB180060EB180060EB180060D0
:10149000EB180060EB180060EB180060EB180060C0
:1014A000EB180060EB180060EB180060EB180060B0
:1014B000EB180060EB180060EB180060EB180060A0
:1014C000EB180060EB180060EB180060EB18006090
:1014D000EB180060EB180060EB180060EB18006080
:1014E000EB180060EB180060EB180060EB18006070
:1014F000EB180060EB180060EB180060EB18006060
:10150000EB180060EB180060EB180060EB1800604F
:10151000EB180060EB180060EB180060EB1800603F
:10152000EB180060EB180060EB180060EB1800602F
:10153000EB180060EB180060EB180060EB1800601F
:10154000EB180060EB180060EB180060EB1800600F
:10155000EB180060EB180060EB180060EB180060FF
:10156000EB180060EB180060EB180060EB180060EF
:10157000EB180060EB180060EB180060EB180060DF
:10158000EB180060EB180060EB180060EB180060CF
:10159000EB180060EB180060EB180060EB180060BF
:1015A000EB180060EB180060EB180060EB180060AF
:1015B000EB180060EB180060EB180060EB1800609F
:1015C000EB180060EB180060EB180060EB1800608F
:1015D000EB180060EB180060EB180060EB1800607F
:1015E000EB180060EB180060EB180060EB1800606F
:1015F000EB180060EB180060EB180060EB1800605F
:10160000EB18006025680060EB180060EB180060C4
:10161000EB180060EB180060EB180060EB1800603E
:10162000EB180060EB180060EB180060EB1800602E
:10163000EB180060EB180060EB180060EB1800601E
:10164000EB180060EB180060EB180060EB1800600E
:10165000EB180060EB180060EB180060EB180060FE
:10166000EB180060EB180060EB180060EB180060EE
:10167000EB180060EB180060EB180060EB180060DE
:10168000EB180060EB180060EB180060EB180060CE
:10169000EB180060EB180060EB180060EB180060BE
:1016A000EB180060EB180060EB180060EB180060AE
:1016B000EB180060EB180060EB180060EB1800609E
:1016C000000000000000000000000000000000001A
:1016D000000000000000000000000000000000000A
:1016E00000000000000000000000000000000000FA
:1016F00000000000000000000000000000000000EA
:1017000000000000000000000000000000000000D9
:1017100000000000000000000000000000000000C9
:1017200000000000000000000000000000000000B9
:1017300000000000000000000000000000000000A9
:101740000000000000000000000000000000000099
:101750000000000000000000000000000000000089
:101760000000000000000000000000000000000079
:101770000000000000000000000000000000000069
:101780000000000000000000000000000000000059
:101790000000000000000000000000000000000049
:1017A0000000000000000000000000000000000039
:1017B0000000000000000000000000000000000029
:1017C0000000000000000000000000000000000019
:1017D0000000000000000000000000000000000009
:1017E00000000000000000000000000000000000F9
:1017F00000000000000000000000000000000000E9
:08180000001020208D61006042
:1018100072B6264880F30888254880F30988254851
:1018200025490860022080F31488BFF36F8F03F00E
:10183000DBFA03F01DFA4FF0553020491B4A914264
:101840003CBF41F8040BFAE71D49194A91423CBFDD
:1018500041F8040BFAE71B491B4A1C4B9A423EBF56
:1018600051F8040B42F8040BF8E700201849194A14
:1018700091423CBF41F8040BFAE703F0F3FA04F09D
:1018800091F8154C154DAC4203DA54F8041B884707
:10189000F9E701F023FF124C124DAC4203DA54F881
:1018A000041B8847F9E703F0DBBA000000040020BE
:1018B000000C00200014006008ED00E00000002093
:1018C000000400205C940060000C00203C0D00200F
:1018D000001000206C20002008180060081800602C
:1018E000081800600818006092E700F000F8FEE7B2
:1018F0002DE9F04FC1F80CD0D0F80CD0BDE8F08F36
:10190000002383F311882846A047002003F0A6FC9B
:10191000FEE703F0FDFB00DFFEE7000053B94AB924
:10192000002908BF00281CBF4FF0FF314FF0FF30E7
:1019300000F00CB8ADF1080C6DE904CE06F065F9C5
:10194000DDF804E0DDE9022304B07047704700BF12
:1019500001F0FF01102A2BDB10F0070F08D010F860
:10196000013B013A8B422DD010F0070F42B3F6D164
:10197000F0B441EA012141EA014122F007047FF07D
:1019800000070023F0E80256083C85EA010586EAD4
:10199000010685FA47F5A3FA87F586FA47F6A5FA10
:1019A00087F68EB9EED1F0BC01F0FF0102F007021C
:1019B00032B110F8013B013A83EA010313B1F8D1C7
:1019C0000020704701387047002D06BF35460338A8
:1019D000073815F0010F07D1013015F4807F02BFE1
:1019E000013015F4C03F0130F0BC0138704700BF32
:1019F00010B5074C01F0E0FC204606220D2104F052
:101A00005DFC20460122BDE810400D2104F048BCD9
:101A100000400042044A506842F6DF6153681B1AD6
:101A20008B42FBD9704700BF001000E001207047D7
:101A30000120704708B5FFF7FBFF08BD704708B5E8
:101A4000FFF7FCFF08BD000013B502AB03E903007C
:101A50000F4B1B78B3B99DF8023073B16AB100F037
:101A6000ADFD04460146009800F074FD0099204643
:101A700002B0BDE8104001F077BB009800F086FD91
:101A80000446F3E7009800F099FD0099F0E700BFE5
:101A900001100020034610B400885C880A4640EA22
:101AA0000440998810BCFFF7CFBF0120704710B5E4
:101AB00000210446FFF7EEFF2146FFF7C0FF10BDEF
:101AC000FFF796BF01F07ABC704708B500F058FCEC
:101AD000FFF7FAFFBDE8084040F6C41003F0C3BBAF
:101AE00008B5FFF7F2FFBDE8084002F005BE08B5F3
:101AF000FFF7EBFFBDE8084002F005BE38B5012155
:101B00000546FFF7C7FF29460446FFF793FF88B352
:101B10002946204602F0B8FB60B32946204602F071
:101B2000E1F838B32946204602F024FB10B3AB7825
:101B30007BB145F65C539C4227D00ED845F6DF4377
:101B40009C4219D045F65B539C421BD0B4F5B84F6C
:101B50000ED02846FFF76AFF0DE045F65D539C4224
:101B60000DD045F6A8539C42F3D1FFF7C0FF01E02A
:101B7000FFF7B6FF002038BD01F078F9F5E701F076
:101B8000E1F8E6E701F0EAF8E3E701F0EAF8E0E778
:101B900008B502F01AFDBDE8084000F07BB808B5B2
:101BA00000F07DF8BDE8084002F014BD704708B5AC
:101BB000FFF7FCFF08BD01207047000038B5C4B234
:101BC000FFF7F9FF054620B3E243D4B212F0010259
:101BD00018BF01221A214FF0844004F061FB14F079
:101BE00002020D4818BF01220C2104F059FB14F029
:101BF000040218BF012219214FF0844004F050FB69
:101C000014F0080218BF012218214FF0844004F09C
:101C100047FB284638BD00BF0040004210B50622F1
:101C2000174C1A214FF0844004F048FB01221A217E
:101C30004FF0844004F034FB204606220C2104F0CF
:101C40003DFB204601220C2104F02AFB062219212B
:101C50004FF0844004F032FB012219214FF0844000
:101C600004F01EFB062218214FF0844004F026FBEE
:101C7000BDE81040012218214FF0844004F010BB51
:101C80000040004210B50446FFF791FF2046FFF7E1
:101C900095FF10BD08B50020FFF7F4FF08BD08B59B
:101CA00002F050FBFFF7EEFF08BD000008B502F0A0
:101CB00049FB044A1178814202D01070FFF7E2FF1D
:101CC00008BD00BF0010002030B587B06C4684E826
:101CD00003009DF80230BDF804500BB100F074FF12
:101CE0000023ADF8163094E8030004AC0490ADF87E
:101CF000141094E8030002904DB1BDF808204FF68F
:101D0000FF739A4203D02046FFF7CFFE18B194E844
:101D1000030000F08DFE07B030BD008800F06EBCFF
:101D200010B5044600287AD0822813D102F00AFBAD
:101D3000810774D4392000F0EBFE00F075FF4FF4FA
:101D40007A7003F090FA392000F0EAFEBDE8104006
:101D500000F06ABF83280ED102F0F4FAC2075ED405
:101D6000532000F0D5FE00F05FFF4FF47A7003F0CF
:101D70007AFA5320E8E784280ED102F0E3FA430709
:101D80004DD4472000F0C4FE00F04EFF4FF47A70AF
:101D900003F069FA4720D7E7031FDBB2A02B12D864
:101DA00002F026F900283AD11D4B2146186802F0AE
:101DB0002FFB20B1204600F0B3FE00F035FF204697
:101DC00000F0A6FEC2E700F12003DBB2072B07D824
:101DD00000F007040120A040C0B200F0CFFEB5E73C
:101DE00000F15B03DBB2022B05D82438BDE81040BC
:101DF00080B202F0D1BA00F15803DBB2162B06D83C
:101E0000084ABDE8104032F8130002F0D5BAEC28B9
:101E100005D901F0D9FCBDE8104001F0B3BD10BDFB
:101E2000000C0020BE8E006008B5002858D0822823
:101E30000FD102F087FA810752D5392000F068FEF1
:101E400000F0F2FE392000F06BFEBDE8084000F023
:101E5000EBBE83280AD102F075FAC20740D55320A1
:101E600000F056FE00F0E0FE5320ECE784280AD193
:101E700002F068FA430733D5472000F049FE00F02E
:101E8000D3FE4720DFE7021FD2B2A02ADBD900F140
:101E90002002D2B2072A07D800F007030120984099
:101EA000C0B200F073FED0E700F15B02D2B2022AAA
:101EB00004D8BDE80840002002F06EBA00F15802D4
:101EC000D2B2162A04D8BDE80840002002F074BA45
:101ED000EC2805D901F0CAFCBDE8084001F052BD6C
:101EE00008BD38B505460C46FFF71AFF1CB9284651
:101EF000FFF79AFF38BD0A20013C03F0B4F9A4B201
:101F0000F4E708B539280CBF50210021FFF7E9FF9D
:101F100008BD08B528B100F031FEBDE8084000F06A
:101F200083BE08BD08B528B100F030FEBDE808400A
:101F300000F07ABE08BD00002DE9F8438779857866
:101F400081460C4600F00AFE3F090646C8B12E46FF
:101F5000BDB1C4F3072303F0F003402B04D004F118
:101F60002003DBB2072B1ED9A04B5E7816F00406C7
:101F700007D0022000F0B2FE00F0F0FD80F0010674
:101F8000F6B2C4F303330B2B5FD8DFE813F00E0077
:101F90000E003B003B00B100C8005E005E00D200B6
:101FA0003101430143010026EBE7C4F30723C4F3E7
:101FB00003270F2B88BF3F01E4B285B157B104F16D
:101FC0002003DBB2072B384600D92CB900F0D6FD30
:101FD00000F02AFE204636E000F0E6FDF8E7204655
:101FE000FFF722FF8FB304F12003DBB2072B384643
:101FF00000D914B900F0CAFD01E000F0DDFD00F0E9
:1020000013FE22E0C4F3072303F0F003C4F3032814
:10201000202BE4B218BF4FEA081834B1012C52D07B
:10202000002D58D0002F51D0D4E7704B5B78580763
:102030002BD415B3B8F1000F04D0404600F09EFD3C
:1020400000F0F2FD0020FFF76BFE002E00F03E8155
:1020500000F07CFD10F0010040F0388189F80200AA
:1020600000F06CFD00F010FA484600F045F900F071
:1020700065FDBDE8F84300F011BA2846FFF7D4FE2D
:10208000B8F1000FE1D04046B4E795B13FB900F098
:10209000A1FD40EA0800C0B2FFF73BFFD5E7012FE2
:1020A000F5D100F097FD40EA0800C0B200F09EFDB7
:1020B000CBE72FB900F0ACFD4046FFF733FFC4E794
:1020C000012FC2D0F6E71DB1052FBED84046E3E789
:1020D000042FBAD8F0E7002FEED0392C0CBF4FF404
:1020E0004870012003F0BFF82046FFF79DFEACE7E3
:1020F00014F4406FC4F3812307D0012BA5D165B13F
:10210000C4F3090002F058F99FE725B1C4F30900B0
:1021100002F042F999E72846FAE72846F2E7E0B2EA
:1021200025B101F051FB01F02DFC8EE701F09EFB83
:10213000F9E714F4407F29D1D5B9C4F34213E1067D
:102140004FEA830348BF0F25DBB248BF9D4004F030
:102150000F02C4F3812448BFED439A40022C45EAA4
:1021600002000DD0032C0ED0012C06D000F062F935
:1021700002F0E8F8FFF786FD67E700F053F9F7E7AC
:1021800000F060F9F4E700F04AF9F1E7C4F3012246
:10219000FDB1D207ECD5C4F3421314F010004FEA9E
:1021A0008303DBB21CBF0F20984004F00F02C4F37E
:1021B000812402FA03F214BFC3430346022C43EA0C
:1021C00002000CD0032C0DD0012C05D000F082F9B8
:1021D000CEE7012ACCD9DEE700F074F9C8E700F0B9
:1021E00081F9C5E700F03CF9C2E700BF101F0020ED
:1021F000E7B2C4F3032435B1204600F045F9384670
:10220000FFF787FEB4E73846FFF78CFE204600F064
:1022100045F9ADE75FFA84F8A8F1F003042B3CD848
:10222000DFE803F003210D141D0035B1042F9FD802
:10223000C4F3042000F03CF99AE7052FF7E7C4F354
:102240000420002DE3D100F01FF991E725B1C4F37C
:10225000042000F014F98BE700F00EF988E71C4B1E
:102260005B785B0704D4C4F30420002DCFD0EAE7E9
:102270004DB1C4F30424204600F006F903212046A2
:1022800000F008FD74E7012000F028FD012F7FF623
:102290006FAF022000F022FD6AE73DB11FB140465A
:1022A000FFF73EFD64E7C4F30420CCE75FB1B8F16B
:1022B000390F0CBF4FF44870012002F0D4FF4046A4
:1022C000FFF7B2FD54E7C4F30420A0E7BDE8F883AC
:1022D000101F002038B501880446807800F09AF974
:1022E000054600F007F900F099F829462046BDE8B8
:1022F0003840FFF721BE000013B504460146062210
:10230000684605F021FEA388F3B1BDF800204FF622
:10231000FF739A4218D02046FFF7F0FB70B900F027
:102320001DFC88B1A3787BB1084B5B785B070BD5AC
:10233000022002B0BDE8104000F0D0BC2046FFF7FC
:10234000C9FF2046FFF7B3FB02B010BD101F0020ED
:1023500008B5002002F020F8002002F02DF800F06F
:1023600033FC00F061FC01F029FBBDE8084001F0FE
:1023700009BB08B500F0DCFBBDE80840FFF7E8BF8B
:1023800008B500F00BFCBDE80840FFF7F2BFC0F352
:102390000333062BC2B213D094BF0E33063303F0BF
:1023A0000F03012B10D8F02A10D004D8E72A8CBFD5
:1023B000002001207047F42A14BF0020012070473C
:1023C000E72A03D9F12AF7E7002070470120704778
:1023D00008B5008800F012F9BDE80840FFF7D7BF44
:1023E00082B002AB03E9030002B0704782B002ABD7
:1023F00003E9030002B07047704708B5FFF7FCFF20
:1024000008BD000008B5FFF7F8FF034B1860BDE8F2
:102410000840FFF79DBF00BF4C1000207047FFF73A
:10242000F1BF0000024B1B681843FFF7EBBF00BF72
:102430004C100020024B1B681840FFF7E3BF00BFA1
:102440004C100020024B1B685840FFF7DBBF00BF59
:102450004C100020704708B5FFF7FCFF08BD0000D6
:1024600008B5FFF7F8FF034B1860BDE80840FFF719
:102470006FBF00BF481000200020FFF7F1BF01230D
:1024800003FA00F0FFF7ECBF034A01238340106812
:102490001843FFF7E5BF00BF48100020034A01239F
:1024A0008340106820EA0300FFF7DABF48100020DD
:1024B000034A0123834010685840FFF7D1BF00BF93
:1024C00048100020024B1B681843FFF7C9BF00BF2C
:1024D00048100020024B1B681840FFF7C1BF00BF27
:1024E00048100020024B1B685840FFF7B9BF00BFDF
:1024F00048100020704701F00703C90830B501EB10
:102500008101012401399C400A44E4B2002112F8FF
:10251000015F20FA01F343F300036B4023400131D4
:102520005D4005291570F2D130BD10B500F00704EB
:10253000C00800EB80000022014410468B5CE340A1
:1025400003F00103934001321843052AC0B2F5D1CC
:1025500010BD000017B4ADF80400C0F307200E282A
:102560000C460DD89DF80430062B09D8C0EBC000EE
:102570000344054A99B2204603B010BCFFF7BBBF25
:1025800003B010BC704700BF0210002082B0ADF84D
:102590000400C0F307200E280BD89DF80430062B4A
:1025A00007D8C0EBC0001844034980B202B0FFF75F
:1025B000BCBF002002B07047021000200D4B73B565
:1025C0001E680D4BADF804001B681F241E4326FA3D
:1025D00004F3DB0705D4013CF9D20025284602B0FC
:1025E00070BDE5B20199284600F0D8FD80B20128FF
:1025F000F1D0F3E7481000204C10002007B5ADF8EB
:1026000004000198FFF7DAFF019903B05DF804EBCD
:1026100000F0C4BD13B5104BADF804101B782BB1FE
:10262000019802B0BDE81040FFF7E8BF70B1019813
:10263000FFF7C4FF044601460198FFF78BFF01999D
:10264000204602B0BDE8104000F0A8BD0198FFF799
:102650009DFF0446F3E700BF01100020F8B50C4BC6
:102660000C4E1C780C4D3378A34200D1F8BD05EB1D
:10267000C40335F834005F889A88D98840EA074057
:1026800042EA01410134FFF7B1FE04F00704EAE732
:10269000501000205110002052100020064B10B4A2
:1026A00018885C889A88D98840EA044042EA014147
:1026B00010BCFFF79BBE00BF921000202DE9F3472E
:1026C000234CA3790F2B0ED8A37863B1214BA68896
:1026D0001D78214B94F8019093F8008094F800A0A5
:1026E0001E4F454502D102B0BDE8F08706222146C3
:1026F000684605F029FC36B3BDF800204FF6FF739D
:102700009A4220D007EBC5035A784A451BD117F8E7
:102710003520524517D19A78AAB99A88921B92B25D
:10272000C72A10D8A2790A48012161F30712A271C1
:102730009A7961F307129A71FFF7DEFD02B0BDE8E6
:10274000F047FFF78BBF013505F00705C9E700BF6C
:102750009210002050100020511000205210002034
:102760002DE9F04F87B0AE4D0DF108080446014643
:102770000622404605F0E8FB0622294604A894F804
:1027800000B094F801A0A678A78805F0DDFBAB881F
:10279000002B00F03581BDF810204FF6FF794A4537
:1027A00000F0E180AA780192002A00F0DC80FB1A98
:1027B0009BB2C72BAA7900F2AB800F2A29464FF0B3
:1027C000060204A86AD805F0BFFBBDF810304B45DF
:1027D000B04612D022889A420FD1DEB9AB790122DD
:1027E00062F30713AB71FFF759FF2846FFF784FD2B
:1027F000AB79A3714FF000084CE08DF810B08DF864
:1028000011A02FB1BDF810204FF6FF739A4206D1E8
:10281000002EEFD0AB7943F00103AB71EAE7002E55
:10282000F8D1804A804B10781B78804A834210D1BF
:102830000298FFF7E3FEC0F30332012AC3B218D8AF
:1028400010F4706F00D02BB32033DBB2072B21D9EB
:1028500014E002EBC3014D78554506D112F8335010
:102860005D4502D189780029C4D1013303F0070303
:10287000DCE70E3202F00F02012A05D92046FFF7ED
:102880003BFDDDF8048005E010F4706FDCD0A27928
:102890000F2AD9D8404607B0BDE8F08F05F054FBA9
:1028A000BDF810304B450ED022889A420BD156B954
:1028B000AB79A3712046FFF71FFD08222146284669
:1028C00005F042FB1FE02046FFF782FD002800F0E4
:1028D0008B80002E00F08880AB791F2B0CD92A88C2
:1028E000ADF8102004A800228DF81220ADF8147065
:1028F0008DF81630FFF700FD49480822214605F003
:1029000023FBFFF7DBFEFFF7C9FE4FF00108C1E72D
:102910000F2A0ED898E80300FFF762FD2846FFF75C
:10292000EBFC08220021284605F01CFBFFF7B6FE51
:1029300060E70622294604A805F006FBBDF8103022
:102940004B45C0D02A8823889A42BCD1002EBAD1E8
:10295000AB79A3712046FFF7CFFC08223146284609
:1029600005F000FBD1E72E490193062204A805F0EB
:10297000EBFABDF810204FF6FF718A4240D095F86F
:102980000290B9F1000F3BD1019BFF1ABFB2C72FD4
:102990002ED84EB3238893421DD1AB79DA0714D4D5
:1029A0000F2B12D9A37103F0F003F02B06D0A379FB
:1029B000C3F30312013262F30713A3712046FFF73A
:1029C0009BFC1748082221467AE708222146144832
:1029D00005F0BAFA99E72046FFF7FAFC00288BD1F8
:1029E000AB7943F00103AB712046FFF785FC8CE720
:1029F00098E80300FFF7F4FC09480822494693E7EA
:102A0000002EF1D02046FFF7E3FC0028ECD008228E
:102A10002146034805F098FA0148FFF77EF970E770
:102A20009210002051100020501000205210002061
:102A3000F0B587B06C4684E803002046FFF790FEAF
:102A40002F4FBDF804202F4D0646A0B194E8030097
:102A50000490ADF814103AB1BDF810204FF6FF7392
:102A60009A4201D0FFF7C2FC274C28783B7883427A
:102A70002BD107B0F0BD94E8030004AB83E803005A
:102A8000029029783878002AEED0BDF808404FF639
:102A9000FF729442E8D0441C04F007048C420AD030
:102AA0001946194B082203EBC00005F04DFA3C70A3
:102AB000FFF7D4FDD8E7FFF763FC0822314613483F
:102AC0003E702E7005F04EFACEE704EBC000FFF723
:102AD00047FE0028CDD02B7834F8330004EBC30335
:102AE0005E889A88D98840EA064042EA0141FFF7A9
:102AF0007DFC2B78013303F007032B70B5E700BF93
:102B00005110002050100020521000209210002080
:102B1000024B0146186801F0E1BC00BF000C002028
:102B2000024B0146186801F0F1BC00BF000C002008
:102B3000014B186801F002BD000C0020024B93F914
:102B40000000C0F3C7007047BA100020024B18788D
:102B500000F00700704700BFBA100020034B187840
:102B600010F0070018BF0120704700BFBA10002006
:102B7000014B1878704700BFDD100020024B1A7817
:102B800010431870704700BFDD100020024A137810
:102B900023EA000313707047DD100020014B002270
:102BA0001A707047DD100020024B1A78104318701D
:102BB000704700BFDC100020024A137823EA0003AC
:102BC00013707047DC100020014B00221A70704710
:102BD000DC100020014B1878704700BFBB100020AC
:102BE000704708B5FFF7FCFF08BD0000064A5278A1
:102BF000520708B506D5054A1178814202D01070F7
:102C0000FFF7EFFF08BD00BF101F0020BB10002022
:102C100008B5044B1A781AB100201870FFF7E1FFCD
:102C200008BD00BFBB10002010B5124B124A1B7824
:102C30001278124C1343124A20681278037032B192
:102C40001343037001F0C8FB08B1FFF7E1FF2468EC
:102C50000C492022204605F067F948B12146094871
:102C6000202205F071F92046BDE8104001F072BB4A
:102C700010BD00BFDD100020DC100020000C002083
:102C8000BB1000209A100020704708B5FFF7FCFF2A
:102C900008BD00000A4A5278520710B50CD5094CFD
:102CA00041EAC0012170FFF7EFFB94F90000C0F387
:102CB000C700FFF7EAFF10BDBDE81040FFF7E4BB17
:102CC000101F0020BA10002008B5034B0020187018
:102CD000FFF7DBFF08BD00BFBA10002008B50C4AA3
:102CE00092F9003023EA000040B2107042070ED182
:102CF000DBB283420BD0074B5B785B0707D5C0F391
:102D0000C700FFF7CBFBBDE80840FFF7DDBF08BDFC
:102D1000BA100020101F0020094A08B55378C3F3E9
:102D2000800181420AD060F382035370108800F062
:102D300037F8BDE808400220FFF7D0BF08BD00BF4C
:102D4000101F0020044B5878C0F3800080F0010071
:102D500000F00100FFF7E0BF101F00200120FFF787
:102D6000DBBF0020FFF7D8BF08B5002000F01FFF31
:102D70004FF6E863C31A5842584108BD022000F0DC
:102D800007BF032000F004BF10B5042000F000FFCF
:102D90000446222000F0FCFE44EA002080B210BD70
:102DA00010B5C1B20446042000F040FF210A2220E1
:102DB000BDE8104000F03ABF01460F2000F052BFBE
:102DC0000146132000F04EBF0020FFF7F9BF08B501
:102DD0000020FFF7F1FFFFF7F7FF08BD10B500F087
:102DE0004FFF4FF6E861002000F02EFF0021022087
:102DF00000F01CFF00210320002400F017FF1A4BF5
:102E0000214604201C6000F011FF0421222000F064
:102E10000DFF2146052000F009FF2146062000F0A5
:102E200005FFFF21072000F001FF2146082000F0E8
:102E300019FF21460D2000F0F9FE2146182000F070
:102E400011FF2146172000F0F1FE21461C2000F062
:102E500009FF2146202000F0F7FE2146182000F04F
:102E600001FFFFF7B4FF10BD4C100020FFF7B6BF05
:102E700001460E2000F0DABE08B501F0FDFB024B62
:102E80001860024B186008BDF4100020F0100020FC
:102E90007047704708B5FFF7FCFF08BD704708B5DD
:102EA000FFF7FCFF08BD000008B5054800F05CFA1C
:102EB00000F0EEFEFFF7ECFFFFF7ECFF08BD00BFF0
:102EC000613300600120704708B5FFF7FBFF08BDC4
:102ED0007047704708B5FFF7FBFFFFF7FAFF08BD23
:102EE00008B500F049FABDE80840FEF797BE08B5FE
:102EF00001F0C0FB00F0F0FAFFF7F2FFFFF7CFFFA1
:102F000008BD00002DE9F74F00F000FB804608B136
:102F1000FFF7B2FFDFF8C0B00026D9465FFA86FAA5
:102F2000504600F04FFA1BF8014B8442054615D17C
:102F300001360F2EF2D14FF6FF73ADF800300023AB
:102F40008DF8023001F0CCFB40F00100ADF8040038
:102F500002AB13E90300FEF7B7FE31E01F4B1A780E
:102F6000930701D500F034FA6C40E1B214F001048B
:102F70002DD10122671CFFB25200072FD4B2D7D047
:102F8000214226D0FFF7A0FFA8B12540EDB2003DB9
:102F900018BF01258DF800708DF801A08DF8025042
:102FA00001F09EFB40F00100ADF8040002AB13E914
:102FB0000300FEF789FE19F80630634009F8063071
:102FC000B8F1000018BF012003B0BDE8F08F002762
:102FD000D8E722463C46CDE7DE100020F81000205E
:102FE00008B5FFF78FFF00F011FDBDE80840FEF7C0
:102FF0005DBE000010B500F0DDF8B0F5A44F04464A
:103000003FD2B0F5A24F80F08F80E72813D9B0F5FA
:10301000A04F26D3C0F38103C0F301125B0143EA42
:10302000022300F00304012202FA04F4234343F4D0
:103030000C439CB20CE0DF280AD8A7280AD8A428A1
:1030400060D8012804D0031F9BB2A12B28BF002405
:10305000204610BDA0F1A8039BB2162B57D900241F
:10306000F6E7B0F5804F5AD2FF2804D8EC28F6D9FD
:1030700040F4A04422E0A0F580739BB2B3F5F85F62
:10308000E4E7B0F5AC4F1BD2B0F5AA4FC0B254D2B2
:10309000B4F5A84F04D34AF2F40444EA0024D7E775
:1030A0008308B4F5A64F00F003004FF0010404FAC2
:1030B00000F444EA43143DD244F40C44A4B2C7E7FC
:1030C000B0F5B44F0CD2B0F5B24F3ED2A0F5B0433C
:1030D0009BB2FF2BC3D84AF2F00343EA0023A8E7D0
:1030E000A0F5C0439BB2B3F5005FB8D2C0F3042093
:1030F00000F0E0F80002E4B200F4F850204340F49D
:103100000054A5E7A0F1240444F48044D6E75834E1
:10311000144BE4B233F8144044F4884498E7C0F305
:103120000B0444F4204493E7C4B24AF2F10343EAA7
:1031300004248DE744F40A44C0E700F0BBF804021D
:1031400004F4F85444F4005482E700F00F0000F057
:10315000B1F8C4F3031440EA042040F4104084B2F0
:1031600076E700BFEC8E006082B0ADF80410C1F3CA
:1031700007210E290ED89DF80430062B0AD8C1EB82
:10318000C101692202FB00101844034B33F8100000
:1031900002B070470020FBE7EC8D006007B5ADF88A
:1031A00004100199FFF7E0FF03B05DF804EBFFF7AF
:1031B00021BF0000E7284DD8DF2807D8312861D08B
:1031C0000ED8292857D02A2863D07047A0F1E003F1
:1031D000072B3FD8DFE803F0123E2126303E3A3F6E
:1031E000392804D0822802D035283DD07047304B92
:1031F0001B7813F0030F18BFE02070472C4A137898
:10320000D9074DD4527812F0010F23D013F0100FCC
:1032100008BFE32018BF00207047254B1B7813F030
:10322000040FF2E7224A137859073BD45278D207A9
:103230003AD413F0100FEDE71D4B5A78910709D5DA
:103240001B7813F0100F08BFE720E3E7184B1B783B
:103250001A07F6D47047164A1378190726D45278FD
:103260009207E6D5E420F5E7114B1B7813F0200F09
:1032700018BF292070470E4B1B7813F0200F18BF82
:10328000352070470A4B1B7813F0400F18BF2A20D7
:103290007047074B1B7813F0400F18BF3120704761
:1032A00039207047E2207047E0207047E6207047E1
:1032B000101F0020294A1378590707D500F018017C
:1032C000082927D100F0F70040F00400190707D5BE
:1032D00000F01801182926D100F0E70040F0140092
:1032E0005278D10707D500F01801082924D100F041
:1032F000F70040F00100920707D500F01802182AE5
:1033000023D100F0E70040F01100DB0648BF00F0D9
:10331000E700704700F01401042904BF00F0FB002F
:1033200040F00800D2E700F01401142904BF00F0B7
:10333000EB0040F01800D3E700F01101012904BFB1
:1033400000F0FE0040F00800D5E700F01102112A5D
:1033500004BF00F0EE0040F01800D6E7101F002078
:103360000020704700207047014B1860704700BF75
:10337000040C00207047000008B5FFF7F5FC08B901
:10338000FFF774FDFFF7FAFC084B1870FFF7FCFC21
:10339000074B1880FFF7EEFFFFF7F3FCFFF73FF84E
:1033A000044B1868BDE80840FFF755B8F810002036
:1033B000101F0020481000207047704708B5FFF725
:1033C000FCFF08BD014B185C704700BF211F0020A7
:1033D0007047704708B5302383F31188C1B220F4D9
:1033E0007F60032220F00F0002F068FF002383F3C8
:1033F000118808BD38B50C4D0F2455F8040B421C3C
:1034000001D0FFF7E7FF013C14F0FF04F5D1074DB1
:1034100055F8040B431C01D0FFF7DCFF0134E4B284
:10342000072CF5D138BD00BF388F00601C8F0060BD
:103430002DE9F84FDFF8948058F821400D46611CC3
:10344000074637D0302383F31188DFF8849004EAED
:103450000906E4B221463046062202F02FFF21463B
:103460000022304602F01CFF002484F31188FFF78D
:10347000B0FFDFF860B007264FF0010A5BF8040BDD
:10348000421C19D10023013E23434FEA4A0A16F099
:10349000FF06DCB25FFA8AFAF0D158F82500431C27
:1034A00001D0FFF797FF211E18BF01212846FEF724
:1034B000B1FA7C55BDE8F88FC1B200EA090002F00C
:1034C000E5FE0028DED15346DDE700BF388F0060FF
:1034D00000F0FFFF1C8F006010B50F24FFF78AFF7C
:1034E00022460021074804F03DFD224600210648FF
:1034F00004F038FD204600F037F8BDE81040FEF734
:10350000DFBA00BF211F0020121F002030B50024A9
:1035100085B00B22214601A8009404F023FDE1B2FE
:1035200068460134FFF784FF0F2CF8D10C4822467F
:10353000694604F0F9FC002814BF0125002504D0D9
:1035400007482246694604F0FFFC064904482B461A
:103550000F2200F019F8FEF7B5FA284605B030BD85
:10356000121F0020211F002010B5C0EBC004204610
:1035700004F0D2FC034B22460021BDE81040186045
:1035800004F0F0BC001100202DE9F74F464E96F8EC
:103590000080CDE9000117461C46B8F1000F3DD070
:1035A00001F06AF8414A13681060C31AFF2B1FD854
:1035B000002B3AD0D8B23E4BDFF8F8C01A68002191
:1035C00031708CF8001089468E468A46CBB29F42F5
:1035D00010D8B9F1000F02D001238CF80030BEF1F1
:1035E000000F01D00123337024BB9CF800301FE092
:1035F000FF23DFE7531E02F1060B13F8015F45B10D
:10360000A84233BF2D1A83F800A0C1461D7038BFF1
:10361000C6465B45F1D107320131D7E70BBB254BDD
:103620001B78F3B903B0BDE8F08F1CB9214B1B78B0
:10363000002BF7D01E4BD3F80080019B5C1E0023AB
:103640009C464FF001094FF0140ADAB2C3EBC301F4
:10365000974241440AD8BCF1000FE3D001233370F4
:10366000E0E701F009F8114B1860E3E7009A607891
:10367000D55C0022454009FA02FE1EEA050F5FFAFA
:103680008EFB0AD011F802E0BEF1000F05D101F85F
:1036900002A08BEA00004FF0010C0132072AEAD1A8
:1036A00004F8010F0133D0E7FA100020FC100020CD
:1036B00000110020F910002008B501F0E9FAFFF729
:1036C00016FCBDE8084001F0F9BA08B501F0FCFAB3
:1036D000FFF786FCBDE8084001F016BB08B500F016
:1036E0008FFF01F0D3FAFFF7DFFBFFF7E5FFFFF7EE
:1036F000ECFFFFF7EFFBFAE7164B1B78D90707D56E
:10370000154B187840007F2820D808B3C0B2704706
:103710009A0703D5104B18788000F4E75B0703D5B0
:103720000D4B1878C000EEE70C4B1B7863B10C4AC8
:103730000949127808789342F4D210FB03F0C000D4
:10374000B0FBF2F080B2DEE70820DFE77F207047B1
:10375000012070470A1100200D0C002009110020E3
:103760000C0C0020144B1B78D90705D5134B187887
:103770008008F8B1C0B270479A0703D50F4B18788C
:103780004008F6E75B0705D50C4B18787F28F0D981
:103790007F2070470A4B1B7853B10A4A07491278B9
:1037A000087893423CBF10FB03F0B0FBF2F0EDE76A
:1037B0000120DFE7012070470A110020090C0020DA
:1037C00008110020080C002008B5A0F1ED03122B11
:1037D00010D8DFE803F00A1013192E2E2E2E2E2EED
:1037E0002E2E1C21252B363C4100FFF785FF404241
:1037F0001C4BD87008BDFFF77FFFF9E7FFF77CFF90
:103800004042184B9870F5E7FFF776FFF9E7FFF7AE
:10381000A9FF144B1871EDE7FFF7A4FF4042F8E74A
:10382000FFF7A0FF40420F4B5871E3E7FFF79AFF05
:10383000F9E70C4AF1385178012383400B43537068
:10384000D8E7094A137843F001031370D2E7064A18
:10385000137843F00203F8E7034A137843F00403B4
:10386000F3E700BF0B1100200A11002030B5414BD7
:10387000ED2893F9041093F9052093F9024093F988
:10388000035012D1002D01DA0022DA70D9789A782B
:103890000A4351B20AB9384A11701A795B79134355
:1038A0005AB20BB9354B1A7030BDEE2802D1002D3B
:1038B000EADCEBE7EF2804D1002CE7DA00229A706B
:1038C000E4E7F02802D1002CF8DCDFE7F92804D186
:1038D0000029DBDD00221A71D8E7FA2802D100297D
:1038E000D4DAF7E7FB2804D1002ACFDA00225A7194
:1038F000CCE7FC2802D1002AF8DCC7E7F1380E2813
:10390000C4D801A252F820F0453900604539006062
:10391000453900604539006045390060453900602F
:1039200045390060453900608D3800608D38006091
:103930008D3800608D380060533900605F39006059
:10394000693900605A780121814022EA01025A70E7
:103950009CE70B490A7822F001020A7096E70849B1
:103960000A7822F00202F8E705490A7822F00402F8
:10397000F3E700BF0B1100200911002008110020FF
:103980000A11002008B500F0ABFE094B9A78D978EF
:103990000A431CBF074A10801A795B791A431CBF7F
:1039A000054B1880BDE80840014800F0EBBC00BFA3
:1039B0000B110020061100200411002008B506227A
:1039C0000548002104F0CEFA044A00231370044A8B
:1039D0001370044A137008BD0B1100200911002058
:1039E000081100200A11002090F902305BB990F90B
:1039F000033043B990F904302BB990F90500003831
:103A000018BF0120704701207047000037B5574CA0
:103A100006222146684604F097FA00239DF8032009
:103A2000A370E370237163719DF8023013430AD0D1
:103A30004F4B188800F059FE4E490B783BB34E4A65
:103A4000127890422DDC9DF804309DF80520134338
:103A50000BD04A4B188800F048FE49490B78002BE0
:103A60004CD0484A1278904252DC4048694600F0F7
:103A700079FD18B93D48FFF7B7FF08B1FFF782FF9E
:103A800006226946394804F05FFA03B030BD3E4A69
:103A9000127802EB8202B0EB420FD4DD01330B70DF
:103AA00001E0FF2BFAD19DF902503DB1FFF724FE52
:103AB000002DD4BFFF2301234343A3709DF903507E
:103AC0003DB1FFF719FE002DD4BFFF23012343436F
:103AD000E37094F90230002BB5D094F90320002A4A
:103AE000B1D0B5214B431B1208BF0123A37001FBCA
:103AF00002F31B1208BF0123E370A4E7234A1278E4
:103B000002EB8202B0EB420FAFDD01330B7001E03C
:103B1000FF2BFAD19DF904503DB1FFF723FE002D94
:103B2000D4BFFF230123434323719DF905503DB1C9
:103B3000FFF718FE002DD4BFFF2301234343637119
:103B400094F90430002B90D094F90520002A8CD0F1
:103B5000B5214B431B1208BF0123237101FB02F364
:103B60001B1208BF012363717FE700BF0B11002008
:103B700006110020091100200E0C00200411002065
:103B8000081100200A0C00200F0C00200B0C002054
:103B900007B50023014601220DF107008DF807301B
:103BA00000F078F89DF8070003B05DF804FB07B556
:103BB0000023014602220DF10600ADF8063000F0A8
:103BC00069F8BDF8060003B05DF804FB07B50422F0
:103BD000014600230DEB0200019300F05BF8019811
:103BE00003B05DF804FB07B501228DF8071001460C
:103BF0000DF1070000F066F803B05DF804FB07B5AF
:103C00000222ADF8061001460DF1060000F05AF848
:103C100003B05DF804FB07B50422019101460DEBEA
:103C2000020000F04FF803B05DF804FB38B50C4615
:103C30000546FFF7ADFFA04205D021462846BDE866
:103C40003840FFF7D0BF38BD38B50C460546FFF702
:103C5000AEFFA04205D021462846BDE83840FFF718
:103C6000CEBF38BD38B50C460546FFF7AFFFA042C2
:103C700005D021462846BDE83840FFF7CCBF38BD07
:103C800002482422002104F06DB900BF1411002065
:103C9000FFF7F6BF70B50D4614460021064604F046
:103CA00061F92B19242B88BFC5F124043CB10449C8
:103CB000224629443046BDE8704004F045B970BD45
:103CC000141100200B461144242988BFC3F124029B
:103CD00022B101460248184404F036B9704700BFCB
:103CE0001411002038B505468878002800F0E680D9
:103CF00045F662539D4248D030D845F615439D4263
:103D000018D845F601439D423ED9FFF73DF86C4C6B
:103D1000A5F5B845033D2080122D41D8DFE805F018
:103D200045494D5A5E62666C787C80849094989C7C
:103D3000A2BEAA00A5F5B945A5F17B039BB2082B4D
:103D400022D8FFF721F85E4B7C3D1880072D38D82C
:103D5000DFE805F03C6E72588C9BAEB245F6A65378
:103D60009D4211D1FFF710F8554A00F0010383F08E
:103D70000103108063F300001070514B1888FFF7A7
:103D80000FF8FEF7FDFA002038BDFEF7FDFF4C4AA4
:103D9000C0F3001383F00103108063F30410EBE71A
:103DA000237843F001032370E7E7237843F002030D
:103DB000F9E7237843F00403F5E7237843F0080399
:103DC000F1E75A7842F001025A70D6E75A7842F089
:103DD0000202F9E7237843F01003E4E7237843F085
:103DE0002003E0E7237843F04003DCE7FEF7C8FA5E
:103DF000237843F08003D6E7237823F00C0343F0C5
:103E00000C03D0E75A7822F0030242F00302DBE70A
:103E100023786FF30003C6E723786FF34103C2E70B
:103E200023786FF38203BEE723786FF3C303BAE707
:103E30005A786FF30002C7E75A786FF34102C3E77D
:103E400023786FF30413AEE723786FF34513AAE7E3
:103E500023786FF38613A6E7FEF792FA23786FF3C1
:103E6000C713A0E7237823F00C039CE75A7822F0CD
:103E70000302A9E72378C3F3800282F00102D2B2E1
:103E800062F3820362F3C3038DE75A78D14301F0F2
:103E9000010161F3000261F3410295E7FEF770FA58
:103EA0002378C3F3C01282F0010262F3C7137AE7EA
:103EB0000120FEF7DDFF60E70020FAE7012063E75D
:103EC000101F002008B5431F3E2B00F28580DFE85D
:103ED00003F02D243022838322838351835D698301
:103EE00083838322838322834083838181818181B1
:103EF0008181818175832D20838383838383838361
:103F0000838375838322837B7B7B7B7B7B7B7B7B38
:103F10007500FEF7ABFF012008BD304A137823F08F
:103F20000F0313702E4B01221A70F4E7FDF7D8FD32
:103F3000F1E72A4A1378C3F3000181F0010161F32C
:103F400000031370D9B2DB07E5D421F00E03137020
:103F5000E1E722490B78C3F3400282F0010262F3E9
:103F600041030B7013F0020FD5D01C4A137843F0B5
:103F70000103ECE719490B78C3F3800282F00102D8
:103F800062F382030B7013F0040FEDE713490B7813
:103F9000C3F3C00282F0010262F3C3030B7013F09B
:103FA000080FE1E7FEF7ECF90E490B78C3F3C012F6
:103FB00082F0010262F3C7130B70ACE70120FEF739
:103FC0002EFAFEF7DDF9A6E73938C0B2012303FA6D
:103FD00000F0F4E71D38F8E700209DE7F810002016
:103FE0003D110020101F0020002070470020704766
:103FF00070B5574E3578012D044614D0022D33D0BC
:10400000002D40F0A280FEF7B3FD222822D12046E9
:10401000FFF7EAFF18B92046FFF754FF00E0012040
:1040200000F0010070BDFEF7A3FD2228204605D157
:10403000FFF7DAFF0028EED02846F1E7FFF7D6FFBA
:1040400008B10120EEE7142C7FD005D80B2CF8D056
:10405000102C06D00020E5E7292C76D0382CF0D0A3
:10406000F8E702233370ECE75228EAD84E2810D83C
:10407000272817D81D2817D8072838D01428E0D1AA
:10408000344A1378002BDCD000231370324A1360BB
:10409000D7E7A0F15004304A022C4AD8DFE804F0F8
:1040A000394353002928EAE72A4BA0F11D04E4B262
:1040B0001C70013C052C17D8DFE804F003070A0D3B
:1040C0001013254B254A1A60BBE7234B244AFAE715
:1040D000214B244AF7E7204B234AF4E71E4B234A9F
:1040E000F1E71D4B224AEEE700221A70A9E71B4BAD
:1040F00006221A701A4B14221A701A4B04221A70D4
:10410000194B0A221A70194A01231370184A1370A6
:1041100097E71268002A94D013780A3B1BB2002B51
:10412000B8BF0023F3E71268002A8AD01378013B56
:10413000F4E70A231268002A83D011780B44FF2B7E
:10414000E5DDFF23E3E70123F4E70023337081E794
:104150003D1100203C110020381100200F0C0020E0
:104160000E0C00200D0C00200C0C0020090C00206F
:10417000080C002045F61643984210B50C461BD19A
:10418000FEF7F6FCA2780D4B72B100F0AA000028F1
:1041900013BF01220022292035201A70FEF7B8FC37
:1041A000FEF742FD002010BD1B78002B0CBF29201C
:1041B0003520FEF7B5FCF3E70120F4E73E110020BF
:1041C000F8B5144682789DF818701D462C4B92B1B4
:1041D0001C7000F085FA2B4B188004F12003DBB231
:1041E000072B41D804F007040120A040C0B2BDE86D
:1041F000F840FDF78EBE1E78A64236D1214B1888B6
:1042000000F073FAC72830D805F12004AE42E4B2BA
:1042100025D006F12003DBB2072B06D806F00706EF
:104220000120B040C0B2FDF77DFE072C04D938460E
:10423000BDE8F840FDF765BE05F007030120984092
:10424000C0B2FDF766FE3846FDF75BFE05F00705D8
:104250000120A840BDE8F840C0B2FDF763BE384673
:10426000FDF74FFE072CF1D9F8BD04F12003DBB2B6
:10427000072BF9D804F007040120A040EAE700BFAB
:10428000421100204011002013B545F6F7430446C3
:104290009C4208460FD845F6F3439C4212D845F697
:1042A000D9439C4221D045F6DA439C423DD045F6A5
:1042B000D8439C420FD0837813B11E4B00221A7052
:1042C000012010E0A4F5B944753C022C11D8DFE8B8
:1042D00004F0171E250026230093E1231A462146E9
:1042E000FFF76EFF002002B010BD27230093E523E7
:1042F000F4E726230093E022E12345F6F441EFE7BB
:1043000027230093E422E52345F6F541E8E7262339
:104310000093E222E12345F6F641E1E727230093EB
:10432000E622E52345F6F741DAE728230093E52264
:104330000123D4E742110020014B1860704700BFF1
:1043400048110020024B186808B1036818477047ED
:1043500048110020084B1B686BB1084A127842B123
:10436000074A92F90020002ABFBF02784270062255
:1043700002705B681847704748110020100C00203D
:10438000101F0020034A12681AB1022101709368BD
:104390001847704748110020054A1188814205D00E
:1043A000044B10801B680BB1DB681847704700BFD7
:1043B0004611002048110020054A1188814205D08D
:1043C000044B10801B680BB11B691847704700BF76
:1043D00044110020481100200B4B1B78821C8BB12C
:1043E0000A4B93F90030002BACBF05231D2300209E
:1043F00012F8011B09B10130C0B2013BDBB2FF2B47
:10440000F6D170470523F2E7100C0020101F0020A2
:10441000F1B1114B1B789BB1104B93F90030002B7D
:104420000EDAEF294FEAD10212D8104401F0070149
:10443000827801238B40134214BF01200020704773
:10444000431C073013F8012F8A4203D08342F9D16D
:104450000020704701207047100C0020101F002022
:1044600030B50022441C4FF0FF3314F8015F8D4239
:104470000BD0B3F1FF3F01D105B953B20132062A87
:10448000F3D15A1C01D01844817030BD10B5431CC3
:104490000022073013F8014F8C4208BF1A70834284
:1044A000F8D110BDEF294FEAD10307D8184401F025
:1044B0000701827801238B40134383707047EF29F3
:1044C0004FEAD10308D8184401F00701837801228C
:1044D0008A4023EA020383707047000010B4094C3D
:1044E000247803460A463CB1074C94F90040002C5E
:1044F00002DA10BCFFF7D6BF10BC11461846FFF712
:10450000AFBF00BF100C0020101F002010B4094CDA
:10451000247803460A463CB1074C94F90040002C2D
:1045200002DA10BCFFF7CBBF10BC11461846FFF7EC
:10453000ADBF00BF100C0020101F0020074B1B78E0
:10454000023043B1064B93F90030002B03DA1E22F0
:10455000002103F007BD0622FAE700BF100C00207F
:10456000101F002008B5062203F0DEFC003818BF3B
:10457000012008BD704708B5FFF7FCFF08BD00002B
:1045800008B50130024BC0B21870FFF7F4FF08BD48
:104590004C11002008B5034B03201870FFF7EBFF08
:1045A00008BD00BF4C110020FFF7EABF08B5034B60
:1045B00001201870FFF7DFFF08BD00BF4C1100207D
:1045C000FFF7F4BF70477047704708B5FFF7FCFF6F
:1045D00008BD704708B5FFF7FCFF08BD10B5FFF731
:1045E000F1FFFEF793FFFFF7EEFF0024E0B2FEF7C6
:1045F000E9FE18B901340F2CF8D110BD0120FCE7F9
:1046000008B500F0A7FEBDE8084000F057BC08B5AB
:10461000FDF7BEFABDE80840AA2000F024BE08B5A8
:10462000FEF7BCFAFEF7D0FAFEF782FAFFF7C6F9FA
:104630000020FFF7B1FE0020FFF7BEFEBDE80840F6
:10464000FDF7ADBA302383F31188064BDA69064BC8
:104650001A60064A00231360054A136083F3118829
:10466000704700BF581F002058110020541100202F
:1046700050110020FFF7E6BF70B5302383F3118897
:10468000124B13481349DC6903680A68E41AA24212
:10469000114A08D9A3F5E453036010680F4B034493
:1046A00004F5E45413600C601668002181F311884E
:1046B0004FF47A7542F20F7042F210720023E4FB5D
:1046C0000501FDF72BF9304470BD00BF581F0020D5
:1046D000581100205411002050110020C096991943
:1046E00008B5FFF7C9FF80B208BD10B50446FFF753
:1046F000C3FF001B80B210BD08B54FF47A7000F004
:10470000B2FD00BE08BD7047302383F3118800233B
:1047100083F311887047704738B5094C104622461C
:104720000D46002142F8041F40EA0520194600F01A
:10473000EDFA20606068002818BF204638BD00BF31
:104740006011002090F87A10074A0229137807D1E7
:10475000012B01D0062B05D1044B52781A707047FB
:10476000024A1370704700BF68110020C411002076
:1047700038B505460C46302383F311880E4B1A7862
:10478000042A03D0002383F3118838BD1A89520705
:1047900007D55B69586964210C3000F071FD013068
:1047A000F0D0064A044854700323240A02211570ED
:1047B000947000F07DFEE5E7D41F00205C1100201E
:1047C00070B50446064803680D460BB100F0C4FB03
:1047D0002B462146034A0248BDE8704000F0B4BBB6
:1047E000AC110020E947006038B50C46302383F354
:1047F00011880B78042B03D0002383F3118838BD74
:10480000134B1B78DB09F7D1124D2B78002BF3D01B
:10481000114B1B78002BEFD00B899B0705D40F4A57
:1048200008230121204600F043FE287842F210734D
:10483000A0FB03034FF47A72002300F2E73000215B
:10484000FDF76CF821468000FFF7BAFFD4E700BF00
:10485000101F0020C6110020100C00208C11002019
:1048600038B590F8743003F07F02212A04466AD1EB
:1048700013F0800F90F8753020D0022B19D0032B45
:104880000FD0012B5FD190F87820002332B93C4B38
:1048900083662023E3662267012038BD83661A46BB
:1048A000F8E7B0F87820002A4DD1364B8366012313
:1048B000F0E7354B836601230022EBE70A2B39D062
:1048C0000B2B0AD0092B3ED190F87830012B3AD827
:1048D0002E4B83662E4A0223DCE7B0F8783033BBD8
:1048E00090F87650274B002D14BF0121002119703C
:1048F000284B1A7861F3C7121A7018D1224B1A7814
:10490000AAB1302282F31188187842F21073A0FB0A
:1049100003034FF47A72002300F2E7300021FCF722
:10492000FDFF21468000FFF74BFF85F31188002330
:10493000A366C1E71749144B097890F877201A70DD
:10494000CD09F4D1DCE7B4F8742040F281639A42D7
:1049500001D00020A1E794F87920616894F87830BC
:104960004D6894F8771043EA0223204694F87620A5
:10497000A8470028EDD04368A36603689CE700BF02
:104980008C110020100C0020C6110020681100209E
:1049900045470060101F002010B5064A064C1178EC
:1049A00024784B1C03F00F039C421EBF034C137072
:1049B000605410BD401F0020411F0020301F002008
:1049C00010B504460846052921D8DFE801F01A2071
:1049D000031A1A1E302383F311880D4A2046012141
:1049E00000F016FD0B4A0221204600F011FD0023C5
:1049F00083F31188084B1B7813B10520FFF7CCFF18
:104A00000220BDE81040FFF7C7BF0520F9E710BD41
:104A1000A88F0060848F00606A110020704700003A
:104A200008B510220448002103F09CFA034A002331
:104A30001370034A137008BD301F0020401F002070
:104A4000411F0020F8B5284D284C287823780022F3
:104A500098422FD102B12070F8BD2370244B1E70F4
:104A6000244B93F87F10081E18BF0120FFF792FD1A
:104A7000EBE723701E4B00221A70FFF7D0FD1D4B91
:104A800093F87F10081E18BF0120FFF78DFDDCE7AB
:104A90002370184B93F87F10081E18BF0120FFF7F2
:104AA0006FFDD2E7002123700846F8E72370FFF777
:104AB0007DFDCAE7104E19460122715C013303F0F7
:104AC0000F0316460529C3D801A757F821F000BFE8
:104AD000AD4A0060514A0060914A0060A54A0060FA
:104AE0005B4A0060734A0060401F0020411F0020A5
:104AF0006A110020D41F0020301F002038B50D4D52
:104B00002B68002201210446986802F00FFD4FF443
:104B1000FA7000F0A8FB0849204600F03CFC2B6826
:104B200000229868114602F001FD044B00221A6031
:104B300038BD00BFD01F0020748F0060AC11002072
:104B400038B50B4D044600F03AFC2B6800229868FB
:104B5000012102F0EBFC0749204600F01CFC2B6809
:104B6000002298681146BDE8384002F0DFBC00BF63
:104B7000D01F0020748F0060014B1878704700BF71
:104B8000C411002038B50546302383F311881D4C2D
:104B90002378042B20D11C4A238992F90020002A73
:104BA0001EDA1A4A1278DAB15A070BD420232A46A1
:104BB0000221144800F07CFC20222946144803F00E
:104BC000C3F909E0636958694FF0FF310C3000F018
:104BD00057FB2378042BE9D0002383F3118838BDD9
:104BE0009B0703D408232A460121E2E72369586979
:104BF0004FF0FF310C3000F043FB2378042BEBD156
:104C0000F0E700BFD41F0020101F0020100C002070
:104C10008C11002010B53023044683F311880D4B0E
:104C20001A78042A03D0002383F3118810BD1A894F
:104C3000520707D55B69586964210C3000F020FBEE
:104C40000130F0D0034806232246022100F030FC58
:104C5000E9E700BFD41F002001460320FFF788BD0D
:104C600001460420FFF784BD7047704770477047C6
:104C700008B5FFF7FAFF00F094FEFFF7F7FF08BD55
:104C800008B500F096FEFFF7F2FF08BDFFF798BCED
:104C900008B5FFF7C5FE0648FFF730FF054B064A8B
:104CA0001A604FF4FA70BDE8084000F0DCBA00BFAB
:104CB000D41F0020C8110020140C0020014B1868DC
:104CC000FFF73ABBC811002010B50E4CFFF7BAFE33
:104CD0002378052B15D12378052B05D0FDF7A4FFEC
:104CE000BDE81040FEF74EBEFFF791FCFFF776FCE3
:104CF0000028F0D0034800F0EDFB0248FFF720FF4A
:104D0000E9E710BDD41F002070470000030A032B01
:104D100011D006D8012B1ED0022B1FD00020034635
:104D200011E0212B11D0222BF8D1E9B10129F5D1C5
:104D30000F4BB62007E0C0B20228EFD80D4B0E494A
:104D400053F82030085C1360704751B10129E5D158
:104D50000A4B0920F7E70A4B1220F4E7094B3B20E6
:104D6000F1E7094B0920EEE7084B4020EBE700BFD5
:104D700091900060D08F0060CC8F00606F900060D9
:104D80007F90006044900060569000604791006002
:104D9000024B034A1A60034A5A607047441F0020BE
:104DA0007020002000000820094B30B51C684D1E03
:104DB000224449422A440A4059681044884204D88F
:104DC000A04202D31860104630BD0022FBE700BFAE
:104DD000441F002008B5302383F31188FFF7E4FF58
:104DE000002383F3118808BD70B5BFF34F8FBFF365
:104DF0006F8F1A4A0021C2F85012BFF34F8FBFF3D2
:104E00006F8F536943F400335361BFF34F8FBFF388
:104E10006F8FC2F88410BFF34F8FD2F88030C3F386
:104E2000C900C3F34E335B0143F6E07403EA0406A2
:104E3000014646EA81750139C2F86052F9D2203B39
:104E400013F1200FF2D1BFF34F8F536943F4803336
:104E50005361BFF34F8FBFF36F8F70BD00ED00E064
:104E6000FEE7000070B5144C082560682368A2684E
:104E7000043B01468A4219D8D31C1B1AC11E23F0D9
:104E800003038A4238BF00231844E368DA1C121A6D
:104E9000C11E22F00302994288BF0022002103F0C4
:104EA00061F8013D04F11004DFD170BD53F8046FC7
:104EB00041F8046BDEE700BF8891006038B5084C0C
:104EC0000025012365602370FFF762FF054906484E
:104ED00000F03CF90223237085F3118838BD00BF30
:104EE000501F00200C920060581F002072B6034B28
:104EF000D865034B03221A70FEE700BF581F00203D
:104F0000501F0020034BDA68937D0BB1013B937572
:104F100000F034B8581F002010B50A4C23699A6875
:104F200091420CD85A6881600360426010609A68B0
:104F30005860521A9A604FF0FF33A36110BD1B688E
:104F4000891AECE7581F002010B40361002310BC3D
:104F5000C2604361FFF7E0BF036881689A680A4452
:104F60009A60426813605A6000230360024B4FF05E
:104F7000FF329A61704700BF581F002070B5124D74
:104F8000EB692A460133EB6152F8103F934206D099
:104F90009A68013A9A6030262C69A36803B170BD03
:104FA000226861680A605160236083F31188E368B6
:104FB00021692046984786F3118861690029EBD062
:104FC0002046FFF7A9FFE7E7581F002000230375DD
:104FD000826803691B6899689142FBD25A68036032
:104FE000426010605860704700230375826803694F
:104FF0001B6899689142FBD85A6803604260106050
:1050000058607047084B10B51C68D86822681A6051
:10501000536001222275DC60FFF7E6FF014620465F
:10502000BDE81040FCF764BC581F002008B50846D6
:10503000302383F311880A7D0023052A06D8DFE890
:1050400002F00B050503120E826913604FF0FF3367
:105050008361FFF7BBFF002383F3118808BD8269DA
:105060009368013393604268036813605A60EDE708
:10507000FFF7ACBF064BD9681422087518688A750B
:1050800002681A60536001220275D860FCF730BCD8
:10509000581F002030B50C4BDD684B1C87B0044610
:1050A0000FD02B46094A6846FFF74EFF2046FFF710
:1050B000E1FF009B13B16846FFF74EFFA86907B0F8
:1050C00030BDFFF7D7FFF9E7581F00202D500060D3
:1050D000044B1A68DB6892689B689A4201D9FFF713
:1050E00091BF7047581F0020084BDA681B6898680A
:1050F0009368927D22B1984294BF002001207047AE
:10510000984234BF00200120704700BF581F002084
:105110000C4B10B51C68D86822681A6053600122D5
:105120002275DC60837D4BB9FFF750FF14230146E5
:1051300083752046BDE81040FCF7DABBFFF754FF4B
:105140000146F6E7581F0020FEE7000070B51B4B34
:1051500001630025044686B0586085620E4600F063
:10516000AFF804F11003236163614FF0FF33A361D3
:10517000134BE561D96924600A462B46C4E908232C
:1051800004F134010F4A6460A560E562E56580239F
:10519000204600F01DF80123E0600B4A03750092E1
:1051A00072680192B268CDE90223084B6846CDE9E6
:1051B000043500F043F806B070BD00BF501F00205A
:1051C000581F0020189200601D9200604951006035
:1051D00002228B608A824B621422002308618A7546
:1051E0000B62CB61084670478368C168A3F14C022B
:1051F00043F81C2C026943F84C2C426943F8482CB4
:105200000C4A0D4843F82C2C022203F8142C43F8C6
:10521000180C0022142003F8120C43F8201C03F889
:10522000132C43F8041C43F8082C43F80C2CA3F16E
:105230002800704701190060581F002008B5FFF7CB
:10524000D3FFBDE80840FFF713BF0000024BDB6847
:1052500098610F20FFF70EBF581F0020302383F303
:105260001188FFF7F3BF08B50146302383F3118897
:105270000820FFF70FFF002383F3118808BD00000B
:10528000054BDB6821B1036098610320FFF702BF83
:105290004FF0FF30704700BF581F002003460068E2
:1052A00020B100221A608161FFF7E2BE7047EFF380
:1052B0000983203383F30988002383F3118870471F
:1052C000302080F3118862B60D4B0E4AD96821F464
:1052D000E0610904090C0A43DA60D3F8FC200A49AA
:1052E00042F08072C3F8FC20084AC2F8B01F11686F
:1052F00041F0010111602022DA7783F82200704723
:1053000000ED00E00003FA0555CEACC5001000E04A
:1053100010B5302383F311880B4B5B6813F40063E3
:105320000FD0EFF30984203C4FF08073E36184F3E6
:105330000988FFF7D9FE10B1044BA36110BD044BDF
:10534000FBE783F31188F9E700ED00E01319006033
:105350001619006008B500F09AFB054801F054F8F2
:1053600000F00AF8FFF78CFCBDE8084000F002B836
:105370002892006001F089B901F070BA10B50123DC
:105380000446382200F82C3B002102F0EBFD0023FC
:105390006360A36010BD10B53023044683F3118809
:1053A0002022416000210C3002F0DCFD204601F09B
:1053B0007DFA02232370002080F3118810BDF8B518
:1053C0000446302383F31188254601F085FA002630
:1053D0000123666005F8083B2834374655F8043F3A
:1053E00073B1586920B16FF001010C30FFF756FF1F
:1053F0002B68986920B16FF001010C30FFF74EFF68
:10540000A5422E60EAD1FFF763FE87F31188F8BD4D
:1054100070B500EB810305465069DA600E4614460C
:1054200018B11022002102F09DFDA06918B11022D0
:10543000002102F097FD31462846BDE8704001F09A
:10544000BFBAF8B5836803F001130446836000F126
:105450000C0500F12806002755F8043F73B1586980
:1054600020B16FF001010C30FFF718FF2B6898692D
:1054700020B16FF001010C30FFF710FFB5422F6033
:10548000EAD12046BDE8F84001F0E6BAF0B400EBFE
:1054900081044789E4680125A4698D403D43458125
:1054A00023600023A2606360E360F0BC01F012BBE4
:1054B000F0B400EB81040789E468012564698D403C
:1054C0003D43058123600023A2606360E360F0BC7C
:1054D00001F012BB70472DE9F04705460026022374
:1054E0000370C66745F8086F044600F128074FF0BF
:1054F0003008B14655F8043F9BB188F311882B68FA
:10550000586920B16FF001010C30FFF7C7FE2B681E
:10551000986920B16FF001010C30FFF7BFFE89F3ED
:105520001188BD422E60E5D184F86460204601F008
:10553000E9F963681B6823B120460021BDE8F04704
:105540001847BDE8F087F8B5037880F88030052368
:10555000037043681B6804460BB104219847254635
:10556000002645F8086F2834302755F8043F9BB1D2
:1055700087F311882B68586920B16FF001010C3056
:10558000FFF78CFE2B68986920B16FF001010C3099
:10559000FFF784FE86F31188A542E6D1F8BD90F8A6
:1055A0008020436802701B680BB1052118477047C3
:1055B00070B590F86430044613B1002380F864306D
:1055C00004F17402204601F083FA63689B68B3B962
:1055D00094F8743013F0600539D00021204601F0B2
:1055E0009FFA0021204601F095FA63681B6813B109
:1055F000062120469847062384F8643070BD204673
:1056000098470028E4D094F87B2094F87A3043EA55
:105610000223E26E9A4288BFE36694F97430E56E25
:10562000002B4FF0300380F20881002D00F0F7804E
:10563000092284F8642083F311880021E36EA26EAE
:105640002046FFF735FF002383F31188D6E794F84F
:10565000752003F07F0343EA022340F202329342B3
:1056600000F0CA8021D8B3F5807F4DD00DD8012B32
:1056700044D0022B00F09880002BAED104F17C02C4
:10568000A2660222E2662367BDE7B3F5817F00F0E0
:10569000A080B3F5407FA0D194F87630012B9CD147
:1056A000B4F87C3043F0020337E0B3F5006F52D01A
:1056B0001CD8B3F5A06F36D0A3F5C063012B8CD8EE
:1056C00094F87920616894F878304E6894F87710EF
:1056D00043EA0223204694F87620B04700283FF49E
:1056E0007CAF4368A3660368E3661AE0B3F5106F06
:1056F00036D040F6024293427FF46FAF5B4BA36615
:105700000223E3660023BEE794F87630012B7FF492
:1057100064AFB4F87C3023F00203A4F87C30A566B3
:10572000E56625676FE7B4F87430B3F5A06F0ED166
:1057300094F8763084F87E30204601F013F96368DF
:105740001B6813B1012120469847032323700023CF
:10575000A366E36697E704F17F03A3660123C3E72B
:105760002378042B10D1302383F311882046FFF7D0
:1057700068FE85F311880321636884F87F502170E7
:105780001B680BB12046984794F87630002BDED08A
:1057900084F87F300423237063681B68002BD6D005
:1057A000022120469847D2E794F878301D0603F08E
:1057B0000F0120460AD501F06DF9012804D0022816
:1057C0007FF40BAF2A4B9AE72A4B98E701F046F992
:1057D000F3E794F87630002B7FF4FFAE94F878303E
:1057E00013F00F01B3D01A06204602D501F0A6F936
:1057F000ADE701F09DF9AAE794F87630002B7FF42D
:10580000ECAE94F8783013F00F01A0D01B062046C0
:1058100002D501F085F99AE701F07CF997E71422A7
:1058200084F8642083F311882B462A4629462046B3
:10583000FFF72CFE85F31188E0E65DB1152284F8B0
:10584000642083F311880021E36EA26E2046FFF7E7
:105850001DFEF8E60B2284F8642083F311882B46A2
:105860002A4629462046FFF723FEE3E726920060FA
:10587000249200602292006038B590F864300446AB
:10588000002B42D0063BDAB20F2A38D80F2B36D87D
:10589000DFE803F03B353508263635353535353507
:1058A00035353B3B90F87A3090F87B20C56E43EA63
:1058B00002239D4214D2C3681B8AB5FBF3F203FB9B
:1058C00012556DB9302383F311882B462A46294699
:1058D000FFF7EEFD85F311880A2384F864300EE0AB
:1058E000142384F86430302383F3118800231A468C
:1058F00019462046FFF7CAFD002383F3118838BDFF
:10590000036F03B198470023E7E70021204601F029
:1059100007F90021204601F0FDF863681B6813B108
:105920000621204698470623D7E710B590F8643043
:10593000142B044629D017D8062B05D001D81BB14B
:1059400010BD093B022BFBD80021204601F0E8F8EE
:105950000021204601F0DEF863681B6813B10621C0
:1059600020469847062319E0152BE9D10B2380F830
:105970006430302383F3118800231A461946FFF759
:1059800097FD002383F31188DAE7C3689B695B689E
:10599000002BD5D1036F03B19847002384F86430FE
:1059A000CEE7704708B500F073F8BDE8084000F096
:1059B00017BC7047162303604FF0FF30704700207C
:1059C0007047184670470020704710B50022044603
:1059D00008460121FFF7FEF918B90C2323604FF0A8
:1059E000FF3010BD08B5134600215822184602F0BA
:1059F000B9FA4FF400524260002008BD0120704700
:105A000008B50248FFF772FA02F04FFA28920060D8
:105A100008B50248FFF76AFA02F047FA2D920060D3
:105A200001207047704700F1604303F561430901AD
:105A3000C9B283F80013012200F01F039A40430902
:105A40009B0003F1604303F56143C3F880211A60B2
:105A5000704700F01F0301229A4043099B0003F1A5
:105A6000604303F5614300F1604000F56140C3F815
:105A70008020C3F88021002380F80033704700F1B4
:105A80006040090100F56D40C9B20176704770476A
:105A90000F4A08B5936F43F00C03936700F074FB53
:105AA0000C4B4FF0FF329A66DA661A675A6703F5B5
:105AB000A6130522C3F84821074B5A6842F0080292
:105AC0005A600822C3F88420044B9B6808BD00BFBD
:105AD00000C00F4000C00A400040004200ED00E05E
:105AE00038B5C3B203F1804303F57C23C0F304252A
:105AF0001C68820EA940C0F34C30A84061400840A9
:105B00006040202A186006D9074B084A084840F22E
:105B10009F4102F0D1F905D00123064993408A6CD8
:105B20001A42FCD138BD00BF32920060A7920060DB
:105B30005092006000C00F4038B5C3B203F18043FB
:105B400003F57C23C0F304251C68820EA940C0F332
:105B50004C30A840614008406040202A186006D9B7
:105B6000074B084A084840F27A4102F0A5F905D0EF
:105B70000123064993408A6C1A42FCD138BD00BF0C
:105B8000329200609A9200605092006000C00F4014
:105B900010B50649040A032251F8243000F01F0012
:105BA000824023EA020341F8243010BD68C00F4050
:105BB00038B5DD4B4FF400421A60DC4BD3F8C022FD
:105BC00042F48032C3F8C022D3F8C02222F400325B
:105BD000C3F8C022D64BD74A1A60002000F016FC4A
:105BE00000F046FC012000F037FCD34AD34813688C
:105BF00023F0FF0343F07F0313600121FFF79CFFB5
:105C0000CF480121FFF798FFCE4AD36823F01F0346
:105C100043F01303D3601368002BFCDA0021CA4859
:105C2000C24CFFF75DFF4FF48870FFF7B1FF4FF4F0
:105C30008470FFF7ADFF40F21620FFF7A9FF4FF485
:105C40000670FFF7A5FF40F20E20FFF7A1FFBF4847
:105C50000321FFF745FFBE480121FFF741FF002167
:105C6000BC48FFF73DFF4FF48A70FFF791FF4FF4F8
:105C70008B70FFF78DFF1820FFF78AFF1A20FFF7C0
:105C800087FF4FF48670FFF783FF0121B248FFF7CB
:105C900027FF40F20260FFF77BFFB0480121FFF7CA
:105CA0001FFF0021AE48FFF747FF40F20460FFF7F7
:105CB0006FFFAC480121FFF713FF0021AA48FFF74F
:105CC0003BFF4FF44170FFF763FF07214FF21400D1
:105CD000FFF706FFA5480021FFF72EFF0021A4488B
:105CE000FFF72AFF4FF48070FFF752FF4FF48170E7
:105CF000FFF74EFF4FF48270FFF74AFF4FF48370B7
:105D0000FFF746FF9B480421FFF7EAFE02219A486D
:105D1000FFF712FF1620FFF73BFF98480321FFF71C
:105D2000DFFE00219648FFF707FF40F21250FFF711
:105D30002FFF94480321FFF7D3FE93480121FFF77B
:105D4000CFFE00219148FFF7F7FE40F21450FFF715
:105D50001FFF8F480321FFF7C3FE8E480121FFF785
:105D6000BFFE00218C48FFF7E7FE40F21650FFF718
:105D70000FFF8A480321FFF7B3FE89480121FFF78F
:105D8000AFFE00218748FFF7D7FE40F20620FFF75D
:105D9000FFFE4FF40270FFF7FBFE40F20A20FFF710
:105DA000F7FE81480021FFF79BFE00217F48FFF7A7
:105DB000C3FE0E20FFF7ECFE1220FFF7E9FE40F2D3
:105DC0000670FFF7E5FE1020FFF7E2FE1420FFF754
:105DD000DFFE4FF4E160FFF7DBFE75480121FFF7BE
:105DE0007FFE02217348FFF7A7FE4FF4A360FFF781
:105DF000CFFE1C20FFF7CCFE0C20FFF7C9FE4FF4AE
:105E00008C70FFF7C5FE40F20230FFF7C1FE40F292
:105E10000630FFF7BDFE40F21A50FFF7B9FE40F220
:105E20000E60FFF7B5FE64480021FFF759FE002120
:105E30006248FFF781FE40F20A30FFF7A9FE604892
:105E40000121FFF74DFE5F480321FFF749FE0521C1
:105E50005D48FFF771FE40F20E50FFF799FE5B4878
:105E60000121FFF73DFE5A480721FFF739FE0321C4
:105E70005848FFF761FE40F20250FFF789FE56488E
:105E80000121FFF72DFE55480721FFF729FE0321C9
:105E90005348FFF751FE4FF44070FFF779FE514829
:105EA0000121FFF71DFE50480721FFF719FE4F485B
:105EB0000321FFF741FE00214D48FFF73DFE4D480D
:105EC00000F008FB4C4800F027FB1B21002000F0ED
:105ED000B7FB1021012000F0B3FB1821022000F0D5
:105EE000AFFB1021032000F0ABFB00F099FB4FF457
:105EF00080336367D4F8703123F40043C4F8703101
:105F0000D4F8703123F40003C4F87031236F43F4E4
:105F100000532367D4F8A03023F40053C4F8A03012
:105F2000D4F8A0306AE000BFBC1F002000800D4004
:105F3000B81F002000366E0100C00F40186C0080B2
:105F4000143900140000084014EA000414680080AA
:105F500010E0004014FB00801CE0078024EB008070
:105F60001C30008024F000801C3100801427008049
:105F70001426008018FA00801864008024790080BC
:105F8000186E008028E6008028E007801C6A0080E8
:105F90002CE600802CE007801C6C008028F6008036
:105FA00028F007801C6E008038F3078038320080AC
:105FB00020E207802068008024E0078024260080FB
:105FC00038EC008018F7008038EF008030F900804E
:105FD00030F600803074008030EC008030E90080C2
:105FE0003067008028E9008028F900802073008055
:105FF0000C200080C8920060B492006023F4E0336B
:1060000043F48033C4F8A0300023C4F8B030012337
:10601000C4F8C030D4F8A030D4F8702123F4415330
:1060200023F03F0343F4022343F01F0342F04042B6
:10603000C4F87021C4F8A030D4F8A030002BFBDAEB
:106040004FF48035C4F8A85000F0F2FAC4F8E450D8
:10605000D4F8E03023F0030343F00103C4F8E03048
:10606000D4F8E03043F40053C4F8E030D4F8E03022
:1060700023F00C03C4F8E030D4F8E03043F480138C
:10608000C4F8E030D4F8E03043F40013C4F8E03052
:1060900000F0C0FA6562236A344843F40053236277
:1060A0000321FFF749FD32480021FFF745FD314844
:1060B0000021FFF741FD30480021FFF73DFDD4F8F6
:1060C000603123F01F03C4F860312C4B1A6E22F0AC
:1060D00070021A661A6E22F00F0242F001021A666E
:1060E0001A6E22F460021A661A6E22F4F81242F452
:1060F00090121A661A6E22F480721A661A6E22F0D4
:1061000080021A661A6E22F080721A66A3F5A02326
:106110005A6822F007025A605A6822F038025A6020
:106120005A6822F0C0025A605A6822F440725A60DB
:106130005A6822F440625A609A6822F09F6222F400
:10614000E0229A605A6822F400525A605A6822F497
:1061500080425A605A6922F080525A615A6922F08C
:1061600000525A61064B074A1A6038BD1872008007
:1061700014390014186C00801C26008000C00F40E9
:106180002C0C00200046C323FFF712BD72B6114B42
:10619000114A9A60114B4FF0AA325A64BFF34F8FE5
:1061A000BFF36F8F1A6C22F001021A641A6C42F06E
:1061B00006021A64BFF34F8FBFF36F8F9A6B22F4FE
:1061C0007F0242F420029A63BFF34F8FBFF36F8FB9
:1061D000FBF78ABB00ED00E00014006000C00A403D
:1061E0001B4B0022C3F894201022C3F89C20194AAC
:1061F000C3F8A0201122C3F89C20174AC3F8A0209E
:10620000164AC3F89C20164AC3F8A020154AC3F8C2
:106210009C20154AC3F8A020144AC3F89C20144AB5
:10622000C3F8A020134AC3F89C20134AC3F8A02047
:10623000124AC3F89C20124AC3F8A020114AC3F89E
:106240009C20114AC3F8A0200122C3F89420704773
:1062500000ED00E03F0000100900100012002000D7
:10626000210002071300002025000813140020203D
:1062700027000B13150000403300101316000060B8
:106280002F000B07170000702F000B13034B006843
:106290005B5CD84000F00100704700BF9E0C0020FE
:1062A000054B595C01238B40012A0CBFC0F8843098
:1062B000C0F88830704700BF9E0C002070B54D4C70
:1062C0004369665C0125B54023EA05034361162A4C
:1062D0001FD8DFE802F00C730C3646730C251E1E27
:1062E0001E1E1E1E1E1E565E656C737A8100424B7A
:1062F000424D5B5C043305EB830305265E60404B37
:106300005B5C803305EB8305062A4FF030036B603E
:1063100069D0615C436801228A4023EA020367E096
:10632000354B364A5B5C043302EB830305255D6025
:10633000334B5B5C803302EB83024FF400635360AA
:10634000E7E72D4B2D4A5B5C043302EB8303052505
:106350005D602B4B5B5C803302EB83024FF4E043C8
:10636000EDE7254B254A5B5C043302EB83030525EF
:106370005D60234B5B5C803302EB83024FF4405340
:10638000DDE71D4B5A5C1F4B9200134401225A60FB
:10639000BFE7194B5A5C1B4B920013440222F6E7ED
:1063A000154B5A5C174B920013440322EFE7124B34
:1063B0005A5C144B920013440422E8E70E4B5A5CDB
:1063C000104B920013440522E1E70B4B5A5C0D4B36
:1063D000920013440622DAE7074B5A5C094B9200FD
:1063E00013440722D3E7615C426801238B401343C7
:1063F000436070BD9E0C0020670C002000801F4091
:10640000300C002010801F407047000008B528B1F4
:106410000D4B0E4A0E48C12101F04EFD0D4B4FF0C1
:106420008042C3F85821D3F87022D103FBD54FF432
:106430008032C3F85421D3F850211204FBD54FF415
:106440008032C3F8582108BDD092006027930060C5
:10645000DF92006000800D40044B102210B9C3F899
:1064600074227047C3F87822704700BF00800D4047
:10647000034AD2F8703243F00103C2F87032704719
:1064800000800D40104AD2F8803043F00303C2F878
:10649000803002F5F212D2F8403143F00203C2F824
:1064A00040310A4B00BF013BFCD1094AD2F82031F0
:1064B00023F4F85323F0010343F4B85343F00103EA
:1064C000C2F820310120704700C00F40801A06003A
:1064D00000800D400F4A037911689B0321F4E031DD
:1064E0009BB20B4343F4803313601168036821F4BB
:1064F000415103F07F0321F03F010B4343F400536C
:1065000013601368002BFCDA136823F480331360E4
:10651000704700BF00800D40184B027B196B92033F
:1065200021F4E03192B20A4342F480321A63196BCB
:10653000027821F4405121F0010102F001020A43E6
:1065400042F400521A634268C18922F040421A653F
:10655000826822F040421A66428AC2F30E0242EA80
:106560000142017CC90389B20A431A641A6B002AEA
:10657000FCDA1A6B22F480321A63704700800D40F7
:106580000F4A437811699B0321F4E0319BB20B431E
:1065900043F4803313611169037821F441515B00A6
:1065A00003F0020321F002010B4343F44153136152
:1065B0001369002BFCDA136923F4803313617047ED
:1065C00000800D4007B50023ADF804300F4B1A6969
:1065D000920416D51A6942F040021A610C4B1A6BEC
:1065E00022F000421A631A6B22F080421A630022E2
:1065F0001A601A6B012042F4C6121A6303B05DF8E8
:1066000004FB01A8FFF7BCFFE8E700BF00800D40D6
:1066100000900D40014B00221A62704700800D402F
:10662000024B4FF480521A67704700BF00800D4044
:10663000024B4FF48052C3F8E020704700800D40B9
:1066400010B50A4CC000D4F80021BF23834022EAD1
:10665000030201F03F018023834081401343114333
:10666000C4F80031C4F8001110BD00BF00800D4017
:1066700008B5302383F31188FEF744FC002383F32D
:106680001188BDE80840FEF743BE4FF0E0234EF608
:106690005F225A6100229A6107221A6108210B20A9
:1066A000FFF7EDB9022908B508D003290AD001295E
:1066B00002D10648FEF70FFF002008BD0348FEF791
:1066C00042FFF9E70148FEF76AFFF5E7D41F002013
:1066D000F8B5254C057AE66842680F467DB1A36897
:1066E000016823F00113A36004F1740001F02CFC95
:1066F000736813B10021204698470020F8BD531C51
:106700002FD0C1B96389B06923F001039BB26381C3
:106710004260F268002AF0D063812046904730231F
:1067200083F31188E368986941680C30FEF7B6FD81
:1067300087F31188E1E7238923F001032381B368FC
:10674000002BDAD0294620469847302383F311885E
:10675000E368586929460C30FEF7A0FD85F31188DF
:10676000CBE70520CAE700BFD41F0020084601215F
:10677000FFF7AEBF08460021FFF7AABF70B50C7A3D
:10678000F4B94B6801331DD00F48D1B28D1C00EB1A
:10679000850503896E6801228A4023EA020303818A
:1067A000B3685BB19847302383F311886B685869ED
:1067B00021460C30FEF772FD84F31188204670BD2F
:1067C0000124FBE70524F9E7D41F0020F8B50C7A73
:1067D0000CBB4F687B1C20D01148D1B28D1C00EB44
:1067E000850543896E6801228A4023EA0203B26963
:1067F00043815760F26862B143819047302383F34D
:1068000011886B68986941680C30FEF747FD84F386
:1068100011882046F8BD0124FBE70524F9E700BFF5
:10682000D41F00200B4B186883685B6810B5D3F841
:106830004441D3F848311C4000F0E1FF230604D561
:1068400005484368DB6803B19847BDE81040FEF790
:106850005FBD00BFD01F0020D41F002013B50E4C19
:106860000E48FEF78BFD03220D4901A801F06CFBD9
:1068700021460020FFF7A6FE21460020FFF702FE7A
:1068800001AA0021022001F075F9064A06490220FA
:1068900000F01CFA02B010BD00389C1CD41F002070
:1068A000DC8D0060D01F0020A566006008B503786D
:1068B000012B0CD1064B984209D1064B186800F009
:1068C000E3F9BDE8084003217120FFF7ACB808BD2B
:1068D000D41F0020D01F002008B50378012B0BD156
:1068E000064B984208D1064B186800F0D1F9BDE874
:1068F00008407120FFF7ADB808BD00BFD41F0020CD
:10690000D01F002010B5124B124C134AC36086B042
:10691000124B0393019200232068049303AA01A958
:10692000ADF8083000F03CFA78B90D4B04908DF8C2
:10693000060003AA2068039301A900F031FA20B1F0
:106940009DF80610206800F04AFA06B010BD00BF9E
:1069500040930060D01F0020400080006D67006001
:106960007567006073B5154C0546002620688DF8E4
:1069700007600DF10702062100F072FA9DF807305A
:10698000032B0DD0022B09D895F87E308DF80730F7
:106990000DF107020721206800F083FA02B070BDF4
:1069A00020683246072100F07CFA0028F6D1012346
:1069B0008DF807300DF107020621ECE7D01F00200B
:1069C00030B5082987B00C461ED800EB8100C56899
:1069D000AA696B69D2B9BBB11C4B03932B680491B4
:1069E0008DF80730ADF8082064F07F038DF806308D
:1069F0002B8AADF80430164B03AA186801A900F0E1
:106A0000CFF908B9AB6963B907B030BD0F4A03923B
:106A10002A688DF8072000220491ADF80820002B89
:106A2000E2D18DF806400A4C0A4B039320686B8A2A
:106A3000ADF8043003AA01A900F0B2F90028E3D0B0
:106A40002068802100F0CBF9DEE700BF7D670060A1
:106A5000D01F0020CD67006070470000072907B5F0
:106A600013D80B4B8DF80410186801AA052100F00B
:106A7000F7F940B9BDF80630012B14BF0220012000
:106A800003B05DF804FB0220FAE70020F8E700BF3E
:106A9000D01F0020072907B515D80C4B61F07F01E6
:106AA0008DF80410186801AA052100F0D9F940B941
:106AB000BDF80630012B14BF0220012003B05DF8A1
:106AC00004FB0220FAE70020F8E700BFD01F0020F7
:106AD0007047000000EB8100C3689A695B8A106808
:106AE0009842044888BF136013680068926800F0F9
:106AF00053B900BFD01F002000EB810041F080019E
:106B0000C36803485A6900681368926800F03EB988
:106B1000D01F0020014B186800F080B9D01F002062
:106B2000024B41F08001186800F078B9D01F0020B6
:106B3000014B186800F083B9D01F0020024B41F0D0
:106B40008001186800F07BB9D01F002020B1C36815
:106B500023B15B698068184703207047062070479F
:106B60002DE9F7430D4617469846044698B3C36887
:106B70009BB3CE0946EA4106F6B24FF00C0909FB79
:106B8000060999F81C3053BB01A801F036F801231F
:106B900089F81C30019801F035F8E368A06815F019
:106BA000800F14BFD3F80890D3F80C9029464346C1
:106BB0003A46C847054650B101A801F01EF80C231B
:106BC00003FB064400230198237701F01BF82846B5
:106BD00003B0BDE8F0830325F9E70625F7E70225B2
:106BE000F5E730B5044685B0002949D0002847D0E4
:106BF0000369002B46D00A7A102A02F00F031FD136
:106C0000012380F8BF3000220E21FFF79FFF0025EF
:106C1000022384F8BE3084F8BC50234604F1A80255
:106C20005D619D611D770C339342F9D12369002288
:106C300001212046984784F8BF50002005B030BDA0
:106C4000062B1FD85B0043EAD2130C2202FB03027F
:106C50005569BDB1086801904868497A02908DF87D
:106C60000C1059B10022227784F828200C2202FB54
:106C7000034301A99A692046A847DFE71177F5E7A2
